:100000000C94F7010C941F020C941F020C94551DC4
:100010000C94301D0C940B1D0C941F020C941F02A9
:100020000C941F020C941F020C941F020C941F02CC
:100030000C941F020C941F020C941F020C941F02BC
:100040000C944A1B0C941F020C94BA1B0C94941B26
:100050000C941F020C941F020C941F020C941F029C
:100060000C94EC1B0C941F02084AD73B3BCE016E4C
:1000700084BCBFFDC12F3D6C74319ABD56833DDAFF
:100080003D00C77F11BED9E4BB4C3E916BAAAABE0E
:10009000000000803F004E414E494E495459494EA0
:1000A00046CDCCCC3D0AD7233C17B7D13877CC2BE3
:1000B000329595E6241FB14F0A000020410000C888
:1000C0004200401C4620BCBE4CCA1B0E5AAEC59D09
:1000D0007400407A10F35A00A0724E18090010A55F
:1000E000D4E80000E87648170000E40B5402000052
:1000F000CA9A3B000000E1F50500008096980000D8
:100100000040420F000000A0860100000010270000
:10011000000000E803000000006400000000000A86
:1001200000000000000100000000002C76D888DCF0
:10013000674F0823DFC1DFAE59E1B1B796E5E3E4CD
:1001400053C63AE651997696E8E6C28426EB898C46
:100150009B62ED407C6FFCEFBC9C9F40F2BAA56FA8
:10016000A5F490055A2AF75C936B6CF9676DC11B77
:10017000FCE0E40D47FEF520E6B500D0ED902E033F
:1001800000943577050080841E080000204E0A0088
:100190000000C80C333333330F986E12831141EFD4
:1001A0008D2114893BE65516CFFEE6DB18D1844B32
:1001B000381BF77C1D901DA4BBE424203284725EA2
:1001C000228100C9F124ECA1E53D27454550524F5D
:1001D0004D00434D44004F56455252554E00494D37
:1001E000550054494C54004E4F4E45004641554C25
:1001F0005400544553545F53455249414C005445B3
:1002000053545F454E434F44455253005445535455
:100210005F4D4F544F525300544553545F494D5511
:100220000042414C0049444C450043414C00424F80
:100230004F54002C00463A4641554C542C002C009B
:100240005B4556454E545D204641554C5420003187
:100250000041524D00300041524D0052415750571D
:100260004D00413A45525200413A4F4B00434D44F4
:1002700000563A424F4F542C005B424F4F545D2082
:100280000064656661756C747300454550524F4D4E
:10029000006C6F6164656400454550524F4D0042EB
:1002A000616C616E6365426F74556C74726120732A
:1002B00074617274696E67002C00463A4641554C71
:1002C000542C002C005B4556454E545D204641554C
:1002D0004C542000554E4B4E4F574E007570646184
:1002E00074655F6661696C6564006C6F6F705F6AEE
:1002F0006974746572005741524E00777269746573
:100300005F6661696C6564004F4B00534156450060
:100310002C002C002C00453A0072756E74696D65D6
:100320005F676170005741524E00000000002400DA
:1003300027002A0000000008000201000003040753
:1003400000000000000000002C002C002C002C00FD
:100350002C002C002C002C002C002C002C002C003D
:100360002C00543A0000000000250028002B00005B
:1003700000000023002600290004040404040404EF
:100380000402020202020203030303030301020444
:100390000810204080010204081020010204081007
:1003A000202C00463A0020005B4556454E545D2007
:1003B000002C00463A0020005B4556454E545D2017
:1003C000002C002C002C002C002C002C002C002CCD
:1003D000002C002C002C002C00533A002C00554E11
:1003E0004B4E4F574E002C00563A0000D01D1124A2
:1003F0001FBECFEFD8E0DEBFCDBF14E0A0E0B1E07C
:10040000EEECFCE602C005900D92AC34B107D9F7D2
:1004100026E0ACE4B4E001C01D92A83AB207E1F7CF
:1004200011E0C7EFD1E004C02197FE010E946D34B6
:10043000C63FD107C9F70E94AA1E0C9465360C94DA
:100440000000FC01AC01495C5F4F90E080E021912D
:10045000922728E0BC01880F991F77FF04C031E282
:10046000832730E193272150A9F7E417F50779F79F
:1004700008950895833081F028F4813099F0823016
:10048000A9F008958730A9F08830C9F08430B1F41C
:10049000809180008F7D03C0809180008F77809352
:1004A0008000089584B58F7784BD089584B58F7DCD
:1004B000FBCF8091B0008F778093B000089580913A
:1004C000B0008F7DF9CF1F93CF93DF93282F30E0BB
:1004D000F901EC5CFC4F8491F901E357FC4FD49196
:1004E000F901E758FC4FC491CC23A9F0162F8111D4
:1004F0000E943A02EC2FF0E0EE0FFF1FEB59FC4F89
:10050000A591B4918FB7F894EC91111108C0D095D2
:10051000DE23DC938FBFDF91CF911F910895DE2BF7
:10052000F8CFCF93DF9390E0FC01E357FC4F249189
:1005300087589C4FFC0184918823C9F090E0880F74
:10054000991FFC01E65DFC4FA591B491FC01EB59AC
:10055000FC4FC591D49161110DC09FB7F8948C9157
:10056000209582238C938881282328839FBFDF9145
:10057000CF910895623051F49FB7F8943C91822F47
:10058000809583238C93E8812E2BEFCF8FB7F8943F
:10059000EC912E2B2C938FBFEACFCF93DF93A091BA
:1005A0001505B0911605109709F443C01C968C915F
:1005B0001C97EDE6F0E0883050F0EBE6F0E08E308E
:1005C00030F0ECE6F0E0863110F0F0E0E0E05FB70C
:1005D000F8941092160510921505309749F11C9663
:1005E0008C911C97C8E6D0E0863110F0D0E0C0E0D6
:1005F0002881883008F46AC031E08E3008F430E099
:1006000081E090E001C0880F3A95EAF78095822357
:10061000888360811C964C91483008F059C081E075
:1006200090E001C0880F4A95EAF780958623808381
:100630005FBF60E080919E060E94910280919E06BD
:1006400090E0FC01E357FC4FE491E0931405FC01BA
:10065000E758FC4FE491F0E0EE0FFF1FE159FC4F2B
:10066000859194919093A1068093A00680919F0616
:1006700090E0FC01E357FC4F249120931305FC010B
:10068000E758FC4FE491F0E0EE0FFF1FEB59FC4FF1
:10069000A591B491B0931205A0931105109719F08C
:1006A000EC91E22BEC9361E080919F060E94910215
:1006B00080919E068830E0F08E3008F45EC0ECE653
:1006C000F0E08631B8F0DF91CF9108958BEF9FCFA6
:1006D000242F30E04E3048F42850310981E090E07A
:1006E00001C0880F2A95EAF7A0CF2E503109F6CF26
:1006F000EDE6F0E08FEF8093100510920F05109259
:100700000E058091A2069091A30681152BE4920715
:1007100009F457C0A8F58038954209F440C05FB786
:10072000F894408190919E06983008F052C081E084
:1007300001C0880F9A95EAF7842B808380919E06EA
:10074000E8E6F0E0863110F0F0E0E0E090818830FB
:1007500008F44EC021E08E3008F420E081E001C0B2
:10076000880F2A95EAF7892B808382E996E0909397
:100770001605809315055FBFA6CFEBE6F0E0BACF74
:1007800082312AE79207A9F08115964941F686E061
:1007900080930D058DE980930C0584E007C08AE104
:1007A00080930D0587E280930C058AE080930B050A
:1007B000B6CF88E080930D0580E880930C0585E036
:1007C000F5CF8DE080930D058EE480930C0586E0D7
:1007D000EDCF292F30E09E3040F42850310981E0E0
:1007E00001C0880F2A95EAF7A7CF2E503109F7CF1D
:1007F00084E0B9CF1F93CF93DF93182FEB0161E013
:100800000E949102209739F460E0812FDF91CF910F
:100810001F910C946302CF3FD10511F461E0F5CF35
:10082000E12FF0E0EC5CFC4FE491E33031F140F477
:10083000E130B1F0E230E1F0C038D1057CF7E4CF2F
:10084000E73029F1E83059F1E430B1F780918000C8
:10085000806280938000D0938B00C0938A0004C094
:1008600084B5806884BDC7BDDF91CF911F91089585
:1008700084B5806284BDC8BDF7CF80918000806858
:1008800080938000D0938900C0938800EDCF809141
:10089000B00080688093B000C093B300E5CF809132
:1008A000B00080628093B000C093B400DDCF70E0F0
:1008B00060E089E00E94FA0370E060E08AE00E9454
:1008C000FA0360E087E00E94630260E086E00E9435
:1008D000630260E088E00E94630260E08CE00C94B8
:1008E0006302EF92FF920F931F93CF93DF93E62E55
:1008F000F42EE9012F3F310509F0F4F421303F4F88
:1009000054F11C161D06DCF40091170510E00C17BD
:100910001D070CF48E0160E00E94630261E08E2DE1
:100920000E946302B8018F2DDF91CF911F910F912B
:10093000FF90EF900C94FA03CFEFD0E0E5CF209733
:1009400061F460E00E94630260E08E2D0E94630209
:1009500070E060E0E8CFC1E0DFEF2091170530E004
:10096000442755274C1B5D0B4217530724F4CC2713
:10097000DD27C21BD30B61E00E94630260E08E2D75
:100980000E946302662777276C1B7D0BCCCFCF9329
:10099000DF93EB019C0149E066E087E00E9471046F
:1009A0009E014AE06CE088E0DF91CF910C947104E5
:1009B0003FB7F8948091070590910805A09109052B
:1009C000B0910A0526B5A89B05C02F3F19F00196E6
:1009D000A11DB11D3FBFBA2FA92F982F8827BC0199
:1009E000CD01620F711D811D911D42E0660F771FC1
:1009F000881F991F4A95D1F708958F929F92AF92C1
:100A0000BF92CF92DF92EF92FF926B017C010E9426
:100A1000D8044B015C01C114D104E104F104B9F024
:100A20000E94D804681979098A099B09683E7340B5
:100A30008105910580F321E0C21AD108E108F1088F
:100A400088EE880E83E0981EA11CB11CE4CFFF90B5
:100A5000EF90DF90CF90BF90AF909F908F900895D0
:100A60002FB7F894609103057091040580910505F6
:100A7000909106052FBF089508950895DC01ED912A
:100A8000FC910190F081E02D0994EF92FF920F9379
:100A90001F93CF93DF938C017B01D0E0C0E0F7017F
:100AA000EC0FFD1F6491662361F0D801ED91FC917C
:100AB0000190F081E02DC8010995892B11F0219654
:100AC000EECFCE01DF91CF911F910F91FF90EF906C
:100AD0000895AF92BF92CF92DF92EF92FF920F9361
:100AE0001F93CF93DF936C017B018B01040F151FC4
:100AF000EB015E01AE18BF08C017D10759F069912C
:100B0000D601ED91FC910190F081E02DC60109958F
:100B1000892B79F7C501DF91CF911F910F91FF903C
:100B2000EF90DF90CF90BF90AF900895FC01538D70
:100B3000448D252F30E0842F90E0821B930B5417B7
:100B400010F0CF96089501970895FC01918D828D44
:100B5000981761F0A28DAE0FBF2FB11D5D968C91DD
:100B6000928D9F5F9F73928F90E008958FEF9FEF1C
:100B70000895FC01918D828D981731F0828DE80FD8
:100B8000F11D858D90E008958FEF9FEF0895FC0192
:100B9000918D228D892F90E0805C9F4F821B91095F
:100BA0008F739927089584E795E00E94C70521E097
:100BB000892B09F420E0822F089580E090E0892BB2
:100BC00029F00E94D30581110C9400000895FC01C6
:100BD000A48DA80FB92FB11DA35ABF4F2C91848D9E
:100BE00090E001968F739927848FA689B7892C93FB
:100BF000A089B1898C91837080648C93938D848D4E
:100C0000981306C00288F389E02D80818F7D808350
:100C10000895EF92FF920F931F93CF93DF93EC0110
:100C200081E0888F9B8D8C8D98131AC0E889F98993
:100C3000808185FF15C09FB7F894EE89FF89608396
:100C4000E889F98980818370806480839FBF81E017
:100C500090E0DF91CF911F910F91FF90EF90089559
:100C6000F62E0B8D10E00F5F1F4F0F731127E02E34
:100C70008C8D8E110CC00FB607FCFACFE889F9896C
:100C8000808185FFF5CFCE010E94E705F1CFEB8D86
:100C9000EC0FFD2FF11DE35AFF4FF0829FB7F89440
:100CA0000B8FEA89FB8980818062CFCFCF93DF935E
:100CB000EC01888D8823B9F0AA89BB89E889F98974
:100CC0008C9185FD03C0808186FD0DC00FB607FCA9
:100CD000F7CF8C9185FFF2CF808185FFEDCFCE01DC
:100CE0000E94E705E9CFDF91CF9108952091B004EC
:100CF000260F3327331F21323105ECF420913E05B6
:100D0000FC0190E080E0243069F082E00895A09139
:100D1000B0042191AC0140575B4FA40FB52FB11D1A
:100D20002C930196861798F38091B004680F609316
:100D3000B00480E0089581E0089510923E0581E0BE
:100D400080933D051092180561E082E10E946302E4
:100D500061E083E10E946302E9EBF0E080818E7F35
:100D6000808380818D7F808388E48093B80085E4D0
:100D70008093BC000895CF93DF9391E090938F040C
:100D80008823B9F0C091B800D091BA008091BC001E
:100D90008A7B8093BC0060E082E10E94630260E095
:100DA00083E10E9463020E949D06D093BA00C09323
:100DB000B800DF91CF9108958F929F92AF92BF922A
:100DC000CF92DF92EF92FF920F931F93CF93DF9317
:100DD000D0916705D13208F0D7C0182FC0916605B1
:100DE0000E94D8046B017C0180913E0581116BC08B
:100DF00082E080933E0510933D058FEF80933C0584
:100E000010923B05D0933A05A6E4B5E0EAE1F5E09F
:100E100080E0D81391C01092190580911905CC0F6C
:100E2000C82BC093190580911805813009F088C03E
:100E3000109218050E94D8046B017C01809119055D
:100E40008093BB008091400590914105A09142059F
:100E5000B0914305892B8A2B8B2BA1F00E94D804DB
:100E600000914005109141052091420530914305C4
:100E70006C197D098E099F0906171707280739077E
:100E800008F442C08091BC0083FDD8CF85EC8093EC
:100E9000BC000E94D8046B017C0180913E05823029
:100EA00009F450C080913C058F3F09F46FC08091D8
:100EB0003C05803209F46CC080913C05803309F414
:100EC00069C084E026C08091400590914105A091C1
:100ED0004205B0914305892B8A2B8B2B09F484CFD3
:100EE0000E94D8048090400590904105A090420552
:100EF000B09043056C197D098E099F0986169706E7
:100F0000A806B90608F070CF80913F050E94BB0685
:100F100085E0109245051092670510924405DF9117
:100F2000CF911F910F91FF90EF90DF90CF90BF90E6
:100F3000AF909F908F9008959D9191938F5F69CF0F
:100F400085EEA5CF8091400590914105A091420585
:100F5000B0914305892B8A2B8B2B09F49ECF0E94DD
:100F6000D80400914005109141052091420530912F
:100F700043056C197D098E099F0906171707280775
:100F8000390708F08ACFC0CF81E0C3CF80E0C1CF5E
:100F900082E0BFCF83E0BDCF0F931F93CF93DF934A
:100FA0008A01E901209711F4C8E6D5E091E0909319
:100FB0004405809366051092450510926705E88107
:100FC000F9810190F081E02DCE010995E881F98148
:100FD0000190F081E02DD8016C91CE01099581E05E
:100FE0000E94DC0691E0811190E0892FDF91CF9182
:100FF0001F910F9108950895E091F8048091F704EE
:10100000E81730F4F0E0ED52FB4F808190E0089556
:101010008FEF9FEF08959091F8048091F7042FEFE0
:101020003FEF981748F4E92FF0E0ED52FB4F208195
:1010300030E09F5F9093F804C90108958091F70410
:101040009091F804891B990B0895CF92DF92EF924B
:10105000FF920F931F93CF93DF937C01CB018A0103
:1010600020914405222389F0EB016B01C40ED51EAB
:10107000CC15DD0569F06991D701ED91FC910190E6
:10108000F081E02DC7010995F3CF642F0E94760609
:10109000C801DF91CF911F910F91FF90EF90DF90EA
:1010A000CF900895CF93DF931F92CDB7DEB76983BA
:1010B000209144052223F9F020916705203258F051
:1010C00021E030E0FC013383228390E080E00F9048
:1010D000DF91CF91089580914505E82FF0E0EA5B1C
:1010E000FA4F998190838F5F8093450580936705C0
:1010F00081E090E0ECCF61E0CE0101960E9476069F
:10110000F7CFE0911505F09116053097C1F00288F0
:10111000F389E02D309709F0099420910E0530E015
:10112000A9014F5F5F4F4F73552790910F0594179B
:1011300031F0215B3B4FF901808340930E05089508
:10114000CF93DF93EC01309110053F3F91F1AE85D5
:10115000BF858C9190911405892359F126B599E0AA
:10116000931B80910B05280F80914E04281B8091C2
:101170000C05289F90011124232F332726952695AF
:1011800092171306B0F480914D0420914C049150B5
:1011900018F0822B220FFBCF80934D0420934C0438
:1011A000909310050E94810881E02A893B89232BB6
:1011B00009F080E0DF91CF910895EF92FF920F93B5
:1011C0001F93CF93DF93E6B4F0901405F82290912B
:1011D00010059F3F91F4F11009C01092100581E0B5
:1011E00080934C0410924D04E0924E04DF91CF9115
:1011F0001F910F91FF90EF900895C0910B05CE0DB8
:1012000080914E04C81B80910C05C89FE0011124F9
:10121000CD2FDD27C695C69529E0291B022F10E0AA
:101220000C171D0708F02C2F920F9093100540917A
:101230004C0480914D04F11011C02150342F330F14
:101240002F3F19F0842B432FF8CF80934D04309318
:101250004C04983048F20E94810813C02150330B8F
:1012600001C0440F2A95EAF740934C04842B8093E5
:101270004D04983008F4B8CF0E94810881E0F81638
:1012800021F00C171D0708F4A8CF8FEF80931005ED
:10129000ABCFCF92DF92EF92FF920F931F93CF933A
:1012A000DF938C01D62E8091110590911205892B28
:1012B00009F454C0D8011C969C91D4E0983048F0B1
:1012C00081E09E3008F480E0D1E001C0DD0F8A9516
:1012D000EAF7CFB6F894F6B490E0E12CE394E0910D
:1012E0001105F091120580911305BAE0EB1651F14A
:1012F0009923D9F09081892B8083C0910D05C63048
:1013000011F4E0FCC7E086B58F198C17B0F48BB3ED
:101310008D2379F08BB38D2B8BBBD8011E96ED916D
:10132000FC9180810E94DD08EECF90818095892319
:10133000E3CFC8010E94A008E6CFFC0E9D2D91705E
:10134000D694CCCF9081892B8083CFBE86B58F1960
:101350008C1778F4C8010E94A008F8CF90E080E0D4
:10136000DF91CF911F910F91FF90EF90DF90CF9081
:10137000089581E090E0F4CF20910F0580910E0553
:10138000821769F030E0F901E15BFB4F80812F5F4C
:101390003F4F2F73332720930F0590E008958FEF71
:1013A0009FEF08959C0180910E0590910F05891B78
:1013B000990B805C9F4F60E470E00E94453481117E
:1013C00005C0C901F8940E94A008789490E008959F
:1013D000FC01108211821282138280E090E0A8E06A
:1013E000B2E484839583A683B78310861186128620
:1013F000138686E696E6A6E2BFE384879587A687EE
:10140000B787108A118A128A138A148A158A168A53
:10141000178A108E118E128E138E8FE692E1A3E83A
:10142000BAE3848F958FA68FB78F86EA9BE9A4E4F1
:10143000BBE380A391A3A2A3B3A380E090E0A0E0CC
:10144000BFE384A395A3A6A3B7A38DEC9CECACE467
:10145000BDE380A791A7A2A7B3A785E084A715A69F
:1014600016A617A60895CF93DF93EC012881398142
:101470002234324461F42A81243049F4CE010E949E
:10148000210221E04FA958AD4817590709F020E083
:10149000822FDF91CF9108956091C2017091C301B5
:1014A0008091C0019091C1010C94C704E1E4F1E086
:1014B0008FEF9FEFDC01858B968BA78BB08F118E02
:1014C000128E138E148E158E168E178E10A212A2E7
:1014D00011A20895CF92DF92EF92FF920F931F9384
:1014E00080E3E9E0F3E0A0E0B1E001900D928A959D
:1014F000E1F78091A4019091A501A091A601B0917E
:10150000A7018093300190933101A0933201B093F1
:101510003301E9E0F3E084A58093170580A591A548
:10152000A2A5B3A544A155A166A177A100A111A1CF
:1015300022A133A1C48CD58CE68CF78CC0925A06BC
:10154000D0925B06E0925C06F0925D0600935E0628
:1015500010935F0620936006309361064093620605
:1015600050936306609364067093650680936606E5
:1015700090936706A0936806B09369061F910F9138
:10158000FF90EF90DF90CF90089590E080E0089575
:101590002F923F924F925F926F927F928F929F9283
:1015A000AF92BF92CF92DF92EF92FF920F931F9371
:1015B000CF93DF93CDB7DEB72F970FB6F894DEBF8A
:1015C0000FBECDBF8C836F8349833987288758012D
:1015D00047010E9430056B017C018114910421F4C4
:1015E00088E6882E85E0982E2C81220F2E83398163
:1015F000832F90E0432F41954D83132F312C212CC5
:101600001F869B838A8301E0C501B0E0A0E08A8742
:101610009B87AC87BD87AA81BB812A163B060CF04D
:1016200011C100934405BC81B09366051092450535
:1016300010926705D401ED91FC910190F081E02DAD
:101640006F81C401099581E00E94DC060E94D804E4
:101650002B013C0180913E0581116DC01E87113226
:1016600010F0B0E2BE8700933E0500933D052FEFDA
:1016700020933C0510923B058E85815080933A055E
:1016800000931905809119053E81832B80931905DC
:1016900080911805813009F098C0109218050E94B9
:1016A000D8042B013C01809119058093BB008091E7
:1016B000400590914105A0914205B0914305892BC9
:1016C0008A2B8B2BA1F00E94D804209140053091E9
:1016D00041054091420550914305641975098609F9
:1016E0009709261737074807590708F445C080911E
:1016F000BC0083FDD8CF45EC4093BC000E94D804C9
:101700002B013C0180913E05813009F462C080913B
:101710003B059E85891718F4A0913B05AE87AAE189
:10172000B5E0E3EDF4E080E02E85821751F19D9164
:1017300091938F5FF9CF8091400590914105A091E1
:101740004205B0914305892B8A2B8B2B09F482CF5C
:101750000E94D804209140053091410540914205F6
:1017600050914305641975098609970926173707AB
:101770004807590708F06ECF80913F050E94BB06CD
:101780001E861092F8043E853093F704D401ED9143
:10179000FC910084F185E02DC4010995892B09F4A1
:1017A0004AC0A114B104B9F5D401ED91FC910284B1
:1017B000F385E02DC4010995E885F985BF85EB0F18
:1017C000F11D8083BF5FBF87E1CF55EE5093BC0012
:1017D00095CF8091400590914105A0914205B0912F
:1017E0004305892B8A2B8B2B09F48CCF0E94D804BC
:1017F00020914005309141054091420550914305AB
:101800006419750986099709261737074807590784
:1018100008F078CFB1CF0E9430056C197D098E0990
:101820009F092A853B854C855D8562177307840770
:10183000950708F4B9CF4A815B81240E351E5D817E
:10184000150FE9CEA114B104B1F00E943005AB012F
:10185000BC014C195D096E097F09C501B0E0A0E02B
:10186000481759076A077B0730F08F8599818917D8
:1018700010F4AFEFAF878F852F960FB6F894DEBFC9
:101880000FBECDBFDF91CF911F910F91FF90EF90D1
:10189000DF90CF90BF90AF909F908F907F906F9090
:1018A0005F904F903F902F9008952F923F924F92CC
:1018B0005F926F927F928F929F92AF92BF92CF92E0
:1018C000DF92EF92FF920F931F93CF93DF934C0120
:1018D0005B016A01390128011701C5E1D6E0E98001
:1018E000FA8008EE13E028E136E04EE06BE38881F1
:1018F0000E94C80A8B819C81982789279827F40128
:10190000918380838D819E81982789279827F5016F
:10191000918380838F819885982789279827F6015E
:10192000918380838B859C85982789279827F3014D
:10193000918380838D859E85982789279827F2013A
:10194000918380838F859889982789279827F1012B
:1019500091838083DF91CF911F910F91FF90EF9042
:10196000DF90CF90BF90AF909F908F907F906F90BF
:101970005F904F903F902F9008957F928F929F920B
:10198000AF92BF92CF92DF92EF92FF920F931F938D
:10199000CF93DF9300D0CDB7DEB7A82E962E742E4E
:1019A000822EB02E08EE13E09E012E5F3F4F41E0E5
:1019B0000E94C80A8823C1F1872D8819990BAC01B0
:1019C0004F5F5F4F81E090E002C0880F991F8A94BB
:1019D000E2F70197042E01C0880F0A94EAF72B2D35
:1019E00001C0220F4A95EAF7B82EB0949A81B92225
:1019F00082238B298A8389839701AE014F5F5F4FD2
:101A0000692D8A2D0E94CC070F900F90DF91CF9106
:101A10001F910F91FF90EF90DF90CF90BF90AF900C
:101A20009F908F907F90089580E0EECFCF92DF92CD
:101A3000EF92FF920F931F93CF93DF93EB017B0104
:101A400029E3E20EF11C8B016C01C61AD70AC6010C
:101A5000800F911F0E948D33F80181938F01EE1545
:101A6000FF05A9F7CE01DF91CF911F910F91FF9054
:101A7000EF90DF90CF900895FB0101900020E9F7EF
:101A80003197AF01461B570BDC01ED91FC910280B1
:101A9000F381E02D09948F929F92AF92BF92EF92C3
:101AA000FF920F931F93CF93DF93CDB7DEB7A1972C
:101AB0000FB6F894DEBF0FBECDBF7C01FA01CB019B
:101AC00019A2223008F42AE08E010F5D1F4F822EEA
:101AD000912CB12CA12CBF01A50194010E94B3331C
:101AE000F901CA016A300CF5605DD8016E938D0171
:101AF000232B242B252B79F790E080E0109721F001
:101B0000BD01C7010E943C0DA1960FB6F894DEBF3F
:101B10000FBECDBFDF91CF911F910F91FF90EF903E
:101B2000BF90AF909F908F900895695CDECFCF9269
:101B3000DF92EF92FF920F931F93CF93DF9377FF84
:101B40001DC06A017B01EC016DE20E943E058C0123
:101B500044275527BA014C195D096E097F092AE00F
:101B6000CE010E944B0D800F911FDF91CF911F91ED
:101B70000F91FF90EF90DF90CF9008952AE0DF91D2
:101B8000CF911F910F91FF90EF90DF90CF900C9429
:101B90004B0D2F923F924F925F926F927F928F9256
:101BA0009F92AF92BF92CF92DF92EF92FF921F93DC
:101BB000CF93DF93EC016A017B01722EAB0196019A
:101BC000CB01B6010E9432366DE973E0811126C067
:101BD00046015701E894B7F82FEF3FEF4FE75FE773
:101BE000C501B4010E94323681110CC02FEF3FEFC6
:101BF0004FE75FE7C501B4010E941F3061EA73E05F
:101C0000181664F02FEF3FEF4FE75FE4C701B6010E
:101C10000E9421361816B4F465EA73E0CE01DF9114
:101C2000CF911F91FF90EF90DF90CF90BF90AF903A
:101C30009F908F907F906F905F904F903F902F90EC
:101C40000C943C0D2FEF3FEF4FE75FECC701B6015F
:101C50000E941F3087FDE0CF20E030E0A901C701DE
:101C6000B6010E941F30312C212C87FF09C06DE284
:101C7000CE010E943E051C01F7FAF094F7F8F094AB
:101C800010E060E070E080E09FE3711641F020E03A
:101C900030E040E251E40E9452351F5FF6CFA701C9
:101CA00096010E9474342B013C010E94CB354B01FC
:101CB0005C012AE0BC01A401CE010E944B0D7C0115
:101CC000E20CF31C1123C1F1C501B4010E942430C0
:101CD0009B01AC01C301B2010E9473344B015C0152
:101CE0006EE2CE010E943E05E80EF91E115020F171
:101CF00020E030E040E251E4C501B4010E948530AB
:101D00002B013C010E94CB354B01B12CA12C2AE0C8
:101D1000B501A401CE010E944B0DE80EF91EC501CC
:101D2000B4010E9424309B01AC01C301B2010E94A6
:101D300073344B015C01DACFC701DF91CF911F9162
:101D4000FF90EF90DF90CF90BF90AF909F908F90DB
:101D50007F906F905F904F903F902F9008950C94DC
:101D6000C90DCF92DF92EF92FF920F931F93CF9303
:101D7000DF93EC016A017B0169ED73E00E94450588
:101D800009E013E0F801408151816281738124E010
:101D900030E0CE010E94AF0E67ED73E0CE010E94ED
:101DA0004505F801448155816681778124E030E062
:101DB000CE010E94AF0E65ED73E0CE010E94450595
:101DC000F801408551856285738524E030E0CE01BD
:101DD0000E94AF0E63ED73E0CE010E944505F8014D
:101DE000448555856685778524E030E0CE010E94E4
:101DF000AF0E61ED73E0CE010E944505F801408908
:101E000051896289738924E030E0CE010E94AF0ECF
:101E10006FEC73E0CE010E944505F80144895589B5
:101E20006689778924E030E0CE010E94AF0E6DEC28
:101E300073E0CE010E944505F801408D518D628D01
:101E4000738D24E030E0CE010E94AF0E6BEC73E0A6
:101E5000CE010E944505F801448D558D668D778D24
:101E600026E030E0CE010E94AF0E69EC73E0CE01B7
:101E70000E944505F80140A151A162A173A126E08D
:101E800030E0CE010E94AF0E67EC73E0CE010E94FD
:101E90004505F80144A155A166A177A126E030E0EF
:101EA000CE010E94AF0E65EC73E0CE010E944505A5
:101EB000F80140A551A562A573A524E030E0CE014C
:101EC0000E94AF0E63EC73E0CE010E944505F8015D
:101ED00044A550E070E060E02AE0CE010E944B0D86
:101EE00061EC73E0CE010E94450524E0B701A60134
:101EF000CE010E94C90D69EA73E0CE01DF91CF9156
:101F00001F910F91FF90EF90DF90CF900C943C0DBC
:101F1000CF92DF92EF92FF92CF93DF93C090A40114
:101F2000D090A501E090A601F090A701C1E1D6E014
:101F3000B701A601888199810E94B10EB701A6015F
:101F40008A819B81DF91CF91FF90EF90DF90CF90BE
:101F50000C94B10E2F923F924F925F926F927F92AC
:101F60008F929F92AF92BF92CF92DF92EF92FF92A9
:101F70000F931F93CF93DF93CDB7DEB760970FB664
:101F8000F894DEBF0FBECDBF3C011A012B010983BF
:101F90001A832B833C838DA19EA1AFA1B8A58D830D
:101FA0009E83AF83B88789A59AA5ABA5BCA5898771
:101FB0009A87AB87BC878DA59EA5AFA5B8A98D874D
:101FC0009E87AF87B88B09A91AA962E673E0C3019F
:101FD0000E94450523E030E0B201A101C3010E9447
:101FE000AF0E60E673E0C3010E94450523E030E0D8
:101FF00049815A816B817C81C3010E94AF0E6EE5DD
:1020000073E0C3010E94450523E030E0B701A6015B
:10201000C3010E94AF0E6CE573E0C3010E94450549
:102020004091AC015091AD016091AE017091AF0152
:1020300023E030E0C3010E94AF0E6AE573E0C30104
:102040000E9445054091B0015091B1016091B201EB
:102050007091B30123E030E0C3010E94AF0E68E548
:1020600073E0C3010E9445054091B4015091B50150
:102070006091B6017091B70122E030E0C3010E9487
:10208000AF0E66E573E0C3010E9445054091B801BB
:102090005091B9016091BA017091BB0122E030E02A
:1020A000C3010E94AF0E64E573E0C3010E944505C1
:1020B0004091A8015091A901052E000C660B770BE9
:1020C000C3010E94970D62E573E0C3010E944505BC
:1020D0004091AA015091AB01052E000C660B770BC5
:1020E000C3010E94970D60E573E0C3010E9445059E
:1020F0002AE0B501A401C3010E944B0D6EE473E018
:10210000C3010E9445052AE04D815E816F8178857B
:10211000C3010E944B0D6CE473E0C3010E944505AE
:102120002AE049855A856B857C85C3010E944B0D49
:102130006AE473E0C3010E9445052AE04D855E858F
:102140006F857889C3010E944B0D68E473E0C30179
:102150000E944505A80170E060E02AE0C3010E94EA
:102160004B0D69EA73E0C30160960FB6F894DEBFC9
:102170000FBECDBFDF91CF911F910F91FF90EF90D8
:10218000DF90CF90BF90AF909F908F907F906F9097
:102190005F904F903F902F900C943C0D0F931F93A6
:1021A000CF93DF93EC010E943C0D8C0169EA73E050
:1021B000CE010E943C0D800F911FDF91CF911F91A6
:1021C0000F910895EF92FF920F931F93CF93DF9398
:1021D0007C018B01C1E1D6E068EA73E088819981D6
:1021E0000E944505B701888199810E94450566EAEC
:1021F00073E0888199810E944505B80188819981A1
:102200000E94CE1063EA73E08A819B810E9445059B
:10221000B7018A819B810E94450561EA73E08A814A
:102220009B810E944505B8018A819B81DF91CF91F6
:102230001F910F91FF90EF900C94CE100F931F936E
:10224000CF93DF93EC010E9445058C0169EA73E0AE
:10225000CE010E943C0D800F911FDF91CF911F9105
:102260000F910895EF92FF920F931F93CF93DF93F7
:102270008C01C62FD42F790168EE73E00E944505CA
:102280006EED73E0C93040F4EC2FF0E0EE0FFF1F6D
:10229000EB5AFC4F60817181C8010E94450566EED2
:1022A00073E0C8010E9445054D2F50E070E060E0EA
:1022B000C8010E94970D6CED73E0C8010E944505AE
:1022C000B701C801DF91CF911F910F91FF90EF905F
:1022D0000C941E110F931F93CF93DF93E091420153
:1022E000C4EDD2E0E63038F4F0E0EE0FFF1FE75B1C
:1022F000FC4FC081D18100914001109141019E01AC
:10230000402F612F80911106909112060E94321188
:102310009E01402F612F8091130690911406DF914A
:10232000CF911F910F910C943211EF92FF920F9366
:102330001F93CF93DF937C018B01C1E1D6E068EB63
:1023400073E0888199810E944505B7018881998150
:102350000E94450566EB73E0888199810E944505DE
:10236000B801888199810E941E1163EB73E08A8114
:102370009B810E944505B7018A819B810E9445058A
:1023800061EB73E08A819B810E944505B8018A81D7
:102390009B81DF91CF911F910F91FF90EF900C9453
:1023A0001E111092400110923401109235011092CA
:1023B00036011092370110923801109239011092B3
:1023C0003A0110923B011092C4011092C101109287
:1023D000C0011092C3011092C2010E945704809163
:1023E0004101883019F082E08093410165E572E097
:1023F00087E592E00C949511CF92DF92EF92FF92D5
:10240000CF93DF93F894E9EFF4E0608171818281EA
:102410009381C480D580E680F78078946C0D7D1D13
:102420008E1D9F1D22E030E040E050E00E94D53339
:1024300069017A01C0E0D1E081E0809340011CAAEB
:102440001DAA1EAA1FAA18AE19AE1AAE1BAECA014B
:10245000B9010E9426306CAF7DAF8EAF9FAFC092A6
:10246000A001D092A101E092A201F092A30183E029
:10247000809341016FE472E081E592E0DF91CF91BA
:10248000FF90EF90DF90CF900C949511EF92FF9218
:102490000F931F93CF93DF93C82F8B01E1E4F1E0FB
:1024A000818388E08083E0E0F1E01092400114AA8B
:1024B00015AA16AA17AA10AE11AE12AE13AE0E943C
:1024C0005704EC2FF0E0EE0FFF1FE75BFC4FE080BE
:1024D000F180C1E1D6E060E472E0888199810E94D8
:1024E0004505B701888199810E9445056EE372E038
:1024F000888199810E944505B801888199810E944F
:102500001E1165E372E08A819B810E944505B70137
:102510008A819B810E94450563E372E08A819B81E9
:102520000E944505B8018A819B81DF91CF911F915F
:102530000F91FF90EF900C941E1185ED8093BC00DD
:102540008091400590914105A0914205B0914305CD
:102550000796A11DB11D23E0B695A7959795879580
:102560002A95D1F72091BC0024FD03C010923E05AE
:102570000895409140055091410560914205709148
:102580004305452B462B472B69F30097A105B10561
:1025900041F02AE22A95F1F700C00197A109B1099B
:1025A000E1CF80913F050C94BB06CF92DF92EF9272
:1025B000FF921F93CF93DF937C01EB01F701819191
:1025C0007F011991882379F0112359F090E00E943E
:1025D00037366C01812F90E00E943736C816D90635
:1025E00069F380E003C081E01111FBCFDF91CF914F
:1025F0001F91FF90EF90DF90CF900895EF92FF92A0
:102600000F931F93CF93DF938C017C01E701F701B8
:1026100081917F01882329F090E00E94CD2F892BA2
:10262000A9F7C017D10759F0FE0101900020E9F782
:10263000AF014C1B5D0BBE01C8010E943F36E80193
:1026400009900020E9F72197C017D10741F08A913E
:1026500090E00E94CD2F892B11F01882F5CFDF91E9
:10266000CF911F910F91FF90EF9008950F931F93BB
:10267000CF93DF93DC01CD91DC9128812223A1F05F
:102680008C016CE270E0CE010E945136009791F40B
:10269000FE0101900020E9F7CF010197D8018D9349
:1026A0009C93CE010E94FE12CE01DF91CF911F912B
:1026B0000F910895FC011192D801ED93FC93F1CF95
:1026C000EF92FF920F931F93CF93DF9300D0CDB77C
:1026D000DEB78B010E9436137C01FC0180818111E1
:1026E0000AC080E00F900F90DF91CF911F910F9162
:1026F000FF90EF9008951A8219824AE050E0BE01DF
:102700006F5F7F4FC7010E94B62EF801608371830F
:102710008283938309811A810115110571F0F801F3
:102720008081882371F090E00E94CD2F892BC9F21F
:102730000F5F1F4F1A830983EDCFEF2891F281E0DD
:10274000D1CF0E151F05D9F7CCCF2F923F924F92C4
:102750005F926F927F928F929F92AF92BF92CF9231
:10276000DF92EF92FF920F931F93CF93DF93CDB73A
:10277000DEB7C054D1090FB6F894DEBF0FBECDBF8F
:102780004C016B015CAF4BAF21963FAF2EAF219751
:1027900004E0CB0102969EAF8DAFDE0111965D0184
:1027A0001E01B1E32B0E311CD401ED91FC9100848C
:1027B000F185E02DC4010995892B09F451C7D40195
:1027C000ED91FC910284F385E02DC4010995ABAD38
:1027D000BCADEC918D3019F08A3009F030C7EE2392
:1027E00009F44EC0EC0DFD2DF11D1082C6010E94B2
:1027F000FE12F6018081833421F010E062E672E07F
:1028000030C081818A33C9F7EDADFEADFAAFE9AFD3
:10281000CF010E94FE12CE01C9960E9436137C01A0
:102820006CEA73E00E94D512882381F119821A8222
:102830001B821C82B501CE01C9960E946013182F1D
:102840008823E1F289819A81AB81BC81892B8A2B13
:102850008B2B19F00E94FC1102C00E94D11168E676
:1028600072E021968EAD9FAD21970E941E1111112D
:1028700007C000934201B6018DE692E00E94E2108B
:10288000ABADBCAD1C92F60110828ECF60EB73E055
:10289000C7010E94D512882309F44EC0CE01C99603
:1028A0000E9436137C0165EB73E00E94D512182F4D
:1028B000882331F00E94D11182E080934101CFCF73
:1028C0006AEB73E0C7010E94D512182F8111C2CFA5
:1028D00062EC73E0C7010E94D512182F882329F0FB
:1028E0000E94D11100934101BACF6BEC73E0C70194
:1028F0000E94D512182F882331F00E94D111F5E0E3
:10290000F0934101ACCF67ED73E0C7010E94D5128F
:10291000182F882321F00E94D11186E0CECF65EEDA
:1029200073E0C7010E94D512182F882309F465CFE0
:102930000E94D11187E0C1CF61EF73E0C7010E940F
:10294000D512182F882329F00E946A110E94880F3F
:1029500086CF68EF73E0C7010E94D512182F882335
:1029600071F021E0209343010E94300560934501FE
:1029700070934601809347019093480170CF68E1BE
:1029800074E0C7010E94D512182F882389F0109295
:1029900034011092350110923601109237011092D5
:1029A00038011092390110923A0110923B0157CF31
:1029B0006DEF73E0C7010E94D512182F882309F428
:1029C00075C010926A0610926B0610926C061092F7
:1029D0006D0610926E0610926F061092700610929D
:1029E000710610924A0610924B0610924C061092F5
:1029F0004D0610924E0610924F06109250061092FD
:102A000051061092520610925306109254061092DC
:102A100055061092560610925706109258061092BC
:102A2000590610927E0610927F0610928006109230
:102A3000810610927A0610927B0610927C06109204
:102A40007D06109276061092770610927806109204
:102A50007906109272061092730610927406109204
:102A6000750680E090E0A0E8BFE380938206909333
:102A70008306A0938406B093850610928606109272
:102A80008706109288061092890610928A06109284
:102A90008B0610928C0610928D0680938E06909372
:102AA0008F06A0939006B0939106D9CE65E074E0AE
:102AB000C7010E94D512882341F0109242018091F3
:102AC00040018823E9F011E0CACE60E174E0C7015B
:102AD0000E94D5128823C1F01092C4011092C10146
:102AE0001092C0011092C3011092C2010E945704BB
:102AF000809140018111E7CF80914101883019F325
:102B000082E080934101DFCF65E174E0C7010E945C
:102B1000D512182F8823D9F1F8941092F904109245
:102B2000FA041092FB041092FC041092FD0410921F
:102B3000FE041092FF041092000578941092900108
:102B400010929101109292011092930110929401AF
:102B5000109295011092960110929701109298018F
:102B60001092990110929A0110929B0110929C016F
:102B700010929D0110929E0110929F011092A0014F
:102B80001092A1011092A2011092A30168CE6EE1F1
:102B900074E0C7010E94D512882309F49BC01DAAC6
:102BA0001EAA1FAA18AE19AA1AAA1BAA1CAABE01FD
:102BB0006B5C7F4FCE01C9960E946013882309F495
:102BC0001DCEB101CE01C9960E946013F82E882354
:102BD00009F414CE80914001811110CE8091410101
:102BE000883009F40BCE8DA99EA9AFA9B8AD2FEFFF
:102BF00030E08F3F9105A105B10509F044F49C0137
:102C000081309F4FAF4FBF4F14F421E03FEF30931F
:102C1000C1012093C00189A99AA9ABA9BCA98F3F82
:102C20009105A105B10511F00CF040C08130EFEF26
:102C30009E07AE07BE07ECF19093C3018093C201DB
:102C4000232BD1F521E0892B09F420E02093C40146
:102C5000F5E0F09341010E944C0A4090C20150906F
:102C6000C301052C000C660877086091C0017091C3
:102C7000C101072E000C880B990B2AE0A5010E94C8
:102C8000EE2FF50101900020E9F73197EA19FB09D1
:102C9000AF014F5F5F4F4031510580F0188AB50199
:102CA0008BE592E00E94E2101F2DD9CD8FEF90E0CE
:102CB000C3CF81E09FEFC0CF2F2DC8CFEA0DFB1D02
:102CC0002CE220834A0D5B1D2AE0C301B2010E9461
:102CD000EE2FE5CF65E274E0C7010E94D51288238C
:102CE00009F43FC019821A821B821C82B501CE01F1
:102CF000C9960E948D1D182F882309F47FCD498025
:102D00005A806B807C8020E030E040E451ECC301CD
:102D1000B2010E941F3087FD1DC020E030E040E47A
:102D200051E4C301B2010E942136181634F4412C3B
:102D3000512C60E4662E61E4762E40920903509295
:102D40000A0360920B0370920C030E946A0A0E94AD
:102D50007A1D85CD412C512C50E4652E51EC752EF9
:102D6000ECCF6EE274E0C7010E94D5128111FFC161
:102D700062E374E0C7010E94D5128111F8C16AE2D2
:102D800074E0C7010E94D5128111F1C16DE274E0B7
:102D9000C7010E94D5128111EAC161E374E0C70145
:102DA0000E94D5128111E3C165E374E0C7010E945E
:102DB000D5128111DCC169E374E0C7010E94D5120C
:102DC0008111D5C16CE374E0C7010E94D512811155
:102DD000CEC16FE374E0C7010E94D5128111C7C153
:102DE00062E474E0C7010E94D5128111C0C165E49C
:102DF00074E0C7010E94D5128111B9C16AE174E083
:102E0000C7010E94D512882309F4F7CCCE010196A0
:102E10007C01B701CE01C9960E948D1D182F882311
:102E200009F4ECCC94E0E90EF11C2E143F0489F770
:102E300049805A806B807C8020E030E040E451EC97
:102E4000C301B2010E941F3087FDBEC320E030E005
:102E500040E451E4C301B2010E942136181634F453
:102E6000412C512C30E4632E31E4732E409209033F
:102E700050920A0360920B0370920C034D805E80A7
:102E80006F80788420E030E0A901C301B2010E9484
:102E90001F3087FDA0C320E030E048E453E4C301C5
:102EA000B2010E942136181634F4412C512C98E4BA
:102EB000692E93E4792E40920D0350920E03609296
:102EC0000F037092100349845A846B847C8420E041
:102ED00030E0A901C301B2010E941F3087FD7FC30A
:102EE00020E030E048E452E4C301B2010E94213600
:102EF000181634F4412C512C88E4682E82E4782E84
:102F000040921103509212036092130370921403C3
:102F10004D845E846F84788820E030E0A901C3018D
:102F2000B2010E941F3087FD5EC320E030E040EA1E
:102F300051E4C301B2010E942136181634F4412C29
:102F4000512CB0EA6B2EB1E47B2E409215035092C7
:102F50001603609217037092180349885A886B8889
:102F60007C8820E030E040E85FEBC301B2010E94C2
:102F70001F3087FD3CC320E030E040E85FE3C30141
:102F8000B2010E942136181634F4412C512CA0E8CD
:102F90006A2EAFE37A2E4092190350921A03609280
:102FA0001B0370921C034D885E886F88788C20E02C
:102FB00030E040E05FEBC301B2010E941F3087FDAB
:102FC0001DC320E030E040E05FE3C301B2010E9496
:102FD000213618162CF4412C512C612CEFE37E2E57
:102FE00040921D0350921E0360921F0370922003B3
:102FF000498C5A8C6B8C7C8C20E030E040E85FEB95
:10300000C301B2010E941F3087FDFEC220E030E004
:1030100040E85FE3C301B2010E942136181634F480
:10302000412C512C60E8662E6FE3762E40922103EE
:103030005092220360922303709224034D8C5E8C85
:103040006F8C78A020E030E0A901C301B2010E949A
:103050001F3087FDE0C220E030E040E85FE3C301BD
:10306000B2010E942136181634F4412C512C40E84C
:10307000642E4FE3742E40922503509226036092F3
:1030800027037092280349A05AA06BA07CA020E0DF
:1030900030E0A901C301B2010E941F3087FDBFC209
:1030A00020E030E040E85FE3C301B2010E94213636
:1030B000181634F4412C512C30E8632E3FE3732E64
:1030C0004092290350922A0360922B0370922C03A2
:1030D0004DA05EA06FA078A420E030E0A901C3015C
:1030E000B2010E941F3087FD9EC220E030E040E226
:1030F00051E4C301B2010E942136181634F4412C68
:10310000512C20E2622E21E4722E40922D03509227
:103110002E0360922F037092300349A45AA46BA42B
:103120007CA420E030E0A901C301B2010E941F305D
:1031300087FD7DC220E030E040E85FE3C301B201DB
:103140000E942136181634F4412C512C90E8692E37
:103150009FE3792E40923103509232036092330301
:10316000709234034DA45EA46FA478A80DC2198296
:103170001A821B821C82B501CE01C9960E948D1D48
:10318000182F882309F43ACB6EE274E0C7010E943D
:10319000D512882351F149805A806B807C8020E0D1
:1031A00030E0A901C301B2010E941F3087FD19C0A0
:1031B00020E030E048E453E4C301B2010E9421362C
:1031C000181634F4412C512C48E4642E43E4742E38
:1031D00040920D0350920E0360920F037092100301
:1031E000B4CD412C512C3201F3CF62E374E0C7011E
:1031F0000E94D512882351F149805A806B807C80CF
:1032000020E030E0A901C301B2010E941F3087FD18
:1032100019C020E030E048E452E4C301B2010E944A
:103220002136181634F4412C512C38E4632E32E444
:10323000732E409211035092120360921303709206
:10324000140383CD412C512C3201F3CF6AE274E098
:10325000C7010E94D512882351F149805A806B80A2
:103260007C8020E030E0A901C301B2010E941F3040
:1032700087FD19C020E030E040EA51E4C301B2010B
:103280000E942136181634F4412C512C20EA622E6B
:1032900021E4722E40921503509216036092170398
:1032A0007092180352CD412C512C3201F3CF6DE2B4
:1032B00074E0C7010E94D512882371F149805A80B9
:1032C0006B807C8020E030E040E85FEBC301B2011E
:1032D0000E941F3087FD19C020E030E040E85FE326
:1032E000C301B2010E942136181634F4412C512C2E
:1032F00090E8692E9FE3792E4092190350921A03A9
:1033000060921B0370921C0320CD412C512C80E84D
:10331000682E8FEB782EF0CF61E374E0C7010E9436
:10332000D512882361F149805A806B807C8020E02F
:1033300030E040E05FEBC301B2010E941F3087FD27
:1033400018C020E030E040E05FE3C301B2010E941A
:10335000213618162CF4412C512C612CBFE37B2E06
:1033600040921D0350921E0360921F03709220032F
:10337000ECCC412C512C612CAFEB7A2EF1CF65E3D4
:1033800074E0C7010E94D512882371F149805A80E8
:103390006B807C8020E030E040E85FEBC301B2014D
:1033A0000E941F3087FD19C020E030E040E85FE355
:1033B000C301B2010E942136181634F4412C512C5D
:1033C000F0E86F2EFFE37F2E4092210350922203FC
:1033D0006092230370922403B8CC412C512CE0E876
:1033E0006E2EEFEB7E2EF0CF69E374E0C7010E94F2
:1033F000D512882351F149805A806B807C8020E06F
:1034000030E0A901C301B2010E941F3087FD19C03D
:1034100020E030E040E85FE3C301B2010E942136C2
:10342000181634F4412C512C70E8672E7FE3772E68
:10343000409225035092260360922703709228033E
:1034400084CC412C512C3201F3CF6CE374E0C701E2
:103450000E94D512882351F149805A806B807C806C
:1034600020E030E0A901C301B2010E941F3087FDB6
:1034700019C020E030E040E85FE3C301B2010E94E0
:103480002136181634F4412C512C60E8662E6FE377
:10349000762E4092290350922A0360922B03709259
:1034A0002C0353CC412C512C3201F3CF6FE374E049
:1034B000C7010E94D512882351F149805A806B8040
:1034C0007C8020E030E0A901C301B2010E941F30DE
:1034D00087FD19C020E030E040E251E4C301B201B1
:1034E0000E942136181634F4412C512C50E2652EDE
:1034F00051E4752E40922D0350922E0360922F03BB
:103500007092300322CC412C512C3201F3CF62E473
:1035100074E0C7010E94D512882351F149805A8076
:103520006B807C8020E030E0A901C301B2010E94E1
:103530001F3087FD19C020E030E040E85FE3C301A1
:10354000B2010E942136181634F4412C512C40E867
:10355000642E4FE3742E40923103509232036092F6
:10356000330370923403F1CB412C512C3201F3CF51
:1035700065E474E0C7010E94D512882309F4E5CB05
:1035800049805A806B807C8020E030E0A901C30133
:10359000B2010E941F3087FD4EC020E030E04FE7AF
:1035A00053E4C301B2010E942136181634F4412CB1
:1035B000512C8FE7682E83E4782EC301B2010E945C
:1035C000CB3560933503C1CB412C512C20E4622EC6
:1035D00021EC722E4BCC412C512C32016CCC412C65
:1035E000512C32018DCC412C512C3201AECC412CCE
:1035F000512CF0E86F2EFFEB7F2ECDCC412C512CBF
:10360000612C7FEB772EECCC412C512C50E8652EB1
:103610005FEB752E0BCD412C512C32012CCD412C62
:10362000512C32014DCD412C512C32016ECD412C0B
:10363000512C32018FCD412C512C3201BECFE03ABA
:1036400008F01EC991E09E0FABADBCAD9C93EC0D94
:10365000FD2DF11D8083EC91EC0DFD2DF11D14C9A4
:10366000C05CDF4F0FB6F894DEBF0FBECDBFDF9159
:10367000CF911F910F91FF90EF90DF90CF90BF906F
:10368000AF909F908F907F906F905F904F903F9002
:103690002F9008951F920F920FB60F9211242F931F
:1036A0003F938F939F93AF93BF9380910305909126
:1036B0000405A0910505B09106053091020523E0AF
:1036C000230F2D3758F50196A11DB11D209302053A
:1036D0008093030590930405A0930505B093060518
:1036E0008091070590910805A0910905B0910A0500
:1036F0000196A11DB11D8093070590930805A09325
:103700000905B0930A05BF91AF919F918F913F91A9
:103710002F910F900FBE0F901F90189526E8230F42
:103720000296A11DB11DD2CF1F920F920FB60F921C
:1037300011242F933F934F935F936F937F938F93B6
:103740009F93AF93BF93EF93FF9384E795E00E941D
:10375000E705FF91EF91BF91AF919F918F917F917D
:103760006F915F914F913F912F910F900FBE0F90EE
:103770001F9018951F920F920FB60F9211242F933E
:103780008F939F93EF93FF93E0918405F0918505CC
:103790008081E0918A05F0918B0582FD1BC09081AC
:1037A00080918D058F5F8F7320918E05821741F078
:1037B000E0918D05F0E0EC58FA4F958F80938D05E0
:1037C000FF91EF919F918F912F910F900FBE0F90CE
:1037D0001F9018958081F4CF1F920F920FB60F9211
:1037E00011242F933F934F935F936F937F938F9306
:1037F0009F93AF93BF93EF93FF938091B900887F1E
:10380000803609F44AC0F0F5883209F4A7C018F5EB
:10381000803109F49BC0B8F4882309F4F9C08830DA
:1038200009F494C0FF91EF91BF91AF919F918F9157
:103830007F916F915F914F913F912F910F900FBEAC
:103840000F901F901895883109F488C0803251F785
:1038500080933C0514C0803409F49DC040F480334B
:10386000B9F38833F9F680933C0585ECB0C0803518
:1038700009F485C0883509F496C0883499F60E9409
:103880009D12D0CF883909F48CC038F5883729F0DB
:1038900050F4883611F0803729F683E080933E0596
:1038A0001092D20457C0883809F47BC0803919F0CF
:1038B000803809F0B7CF8091D204803208F071C00F
:1038C000E091D20481E08E0F8093D2048091BB00FE
:1038D000F0E0EE54FB4F80833DC0803B39F0E0F4D4
:1038E000803A09F479C0883A09F09CCF84E080934B
:1038F0003E051092B1041092B004E091F504F091ED
:10390000F60409958091B00481110FC081E0809385
:10391000B0041092900409C0803C09F4A6CF883C02
:1039200009F4A3CF883B09F07DCFE091B10481E099
:103930008E0F8093B104F0E0E057FB4F80818093BD
:10394000BB009091B1048091B00429C08091190509
:103950008093BB0085EC8093BC0064CF90913B05C5
:1039600080913A05981758F5E0913B0581E08E0F5C
:1039700080933B05F0E0E65EFA4F8081E9CFE0916D
:103980003B0581E08E0F80933B058091BB00F0E00A
:10399000E65EFA4F808390913B0580913A05981737
:1039A000C8F285E8D8CFE0913B0581E08E0F809387
:1039B0003B058091BB00F0E0E65EFA4F808380918A
:1039C0003D0581115CCF81E08093180584EA8093E6
:1039D000BC0010923E0526CF85EC8093BC0010926F
:1039E0003E058091D204803230F4E091D204F0E0C0
:1039F000EE54FB4F10826091D20470E0E091F3042A
:103A0000F091F40482EB94E009951092D2040ACF6D
:103A100010923C0534CF1F920F920FB60F921124D3
:103A20002F933F934F935F936F937F938F939F93C6
:103A3000AF93BF93EF93FF9389B10E94DD08FF918D
:103A4000EF91BF91AF919F918F917F916F915F9116
:103A50004F913F912F910F900FBE0F901F9018958F
:103A60001F920F920FB60F9211242F933F934F93F3
:103A70005F936F937F938F939F93AF93BF93EF93D6
:103A8000FF9386B10E94DD08FF91EF91BF91AF9146
:103A90009F918F917F916F915F914F913F912F9166
:103AA0000F900FBE0F901F9018951F920F920FB698
:103AB0000F9211242F933F934F935F936F937F93B4
:103AC0008F939F93AF93BF93EF93FF9383B10E9424
:103AD000DD08FF91EF91BF91AF919F918F917F9101
:103AE0006F915F914F913F912F910F900FBE0F906B
:103AF0001F901895CF93DF93C1E4D1E081E08A83D2
:103B00000E94300568517C4F8F4F9F4F6C837D839F
:103B10008E839F83DF91CF910895EF92FF920F9351
:103B20001F93CF93DF9300D0CDB7DEB78B010E94F8
:103B300036137C01FC01808181110AC080E00F9066
:103B40000F90DF91CF911F910F91FF90EF9008950B
:103B50001A821982BE016F5F7F4FC7010E94662DD6
:103B6000F801608371838283938309811A8101152F
:103B7000110571F0F8018081882371F090E00E94B6
:103B8000CD2F892BD9F20F5F1F4F1A830983EDCFF9
:103B9000EF28A1F281E0D3CF0E151F05D9F7CECFC4
:103BA000CF93DF93C4E7D5E01B821A8248EE53E03F
:103BB00060E070E04C835D836E837F838BE693E0EF
:103BC0009983888385EC90E09D878C8784EC90E0D6
:103BD0009F878E8780EC90E0998B888B81EC90E0BA
:103BE0009B8B8A8B82EC90E09D8B8C8B86EC90E09B
:103BF0009F8B8E8B198E1A8E1B8E1C8EE8E6F5E03D
:103C00001382128244835583668377838DE793E022
:103C10009183808382E996E0DC0113961C921E92C8
:103C20001297FC0144835583668377832FE833E042
:103C30003183208321E1248720E12587138A128A9A
:103C4000E5E1F6E038E630831282118248EF5AE26D
:103C500060E070E0418B528B638B748B12A611A6CF
:103C600014A613A616A615A610AA17A612AA11AA7C
:103C700014AA13AA15AA16AA17AA10AE11AE12AE4C
:103C800013AE14AE109252061092530610925406C0
:103C9000109255061092560610925706109258062A
:103CA000109259064FE652E163E87AE340935A06D0
:103CB00050935B0660935C0670935D0646EA5BE991
:103CC00064E47BE340935E0650935F066093600676
:103CD0007093610640E050E060E07FE3409362064D
:103CE0005093630660936406709365064DEC5CEC3C
:103CF0006CE47DE340936606509367066093680624
:103D00007093690610926A0610926B0610926C0608
:103D100010926D0610926E0610926F061092700649
:103D200010927106E2E7F6E0DF011D922A95E9F7AD
:103D300020E1E9E3F3E0A2E8B6E001900D922A95D4
:103D4000E1F7E1E1F6E0D183C08393838283DF91E1
:103D5000CF910895CF93DF93CDB7DEB7C35AD10982
:103D60000FB6F894DEBF0FBECDBF789484B58260E5
:103D700084BD84B5816084BD85B5826085BD85B50F
:103D8000816085BD80916E00816080936E0010928D
:103D90008100809181008260809381008091810008
:103DA0008160809381008091800081608093800099
:103DB0008091B10084608093B1008091B0008160F7
:103DC0008093B00080917A00846080937A00809123
:103DD0007A00826080937A0080917A00816080937B
:103DE0007A0080917A00806880937A001092C100F6
:103DF00062E08DE00E94910261E08BE00E949102FE
:103E000060E08BE00E946302E0918405F0918505FB
:103E100082E08083E0918005F09181051082E0913D
:103E20008205F091830580E1808310928C05E091FA
:103E30008805F091890586E08083E0918605F09100
:103E40008705808180618083E0918605F0918705F8
:103E5000808188608083E0918605F091870580816C
:103E600080688083E0918605F091870580818F7D51
:103E700080838091A2069091A3068038954279F0C4
:103E800080E895E29093A3068093A20680911505A1
:103E9000909116058259964011F40E94CD020E941D
:103EA000CD0269E772E080911106909112060E949E
:103EB00045056FE972E080911106909112060E940B
:103EC0001E1161E772E080911306909114060E9422
:103ED00045056FE972E080911306909114060E94E7
:103EE0001E1161E088E00E94910261E08CE00E9476
:103EF000910261E08AE00E94910261E087E00E9405
:103F0000910261E086E00E94910261E089E00E94F6
:103F100091020E94570462E085E00E94910262E0F3
:103F200084E00E94910289B1809301058AE390E0C8
:103F30008C0F9D1F07960E94E809CE0108960E94EB
:103F4000E809BE01665C7F4F90E080E00E94160D9C
:103F5000BE016F5F7F4F89E390E00E94160DCE0196
:103F6000CA960E94330A182FCE0101960E94330A86
:103F7000111146C6811155C68FEF80934D011092E5
:103F8000490110924A0110924B0110924C0161E8D4
:103F900072E08AE892E00E94951181E080934101ED
:103FA0001092F8041092F7041092450510926705DC
:103FB0000E949D068CE395E09093F6048093F504AF
:103FC0008DE395E09093F4048093F304E09016065B
:103FD000F090170601E023E042E06BE680911506C1
:103FE0000E94BD0C80E090E0AAEFBBE380932E0618
:103FF00090932F06A0933006B0933106E0901606FA
:10400000F090170600E022E044E06BE18091150695
:104010000E94BD0C80E090E0A0E8B8E380932A06FF
:1040200090932B06A0932C06B0932D06E0901606D5
:10403000F090170622E044E06CE1809115060E94A2
:10404000BD0CA0901606B0901706D090150675010D
:1040500008EE13E09E012F5F3F4F41E06BE68D2D90
:104060000E94C80A89818F7B8983E4968FAFE49789
:104070009501AE014D585F4F6BE68D2D0E94CC0728
:1040800062E070E080E090E00E94FD0410926A0619
:1040900010926B0610926C0610926D0610926E06CE
:1040A00010926F06109270061092710610924A06D6
:1040B00010924B0610924C0610924D0610924E062E
:1040C00010924F061092500610925106109252060E
:1040D00010925306109254061092550610925606EE
:1040E00010925706109258061092590610927E06AA
:1040F00010927F06109280061092810610927A0626
:1041000010927B0610927C0610927D061092760625
:104110001092770610927806109279061092720625
:1041200010927306109274061092750680E090E06B
:10413000A0E8BFE38093820690938306A093840651
:10414000B093850610928606109287061092880614
:104150001092890610928A0610928B0610928C0695
:1041600010928D0680938E0690938F06A0939006F2
:10417000B09391060E946A0AA0E9CA2EDD24D39466
:10418000812C912C5401F8E4EF2EF6E0FF2E06E48A
:1041900016E024E436E042E456E060E476E08EE3A4
:1041A00096E00E94550C6091420670914306072EDE
:1041B000000C880B990B0E9426302B013C0160916A
:1041C000400670914106072E000C880B990B0E9447
:1041D0002630A30192010E94F334905820EE3EE273
:1041E00045E652E40E9485309B01AC01C501B40153
:1041F0000E9474344B015C0165E070E080E090E067
:104200000E94FD04F1E0CF1AD10809F0BCCF20E0F4
:1042100030E048EC53E4C501B4010E94523560938C
:10422000A4017093A5018093A6019093A7016093C8
:10423000300170933101809332019093330182E019
:10424000809341010E94D80460934E0170934F0106
:1042500080935001909351010E9430056093640156
:104260007093650180936601909367010E94300509
:10427000609368017093690180936A0190936B0168
:104280000E94300560936C0170936D0180936E0104
:1042900090936F010E9430056093700170937101DB
:1042A00080937201909373010E94300560937401B2
:1042B0007093750180937601909377010E94300589
:1042C000609378017093790180937A0190937B01D8
:1042D0000E943005609388017093890180938A0160
:1042E00090938B0110928C0110928D0110928E018F
:1042F00010928F010E946A110E94880F80914101E3
:10430000823011F40E94FC11EAE32E2E312C2C0E87
:104310003D1E27E0220E311C89B19091010598279E
:104320008093010595FF16C085FF14C04091FD04E0
:104330005091FE046091FF04709100054F5F5F4F44
:104340006F4F7F4F4093FD045093FE046093FF0432
:104350007093000594FF15C084FF13C08091F90489
:104360009091FA04A091FB04B091FC040196A11D68
:10437000B11D8093F9049093FA04A093FB04B093C9
:10438000FC040E943005EC966CAF7DAF8EAF9FAF02
:10439000EC970E94D8044B015C01E1E4F3E08491C6
:1043A000EAE9F3E01491E6E8F3E0049101115DC459
:1043B0008091440181110AC081E080934401809181
:1043C0004001882309F463C40E94D11122E936E038
:1043D00047E053E065EC71E0C9010E94A51324E7B2
:1043E00035E048E053E066E672E0C9010E94A5139B
:1043F00080914E0190914F01A0915001B0915101D7
:1044000075016401C81AD90AEA0AFB0AF8E8CF164E
:10441000F3E1DF06E104F10408F447C480924E01A1
:1044200090924F01A0925001B0925101C09252015E
:10443000D0925301E0925401F092550180915601BF
:1044400090915701A0915801B0915901C816D90611
:10445000EA06FB0640F4C0925601D0925701E09262
:104460005801F092590180915A0190915B01A091FD
:104470005C01B0915D018C159D05AE05BF0540F452
:10448000C0925A01D0925B01E0925C01F0925D0112
:1044900080915E0190915F01A0916001B0916101F6
:1044A0008C0D9D1DAE1DBF1D80935E0190935F011D
:1044B000A0936001B09361018091620190916301CA
:1044C0008F3F980729F001969093630180936201D2
:1044D000C701B6010E9424302DEB37E346E855E3CF
:1044E0000E948530E8966CAF7DAF8EAF9FAFE897A6
:1044F0002FE632E143E85AE30E941F3087FF02C0F3
:104500000C94282D2AE037ED43EA5CE3E8966CAD85
:104510007DAD8EAD9FADE8970E942136181614F43C
:104520000C943D2D31E2C3163EE4D306E104F104C0
:1045300018F10E94300500918401109185012091AD
:10454000860130918701601B710B820B930B683ED3
:1045500073408105910580F00E94300560938401CD
:104560007093850180938601909387016AEE72E0D3
:1045700086EF92E00E94951120E030E0A901E896D4
:104580006CAD7DAD8EAD9FADE8970E941F301816C3
:104590000CF086C368E4E62E66E0F62E06E416E02C
:1045A00024E436E042E456E060E476E08EE396E010
:1045B0000E94550C6091420670914306072E000C34
:1045C000880B990B0E942630CC57DF4F6883798384
:1045D0008A839B83C458D040609140067091410605
:1045E000072E000C880B990B0E942630CC57DF4F0A
:1045F000288139814A815B81C458D0400E94F334BC
:104600006B017C016091440670914506072E000CF9
:10461000880B990B0E942630905820E030E043E050
:1046200053E40E945235C856DF4F688379838A83EA
:104630009B83C859D0406091460670914706072E6B
:10464000000C880B990B0E942630905820E030E037
:1046500043E053E40E945235C056DF4F68837983AC
:104660008A839B83C05AD040609148067091490666
:10467000072E000C880B990B0E942630905820E0E2
:1046800030E043E053E40E94523560935206709349
:104690005306809354069093550680916A06909134
:1046A0006B06A0916C06B0916D06C457DF4F8883EE
:1046B0009983AA83BB83CC58D0409C01AD01C856D6
:1046C000DF4F688179818A819B81C859D0400E94DF
:1046D0007334E8962CAD3DAD4EAD5FADE8970E94CA
:1046E000853020914A0630914B0640914C065091FE
:1046F0004D060E947434C456DF4F688379838A83E1
:104700009B83CC59D040C701B601905820EE3EE2C1
:1047100045E652E40E948530C456DF4F2881398136
:104720004A815B81CC59D0400E947334C058DF4F1E
:10473000688379838A839B83C058D04060936E06D8
:1047400070936F0680937006909371064090860672
:1047500050908706609088067090890620918A069E
:1047600030918B0640918C0650918D06C857DF4FD3
:10477000288339834A835B83C858D040A3019201C0
:1047800060915A0670915B0680915C0690915D067F
:104790000E947334C857DF4F288139814A815B8179
:1047A000C858D0400E9473349B01AC01209372061C
:1047B00030937306409374065093750680918E066D
:1047C00090918F06A0919006B0919106C057DF4F4F
:1047D00088839983AA83BB83C059D0404C015D0173
:1047E000B7FAB094B7F8B0948092760690927706B4
:1047F000A0927806B092790680927A0690927B0613
:10480000A0927C06B0927D0680915E0690915F0634
:10481000A0916006B0916106CC56DF4F88839983E2
:10482000AA83BB83C459D04080937E0690937F06B1
:10483000A0938006B0938106E8966CAD7DAD8EADF9
:104840009FADE8970E9485302091820630918306C3
:1048500040918406509185060E9474346B017C015E
:10486000A5019401E8966CAD7DAD8EAD9FADE89746
:104870000E9485304B015C01AC019B01C301B20178
:104880000E947434C458DF4F688379838A839B8382
:10489000CC57D040A5019401C857DF4F688179817A
:1048A0008A819B81C858D0400E947434C857DF4F1A
:1048B000688379838A839B83C858D040209162069D
:1048C000309163064091640650916506C701B601B8
:1048D0000E9474342B013C01AC019B01C701B6015D
:1048E0000E9452354B015C01A3019201C857DF4F72
:1048F000688179818A819B81C858D0400E94523555
:104900002B013C01A5019401C701B6010E9485302D
:104910009B01AC01C701B6010E947334609382060B
:10492000709383068093840690938506A501940175
:10493000C458DF4F688179818A819B81CC57D040F0
:104940000E9485309B01AC01C458DF4F688179819A
:104950008A819B81CC57D0400E9473346093860635
:10496000709387068093880690938906A30192012D
:10497000C701B6010E9485309B01AC01C857DF4FCB
:10498000688179818A819B81C858D0400E947334A4
:1049900060938A0670938B0680938C0690938D06A5
:1049A000CC56DF4F288139814A815B81C459D04080
:1049B000E8966CAD7DAD8EAD9FADE8970E948530D9
:1049C000C057DF4F288139814A815B81C059D0406F
:1049D0000E9474346B017C01A3019201C458DF4F23
:1049E000688179818A819B81CC57D0400E94853033
:1049F0009B01AC01C701B6010E94733460938E061F
:104A000070938F068093900690939106A301920174
:104A1000C058DF4F688179818A819B81C058D0401E
:104A20000E948530C457DF4F288139814A815B81DC
:104A3000CC58D0400E9474349B01AC0120936A068C
:104A400030936B0640936C0650936D06C856DF4F4B
:104A5000688179818A819B81C859D0400E947334D2
:104A600060934E0670934F068093500690935106C4
:104A7000A5019401C058DF4F688179818A819B81AB
:104A8000C058D0400E948530C456DF4F28813981FC
:104A90004A815B81CC59D0400E94743460934A06AD
:104AA00070934B0680934C0690934D0660913E06A2
:104AB00070913F06072E000C880B990B0E94263040
:104AC000CC57DF4F288139814A815B81C458D0405F
:104AD0000E94F3346B017C0180906606909067061B
:104AE000A0906806B0906906C056DF4F28813981D2
:104AF0004A815B81C05AD040E8966CAD7DAD8EADE9
:104B00009FADE8970E948530209156063091570658
:104B100040915806509159060E9474342B013C0173
:104B2000A501940160E070E080E89FE30E94733487
:104B30009B01AC01C301B2010E9485302B013C01F5
:104B4000C701B601905820EE3EE245E652E40E94CD
:104B50008530A50194010E9485309B01AC01C30101
:104B6000B2010E9474346093560670935706809386
:104B700058069093590680914101883009F4A0C0ED
:104B8000F8946091F9047091FA048091FB0490917B
:104B9000FC040091FD041091FE042091FF0430916B
:104BA00000057894600F711F821F931F22E030E090
:104BB00040E050E00E94D53369017A018090A00165
:104BC0009090A101A090A201B090A301C092A00179
:104BD000D092A101E092A201F092A3018091410143
:104BE000833021F4809140018111E7C3E8EAF1E0CC
:104BF00088E1DF011D928A95E9F70E94570455C0AC
:104C000021964CAD5DAD6EAD7FAD2197882349F106
:104C10008C819D81AE81BF8184179507A607B70758
:104C200000F121E0CE01019630E3FC013796A9E0C6
:104C3000B3E001900D923A95E1F7FC0183819481F4
:104C4000A581B6818093490190934A01A0934B01BD
:104C5000B0934C0120934D0161E972E088E992E044
:104C60009AC920E0CE01CA96DFCF81110E943A0294
:104C7000E02FF0E0EE0FFF1FE159FC4FA591B4913A
:104C80008C91182309F494CB109244019FCB80910E
:104C900041018250823008F099CB0E94FC1196CBE2
:104CA0006CED72E082E00E944612809141018530F5
:104CB00039F48091C401882309F48CC60E944C0AFF
:104CC00080914301882309F4A1C08091450190910E
:104CD0004601A0914701B0914801EC962CAD3DAD45
:104CE0004EAD5FADEC97281B390B4A0B5B0BDA011D
:104CF000C901B7FD8BC0C1010E94E80982E492E4BA
:104D00009BAF8AAF84E08CAF8091490190914A01BA
:104D1000A0914B01B0914C010196A11DB11D2196AE
:104D20008CAF9DAFAEAFBFAF219780E3E9E0F3E07A
:104D3000DE01AF5BBF4F01900D928A95E1F7CE0186
:104D4000CA960E942102E3969FAF8EAFE3978091AF
:104D50004D019924939409E310E0882319F0912CD4
:104D600010E000E0AE01465C5F4F6A01F12CE12CDF
:104D7000D6018D906D015801AE0CBF1CC5010E947B
:104D80008D33881621F0682DC5010E949533BFEF41
:104D9000EB1AFB0AE9E3EE16F10451F7CE0108968F
:104DA0000E94E80990E080E0992011F089E390E00A
:104DB000BE016F5F7F4F0E94160DCE0101960E94CB
:104DC000330A882309F434C68C819D81AE81BF816A
:104DD00021964CAD5DAD6EAD7FAD219784179507E3
:104DE000A607B70709F024C68093490190934A01AA
:104DF000A0934B01B0934C0190924D01109243014E
:104E000068E073E08BE093E00E9495118091780157
:104E100090917901A0917A01B0917B01EC962CAD33
:104E20003DAD4EAD5FADEC97281B390B4A0B5B0BCC
:104E3000DA01C901883E9340A105B10580F0EC96E6
:104E40008CAD9DADAEADBFADEC97809378019093E6
:104E50007901A0937A01B0937B010E946A1180913D
:104E6000740190917501A0917601B0917701EC9653
:104E70002CAD3DAD4EAD5FADEC97281B390B4A0B09
:104E80005B0BDA01C90188399A43A105B105C0F06D
:104E9000EC968CAD9DADAEADBFADEC97809374013B
:104EA00090937501A0937601B093770180914101B1
:104EB000833021F480914001811102C00E94880F4B
:104EC0008091680190916901A0916A01B0916B0194
:104ED000EC962CAD3DAD4EAD5FADEC97281B390B7C
:104EE0004A0B5B0BDA01C901883E9340A105B1056D
:104EF00008F487C0EC968CAD9DADAEADBFADEC9720
:104F00008093680190936901A0936A01B0936B014B
:104F1000F894C090F904D090FA04E090FB04F0906B
:104F2000FC048090FD049090FE04A090FF04B090DB
:104F3000000578948091940190919501A09196013B
:104F4000B0919701A5019401281B390B4A0B5B0B0B
:104F5000E8962CAF3DAF4EAF5FAFE89780919001E0
:104F600090919101A0919201B09193012601370196
:104F7000481A590A6A0A7B0A009111061091120612
:104F800066E173E0C8010E944505B701A601C801AA
:104F90000E94970D64E173E0C8010E944505B501C8
:104FA000A401C8010E94970D62E173E0C8010E944C
:104FB0004505B301A201C8010E94970D60E173E0AD
:104FC000C8010E944505E8964CAD5DAD6EAD7FAD64
:104FD000E897C8010E94970D69EA73E0C8010E9432
:104FE0003C0DC0929001D0929101E0929201F0921A
:104FF00093018092940190929501A0929601B092B3
:1050000097018091640190916501A0916601B09132
:105010006701EC962CAD3DAD4EAD5FADEC97281B16
:10502000390B4A0B5B0BDA01C901883E9340A1059D
:10503000B10508F4A8C0EC968CAD9DADAEADBFAD8A
:10504000EC978093640190936501A0936601B093FF
:10505000670160906201709063016114710409F44A
:10506000EDC4930150E040E060915E0170915F01FA
:1050700080916001909161010E94B333522E432EC2
:10508000FA0190915A01E5969FAFE597A0915B01D7
:10509000C058DF4FA883C058D040B0915C01ED9656
:1050A000BFAFED9720915D01CC57DF4F2883C458E7
:1050B000D0408091560190915701A0915801B09134
:1050C00059018F3F3FEF9307A307B30719F480E01F
:1050D00090E0DC018090520190905301A090540127
:1050E000B0905501C0905206D0905306E0905406FF
:1050F000F090550600914E0610914F0620915006F3
:105100003091510640914A0650914B0660914C06F1
:1051100070914D067F926F92FF93EF934F925F9243
:10512000CC57DF4FE881C458D040EF93ED96FFADE8
:10513000ED97FF93C058DF4FE881C058D040EF9300
:10514000E596FFADE597FF93BF93AF939F938F9342
:1051500080911106909112060E94AA0FEC962CAD38
:105160003DAD4EAD5FADEC97209388013093890142
:1051700040938A0150938B010E94560A0FB6F8940F
:10518000DEBF0FBECDBF80916C0190916D01A091EB
:105190006E01B0916F01EC962CAD3DAD4EAD5FADA3
:1051A000EC97281B390B4A0B5B0BDA01C901883ECF
:1051B0009340A105B10508F4A8C0EC968CAD9DAD57
:1051C000AEADBFADEC9780936C0190936D01A09351
:1051D0006E01B0936F016090620170906301611481
:1051E000710409F430C4930150E040E060915E0125
:1051F00070915F0180916001909161010E94B333D1
:10520000522E432EFA0190915A01E5969FAFE597F1
:10521000A0915B01C058DF4FA883C058D040B09127
:105220005C01ED96BFAFED9720915D01CC57DF4F4C
:105230002883C458D0408091560190915701A09185
:105240005801B09159018F3F3FEF9307A307B30770
:1052500019F480E090E0DC018090520190905301BD
:10526000A0905401B0905501C0905206D0905306C2
:10527000E0905406F090550600914E0610914F06AE
:10528000209150063091510640914A0650914B06AC
:1052900060914C0670914D067F926F92FF93EF9351
:1052A0004F925F92CC57DF4FE881C458D040EF93C4
:1052B000ED96FFADED97FF93C058DF4FE881C058E2
:1052C000D040EF93E596FFADE597FF93BF93AF9383
:1052D0009F938F9380911306909114060E94AA0FBA
:1052E000EC962CAD3DAD4EAD5FADEC9720938801B3
:1052F0003093890140938A0150938B010E94560A92
:105300000FB6F894DEBF0FBECDBF8091880190919B
:105310008901A0918A01B0918B01EC962CAD3DAD35
:105320004EAD5FADEC97281B390B4A0B5B0BDA01D6
:10533000C901803D9740A105B10578F180918C01AC
:1053400090918D01A0918E01B0918F01EC962CADC2
:105350003DAD4EAD5FADEC97281B390B4A0B5B0B97
:10536000DA01C901803D9740A105B105B0F0EC9686
:105370008CAD9DADAEADBFADEC9780938C0190939D
:105380008D01A0938E01B0938F0169E173E085E2F6
:1053900093E00E9495110E946A1180E090E0892BB1
:1053A00011F40C948C210E94D305882311F40C94E1
:1053B0008C210E9400000C948C2120914A0630918F
:1053C0004B0640914C0650914D06CC57DF4F288339
:1053D00039834A835B83C458D04020E030E0A90180
:1053E000E8966CAD7DAD8EAD9FADE8970E941F3005
:1053F00018160CF0CAC280914E0690914F06A091EB
:105400005006B0915106C057DF4F88839983AA8315
:10541000BB83C059D040C701B601681979098A0910
:105420009B090E942630E8962CAD3DAD4EAD5FAD98
:10543000E8970E945235C058DF4F688379838A838A
:105440009B83C058D0404090300150903101609013
:10545000320170903301C701B6010E9426306B0102
:105460007C01A3019201CC57DF4F688179818A8149
:105470009B81C458D0400E9473349F7720E030E075
:1054800040E250E40E941F3087FF37C020E030E048
:1054900040E951E4C058DF4F688179818A819B815E
:1054A000C058D0409F770E941F3087FF26C028E455
:1054B00031EE4AE75FE360913C0170913D018091DC
:1054C0003E0190913F010E9485304B015C012AE032
:1054D00037ED43EA5CE3C701B6010E9485309B01CA
:1054E000AC01C501B4010E94743460933C01709317
:1054F0003D0180933E0190933F01A7019601609189
:105500003C0170913D0180913E0190913F010E94CC
:105510007334C458DF4F688379838A839B83CC5765
:10552000D0409B01AC01E8966CAD7DAD8EAD9FADDA
:10553000E8970E94853020913801309139014091DF
:105540003A0150913B010E9474346B017C0120E0D0
:1055500030E44CE955EC0E941F3087FDF8C120E093
:1055600030E44CE955E4C701B6010E942136181613
:105570003CF4C12C50E4D52E5CE9E52E55E4F52E23
:10558000C0923801D0923901E0923A01F0923B0189
:10559000209110013091110140911201509113019D
:1055A000C458DF4F688179818A819B81CC57D04074
:1055B0000E9485304B015C0120911401309115014E
:1055C0004091160150911701C701B6010E94853024
:1055D0009B01AC01C501B4010E9474346B017C01D4
:1055E000209118013091190140911A0150911B012D
:1055F000C058DF4F688179818A819B81C058D04033
:105600000E9485309B01AC01C701B6010E94733432
:105610004B015C0120E030E040EC50EC0E941F3078
:1056200087FD9DC120E030E040EC50E4C501B401AD
:105630000E942136181634F4812C912C30ECA32EC4
:1056400030E4B32E2091000130910101409102011C
:1056500050910301C301B2010E947434A501940169
:105660000E947434C457DF4F688379838A839B8395
:10567000CC58D0409B01AC01CC57DF4F6881798179
:105680008A819B81C458D0400E9473342B013C0115
:10569000209108013091090140910A0150910B01BC
:1056A000C857DF4F288339834A835B83C858D0406B
:1056B00020E030E0A901C857DF4F688179818A81F5
:1056C0009B81C858D0400E941F30882309F454C1E0
:1056D000A3019201E8966CAD7DAD8EAD9FADE897CC
:1056E0000E9485302091340130913501409136017E
:1056F000509137010E9474346B017C0120E030E04E
:1057000046E953EC0E941F3087FD2FC120E030E0B6
:1057100046E953E4C701B6010E942136181634F455
:10572000C12CD12C96E9E92E93E4F92EC0923401D4
:10573000D0923501E0923601F092370120910401B8
:10574000309105014091060150910701C301B2015A
:105750000E9485306B017C0120913401309135012C
:105760004091360150913701C857DF4F68817981E8
:105770008A819B81C858D0400E9485309B01AC0132
:10578000C701B6010E9474346B017C0120910C01A9
:1057900030910D0140910E0150910F01C057DF4F24
:1057A000688179818A819B81C059D0400E9485306F
:1057B0009B01AC01C701B6010E94743490580E944D
:1057C000C4357B01F092A901E092A801F092AB01EF
:1057D000E092AA01C457DF4F88819981AA81BB81D9
:1057E000CC58D0408093AC019093AD01A093AE0112
:1057F000B093AF018092B0019092B101A092B2013A
:10580000B092B301C458DF4F288139814A815B814E
:10581000CC57D0402093B4013093B5014093B601EA
:105820005093B701C058DF4F88819981AA81BB810D
:10583000C058D0408093B8019093B901A093BA01A9
:10584000B093BB014092BC015092BD016092BE0179
:105850007092BF0120E030E044E352E4CC57DF4FC8
:10586000688179818A819B81C458D0409F770E944A
:10587000213618160CF0A9C08E010F5F1F4F22E0D1
:1058800040E0CC57DF4F688179818A819B81C45881
:10589000D0400E94482DC8010E94FE1281E08093F2
:1058A000420188E08093410110924001109234013E
:1058B0001092350110923601109237011092380182
:1058C0001092390110923A0110923B010E94570444
:1058D00065EC72E080911106909112060E944505D8
:1058E00062EE71E080911106909112060E944505CA
:1058F00063EC72E080911106909112060E944505BA
:10590000B80180911106909112060E94CE106AEBA8
:1059100072E080911306909114060E94450562EE94
:1059200071E080911306909114060E94450568EB82
:1059300072E080911306909114060E944505B8010B
:1059400080911306909114060E94CE10AEC9C12C0E
:1059500040E4D42E4CE9E42E45ECF42E11CE812CFB
:10596000912C20ECA22EBA2C6DCEC12CD12C86E924
:10597000E82E83ECF82EDACE109234011092350125
:105980001092360110923701D9CE412C512C3201A0
:10599000C058DF4F488259826A827B82C058D0400B
:1059A000C458DF4F488259826A827B82CC57D040EC
:1059B00053014201C457DF4F488259826A827B8279
:1059C000CC58D040F12CE12CFDCEB701C7010E948C
:1059D000C7046BC9EC966CAD7DAD8EAD9FADEC97F9
:1059E00020ED37E040E050E00E94B333DA01C90116
:1059F00083709927AA27BB2781309105A105B1059E
:105A000069F038F00297A105B10579F00E945704BA
:105A100057C96AE570E08AE590E004C066EA7FEF66
:105A200086EA9FEF0E94C7044BC966EA7FEFF3CF77
:105A30006BEF72E085E00E944612E8C9512C412CC0
:105A4000E0E0F0E01ECB512C412CE0E0F0E0DBCBBD
:105A50002FE632E143E85AE3E8962CAF3DAF4EAF74
:105A60005FAFE89791E2C9169EE4D906E104F1041C
:105A700010F40C94CA220C9499228AE097EDA3EAC0
:105A8000BCE3E8968CAF9DAFAEAFBFAFE897EACF6F
:105A9000EF920F931F93CF93DF93E80134E047FD1C
:105AA00034E1042E000C550B57FF03C0519541956E
:105AB0005109E32E022F242FAE010E94F230CE01B5
:105AC000DF91CF911F910F91EF900895B0E0A0E08A
:105AD000ECE6FDE20C9405345C017B016115710577
