:100000000C943A020C9462020C9462020C94322317
:100010000C940D230C94E8220C9462020C9462025E
:100020000C9462020C9462020C9462020C946202C0
:100030000C9462020C9462020C9462020C946202B0
:100040000C9427210C9462020C9497210C9471213A
:100050000C9462020C9462020C9462020C94620290
:100060000C94C9210C946202084AD73B3BCE016E26
:1000700084BCBFFDC12F3D6C74319ABD56833DDAFF
:100080003D00C77F11BED9E4BB4C3E916BAAAABE0E
:10009000000000803F004E414E494E495459494EA0
:1000A00046CDCCCC3D0AD7233C17B7D13877CC2BE3
:1000B000329595E6241FB14F0A000020410000C888
:1000C0004200401C4620BCBE4CCA1B0E5AAEC59D09
:1000D0007400407A10F35A00A0724E18090010A55F
:1000E000D4E80000E87648170000E40B5402000052
:1000F000CA9A3B000000E1F50500008096980000D8
:100100000040420F000000A0860100000010270000
:10011000000000E803000000006400000000000A86
:1001200000000000000100000000002C76D888DCF0
:10013000674F0823DFC1DFAE59E1B1B796E5E3E4CD
:1001400053C63AE651997696E8E6C28426EB898C46
:100150009B62ED407C6FFCEFBC9C9F40F2BAA56FA8
:10016000A5F490055A2AF75C936B6CF9676DC11B77
:10017000FCE0E40D47FEF520E6B500D0ED902E033F
:1001800000943577050080841E080000204E0A0088
:100190000000C80C333333330F986E12831141EFD4
:1001A0008D2114893BE65516CFFEE6DB18D1844B32
:1001B000381BF77C1D901DA4BBE424203284725EA2
:1001C000228100C9F124ECA1E53D27454550524F5D
:1001D0004D00434D44004F56455252554E00494D37
:1001E000550054494C54004E4F4E45004641554C25
:1001F0005400544553545F53455249414C005445B3
:1002000053545F454E434F44455253005445535455
:100210005F4D4F544F525300544553545F494D5511
:100220000042414C0049444C450043414C00424F80
:100230004F54004641554C5400554E4B4E4F574E6F
:100240000041524D00310041524D003000544553A1
:10025000545F53455249414C00544553545F454EF9
:10026000434F4445525300544553545F4D4F544FF0
:10027000525300544553545F494D550042414C413F
:100280004E43450049444C4500534554004D494EAA
:1002900050574D004B310052410051470051410031
:1002A000564B5000484B4900484B50004B44004BC4
:1002B00049004B50004D494E50574D004B310052B4
:1002C0004100514700514100564B5000484B4900F6
:1002D000484B50004B44004B49004B50005452498E
:1002E0004D0052415750574D0052415750574D0005
:1002F000454E4352455345540053544F5000434CD0
:100300004541524641554C54004B46524553455485
:1003100000524553455400534156450053544154EF
:100320005553004D4F44450041524D00413A45520E
:100330005200413A4F4B00434D4400563A424F4F12
:10034000542C005B424F4F545D2000454550524FA6
:100350004D0064656661756C747300454550524F7D
:100360004D006C6F616465640042616C616E636531
:10037000426F74556C747261207374617274696E2B
:1003800067007570646174655F6661696C656400BF
:100390005741524E006C6F6F705F6A69747465727A
:1003A0000077726974655F6661696C6564005341CA
:1003B0005645004F4B0000000000240027002A0093
:1003C0000000000800020100000304070000000014
:1003D000000000002C002C002C002C002C002C0015
:1003E0002C002C002C002C002C002C002C00543A4B
:1003F0000000000000250028002B00000000002362
:100400000026002900040404040404040402020277
:100410000202020303030303030102040810204045
:10042000800102040810200102040810202C002C76
:10043000002C00453A002C00463A0020005B45564F
:10044000454E545D20002C002C002C002C002C006C
:100450002C002C002C002C002C002C002C00533ADB
:10046000002C00554E4B4E4F574E002C00563A0074
:10047000CB23E23311241FBECFEFD8E0DEBFCDBFC8
:1004800011E0A0E0B1E0EEE3FCE702C005900D92C0
:10049000A03FB107D9F724E0A0EFB1E001C01D9261
:1004A000A83DB207E1F712E0C9E3D2E004C021970A
:1004B000FE010E942C3AC833D107C9F70E946F256C
:1004C0000C94123E0C940000FC01AC01495C5F4F9F
:1004D00090E080E02191922728E0BC01880F991FCD
:1004E00077FF04C031E2832730E193272150A9F739
:1004F000E417F50779F708950895833081F028F41B
:10050000813099F08230A9F008958730A9F08830C1
:10051000C9F08430B1F4809180008F7D03C0809158
:1005200080008F7780938000089584B58F7784BD95
:10053000089584B58F7DFBCF8091B0008F77809335
:10054000B00008958091B0008F7DF9CF1F93CF93B5
:10055000DF93282F30E0F901E054FC4F8491F9013A
:10056000E75EFB4FD491F901EB5FFB4FC491CC23C5
:10057000A9F0162F81110E947D02EC2FF0E0EE0F02
:10058000FF1FEF50FC4FA591B4918FB7F894EC91F9
:10059000111108C0D095DE23DC938FBFDF91CF917E
:1005A0001F910895DE2BF8CFCF93DF9390E0FC01ED
:1005B000E75EFB4F24918B5F9B4FFC018491882366
:1005C000C9F090E0880F991FFC01EA54FC4FA591F7
:1005D000B491FC01EF50FC4FC591D49161110DC055
:1005E0009FB7F8948C91209582238C93888128233F
:1005F00028839FBFDF91CF910895623051F49FB758
:10060000F8943C91822F809583238C93E8812E2B44
:10061000EFCF8FB7F894EC912E2B2C938FBFEACFAE
:10062000CF93DF93A091B902B091BA02109709F469
:1006300043C01C968C911C97EDE6F0E0883050F09A
:10064000EBE6F0E08E3030F0ECE6F0E0863110F0D2
:10065000F0E0E0E05FB7F8941092BA021092B902AD
:10066000309749F11C968C911C97C8E6D0E08631F2
:1006700010F0D0E0C0E02881883008F46AC031E092
:100680008E3008F430E081E090E001C0880F3A95A8
:10069000EAF780958223888360811C964C914830CC
:1006A00008F059C081E090E001C0880F4A95EAF750
:1006B0008095862380835FBF60E08091CA040E949A
:1006C000D4028091CA0490E0FC01E75EFB4FE49104
:1006D000E093B802FC01EB5FFB4FE491F0E0EE0F1A
:1006E000FF1FE550FC4F859194919093CD0480932A
:1006F000CC048091CB0490E0FC01E75EFB4F249199
:100700002093B702FC01EB5FFB4FE491F0E0EE0FAA
:10071000FF1FEF50FC4FA591B491B093B602A09388
:10072000B502109719F0EC91E22BEC9361E0809107
:10073000CB040E94D4028091CA048830E0F08E304D
:1007400008F45EC0ECE6F0E08631B8F0DF91CF91BE
:1007500008958BEF9FCF242F30E04E3048F428507F
:10076000310981E090E001C0880F2A95EAF7A0CF17
:100770002E503109F6CFEDE6F0E08FEF8093B40212
:100780001092B3021092B2028091CE049091CF04E5
:1007900081152BE4920709F457C0A8F580389542DB
:1007A00009F440C05FB7F89440819091CA04983032
:1007B00008F052C081E001C0880F9A95EAF7842BB7
:1007C00080838091CA04E8E6F0E0863110F0F0E022
:1007D000E0E09081883008F44EC021E08E3008F4CB
:1007E00020E081E001C0880F2A95EAF7892B8083F9
:1007F0008EEB94E09093BA028093B9025FBFA6CFCC
:10080000EBE6F0E0BACF82312AE79207A9F0811532
:10081000964941F686E08093B1028DE98093B0025B
:1008200084E007C08AE18093B10287E28093B0023E
:100830008AE08093AF02B6CF88E08093B10280E86F
:100840008093B00285E0F5CF8DE08093B1028EE415
:100850008093B00286E0EDCF292F30E09E3040F447
:100860002850310981E001C0880F2A95EAF7A7CF07
:100870002E503109F7CF84E0B9CF1F93CF93DF9388
:10088000182FEB0161E00E94D402209739F460E058
:10089000812FDF91CF911F910C94A602CF3FD105FC
:1008A00011F461E0F5CFE12FF0E0E054FC4FE4916A
:1008B000E33031F140F4E130B1F0E230E1F0C03842
:1008C000D1057CF7E4CFE73029F1E83059F1E43085
:1008D000B1F780918000806280938000D0938B007C
:1008E000C0938A0004C084B5806884BDC7BDDF9111
:1008F000CF911F91089584B5806284BDC8BDF7CFA4
:1009000080918000806880938000D0938900C0939C
:100910008800EDCF8091B00080688093B000C093D4
:10092000B300E5CF8091B00080628093B000C093A7
:10093000B400DDCF70E060E089E00E943D0470E02B
:1009400060E08AE00E943D0460E087E00E94A60229
:1009500060E086E00E94A60260E088E00E94A602B5
:1009600060E08CE00C94A602EF92FF920F931F932D
:10097000CF93DF93E62EF42EE9012F3F310509F0E6
:10098000F4F421303F4F54F11C161D06DCF40091A5
:10099000BB0210E00C171D070CF48E0160E00E94F2
:1009A000A60261E08E2D0E94A602B8018F2DDF9174
:1009B000CF911F910F91FF90EF900C943D04CFEFDA
:1009C000D0E0E5CF209761F460E00E94A60260E0ED
:1009D0008E2D0E94A60270E060E0E8CFC1E0DFEF5C
:1009E0002091BB0230E0442755274C1B5D0B42177A
:1009F000530724F4CC27DD27C21BD30B61E00E94F0
:100A0000A60260E08E2D0E94A602662777276C1B47
:100A10007D0BCCCFCF93DF93EB019C0149E066E0E7
:100A200087E00E94B4049E014AE06CE088E0DF9118
:100A3000CF910C94B4043FB7F8948091AB0290919D
:100A4000AC02A091AD02B091AE0226B5A89B05C044
:100A50002F3F19F00196A11DB11D3FBFBA2FA92F3D
:100A6000982F8827BC01CD01620F711D811D911D3A
:100A700042E0660F771F881F991F4A95D1F70895A6
:100A80008F929F92AF92BF92CF92DF92EF92FF929E
:100A90006B017C010E941B054B015C01C114D10458
:100AA000E104F104B9F00E941B05681979098A096B
:100AB0009B09683E73408105910580F321E0C21ACD
:100AC000D108E108F10888EE880E83E0981EA11C89
:100AD000B11CE4CFFF90EF90DF90CF90BF90AF902C
:100AE0009F908F9008952FB7F8946091A70270910E
:100AF000A8028091A9029091AA022FBF089508959B
:100B00000895DC01ED91FC910190F081E02D0994B4
:100B1000EF92FF920F931F93CF93DF938C017B0192
:100B2000D0E0C0E0F701EC0FFD1F6491662361F097
:100B3000D801ED91FC910190F081E02DC80109955B
:100B4000892B11F02196EECFCE01DF91CF911F912D
:100B50000F91FF90EF900895AF92BF92CF92DF92E6
:100B6000EF92FF920F931F93CF93DF936C017B0162
:100B70008B01040F151FEB015E01AE18BF08C017F3
:100B8000D10759F06991D601ED91FC910190F08166
:100B9000E02DC6010995892B79F7C501DF91CF9129
:100BA0001F910F91FF90EF90DF90CF90BF90AF908B
:100BB0000895FC01538D448D252F30E0842F90E063
:100BC000821B930B541710F0CF9608950197089548
:100BD000FC01918D828D981761F0A28DAE0FBF2F11
:100BE000B11D5D968C91928D9F5F9F73928F90E067
:100BF00008958FEF9FEF0895FC01918D828D9817D6
:100C000031F0828DE80FF11D858D90E008958FEF12
:100C10009FEF0895FC01918D228D892F90E0805CDB
:100C20009F4F821B91098F739927089580EA93E063
:100C30000E940A0621E0892B09F420E0822F089502
:100C400080E090E0892B29F00E94160681110C9417
:100C500000000895FC01A48DA80FB92FB11DA35A5F
:100C6000BF4F2C91848D90E001968F739927848FCC
:100C7000A689B7892C93A089B1898C9183708064EF
:100C80008C93938D848D981306C00288F389E02D90
:100C900080818F7D80830895EF92FF920F931F9341
:100CA000CF93DF93EC0181E0888F9B8D8C8D98131F
:100CB0001AC0E889F989808185FF15C09FB7F8942B
:100CC000EE89FF896083E889F98980818370806477
:100CD00080839FBF81E090E0DF91CF911F910F91C2
:100CE000FF90EF900895F62E0B8D10E00F5F1F4FD1
:100CF0000F731127E02E8C8D8E110CC00FB607FCE0
:100D0000FACFE889F989808185FFF5CFCE010E946D
:100D10002A06F1CFEB8DEC0FFD2FF11DE35AFF4FAB
:100D2000F0829FB7F8940B8FEA89FB8980818062FB
:100D3000CFCFCF93DF93EC01888D8823B9F0AA89B8
:100D4000BB89E889F9898C9185FD03C0808186FD86
:100D50000DC00FB607FCF7CF8C9185FFF2CF8081D5
:100D600085FFEDCFCE010E942A06E9CFDF91CF911A
:100D7000089520915402260F3327331F2132310565
:100D8000ECF42091E202FC0190E080E0243069F074
:100D900082E00895A09154022191AC014C5C5D4F1A
:100DA000A40FB52FB11D2C930196861798F380914F
:100DB0005402680F6093540280E0089581E0089522
:100DC0001092E20281E08093E1021092BC0261E0A5
:100DD00082E10E94A60261E083E10E94A602E9EBA3
:100DE000F0E080818E7F808380818D7F808388E4A6
:100DF0008093B80085E48093BC000895CF93DF937F
:100E000091E0909333028823B9F0C091B800D0915B
:100E1000BA008091BC008A7B8093BC0060E082E1D4
:100E20000E94A60260E083E10E94A6020E94E00602
:100E3000D093BA00C093B800DF91CF9108958F92FC
:100E40009F92AF92BF92CF92DF92EF92FF920F9359
:100E50001F93CF93DF93D0910B03D13208F0D7C00B
:100E6000182FC0910A030E941B056B017C01809121
:100E7000E20281116BC082E08093E2021093E102F2
:100E80008FEF8093E0021092DF02D093DE02AAEE91
:100E9000B2E0EEEBF2E080E0D81391C01092BD0218
:100EA0008091BD02CC0FC82BC093BD028091BC02C3
:100EB000813009F088C01092BC020E941B056B01B2
:100EC0007C018091BD028093BB008091E4029091EF
:100ED000E502A091E602B091E702892B8A2B8B2BC9
:100EE000A1F00E941B050091E4021091E5022091FF
:100EF000E6023091E7026C197D098E099F090617F9
:100F000017072807390708F442C08091BC0083FD09
:100F1000D8CF85EC8093BC000E941B056B017C013F
:100F20008091E202823009F450C08091E0028F3F4C
:100F300009F46FC08091E002803209F46CC08091A6
:100F4000E002803309F469C084E026C08091E402A5
:100F50009091E502A091E602B091E702892B8A2BDD
:100F60008B2B09F484CF0E941B058090E4029090A3
:100F7000E502A090E602B090E7026C197D098E09A7
:100F80009F0986169706A806B90608F070CF8091CB
:100F9000E3020E94FE0685E01092E90210920B0324
:100FA0001092E802DF91CF911F910F91FF90EF9087
:100FB000DF90CF90BF90AF909F908F9008959D91BC
:100FC00091938F5F69CF85EEA5CF8091E4029091D8
:100FD000E502A091E602B091E702892B8A2B8B2BC8
:100FE00009F49ECF0E941B050091E4021091E502D6
:100FF0002091E6023091E7026C197D098E099F0964
:10100000061717072807390708F08ACFC0CF81E0F5
:10101000C3CF80E0C1CF82E0BFCF83E0BDCF0F93CD
:101020001F93CF93DF938A01E901209711F4CCE05D
:10103000D3E091E09093E80280930A031092E902D2
:1010400010920B03E881F9810190F081E02DCE012F
:101050000995E881F9810190F081E02DD8016C912A
:10106000CE01099581E00E941F0791E0811190E077
:10107000892FDF91CF911F910F9108950895E091ED
:101080009C0280919B02E81730F4F0E0E958FD4F94
:10109000808190E008958FEF9FEF089590919C02DA
:1010A00080919B022FEF3FEF981748F4E92FF0E073
:1010B000E958FD4F208130E09F5F90939C02C90169
:1010C000089580919B0290919C02891B990B089531
:1010D000CF92DF92EF92FF920F931F93CF93DF9304
:1010E0007C01CB018A012091E802222389F0EB01E7
:1010F0006B01C40ED51ECC15DD0569F06991D701D1
:10110000ED91FC910190F081E02DC7010995F3CF9D
:10111000642F0E94B906C801DF91CF911F910F91F2
:10112000FF90EF90DF90CF900895CF93DF931F92C1
:10113000CDB7DEB769832091E8022223F9F0209130
:101140000B03203258F021E030E0FC01338322838E
:1011500090E080E00F90DF91CF9108958091E902B7
:10116000E82FF0E0E651FD4F998190838F5F8093E7
:10117000E90280930B0381E090E0ECCF61E0CE01C7
:1011800001960E94B906F7CFE091B902F091BA0238
:101190003097C1F00288F389E02D309709F0099467
:1011A0002091B20230E0A9014F5F5F4F4F73552786
:1011B0009091B302941731F02D503E4FF901808386
:1011C0004093B2020895CF93DF93EC013091B402C3
:1011D0003F3F91F1AE85BF858C919091B8028923F4
:1011E00059F126B599E0931B8091AF02280F8091A9
:1011F000F201281B8091B002289F90011124232F17
:1012000033272695269592171306B0F48091F101A5
:101210002091F001915018F0822B220FFBCF809388
:10122000F1012093F0019093B4020E94C40881E080
:101230002A893B89232B09F080E0DF91CF91089523
:10124000EF92FF920F931F93CF93DF93E6B4F0904A
:10125000B802F8229091B4029F3F91F4F11009C0B6
:101260001092B40281E08093F0011092F101E092BB
:10127000F201DF91CF911F910F91FF90EF900895B0
:10128000C091AF02CE0D8091F201C81B8091B002D7
:10129000C89FE0011124CD2FDD27C695C69529E012
:1012A000291B022F10E00C171D0708F02C2F920F9E
:1012B0009093B4024091F0018091F101F11011C0BE
:1012C0002150342F330F2F3F19F0842B432FF8CFA9
:1012D0008093F1013093F001983048F20E94C408E5
:1012E00013C02150330B01C0440F2A95EAF74093F5
:1012F000F001842B8093F101983008F4B8CF0E945C
:10130000C40881E0F81621F00C171D0708F4A8CFD7
:101310008FEF8093B402ABCFCF92DF92EF92FF9228
:101320000F931F93CF93DF938C01D62E8091B5023C
:101330009091B602892B09F454C0D8011C969C9157
:10134000D4E0983048F081E09E3008F480E0D1E0AD
:1013500001C0DD0F8A95EAF7CFB6F894F6B490E0B5
:10136000E12CE394E091B502F091B6028091B702CE
:10137000BAE0EB1651F19923D9F09081892B808343
:10138000C091B102C63011F4E0FCC7E086B58F19F8
:101390008C17B0F48BB38D2379F08BB38D2B8BBB73
:1013A000D8011E96ED91FC9180810E942009EECF1C
:1013B000908180958923E3CFC8010E94E308E6CF9E
:1013C000FC0E9D2D9170D694CCCF9081892B80837B
:1013D000CFBE86B58F198C1778F4C8010E94E30838
:1013E000F8CF90E080E0DF91CF911F910F91FF90B7
:1013F000EF90DF90CF90089581E090E0F4CF2091BE
:10140000B3028091B202821769F030E0F901ED5029
:10141000FE4F80812F5F3F4F2F7333272093B302FE
:1014200090E008958FEF9FEF08959C018091B202A4
:101430009091B302891B990B805C9F4F60E470E030
:101440000E94043A811105C0C901F8940E94E30882
:10145000789490E00895FC01108211821282138228
:1014600080E090E0A8E0B2E484839583A683B7830C
:10147000108611861286138682E598EBAEE1BFE3F3
:1014800084879587A687B7878FE892ECA5E7BCE3AA
:10149000808B918BA28BB38B86EA9BE9A4ECBAE399
:1014A000848B958BA68BB78B8AE097EDA3EABCE380
:1014B000808F918FA28FB38F8FE692E1A3E8BAE37A
:1014C000848F958FA68FB78F86EA9BE9A4E4BBE350
:1014D00080A391A3A2A3B3A380E090E0A0E0BFE328
:1014E00084A395A3A6A3B7A38DEC9CECACE4BDE3C9
:1014F00080A791A7A2A7B3A714A615A616A617A6FC
:101500000895CF93DF93EC0128813981223432444E
:1015100061F42A81213049F4CE010E94640221E065
:101520004FA958AD4817590709F020E0822FDF91E5
:10153000CF910895609191037091920380918F03F0
:10154000909190030C940A05E8E1F3E08FEF9FEF90
:10155000DC01858B968BA78BB08F118E128E138E2C
:10156000148E158E168E178E10A212A211A2089537
:10157000CF92DF92EF92FF920F931F9380E3E1E40B
:10158000F1E0A0E0B1E001900D928A95E1F7809141
:10159000730390917403A0917503B09176038093C7
:1015A000300190933101A0933201B0933301E1E413
:1015B000F1E084A58093BB0280A591A5A2A5B3A567
:1015C00044A155A166A177A100A111A122A133A137
:1015D000C48CD58CE68CF78CC0928604D09287049C
:1015E000E0928804F092890400938A0410938B049B
:1015F00020938C0430938D0440938E0450938F0479
:101600006093900470939104809392049093930458
:10161000A0939404B09395041F910F91FF90EF90C5
:10162000DF90CF90089590E080E008952F923F9250
:101630004F925F926F927F928F929F92AF92BF92E2
:10164000CF92DF92EF92FF920F931F93CF93DF938E
:10165000CDB7DEB72F970FB6F894DEBF0FBECDBF64
:101660008C836F83498339872887580147010E94FB
:1016700073056B017C018114910421F48CE0882EA8
:1016800083E0982E2C81220F2E833981832F90E0C6
:10169000432F41954D83132F312C212C1F869B8383
:1016A0008A8301E0C501B0E0A0E08A879B87AC8710
:1016B000BD87AA81BB812A163B060CF011C100939D
:1016C000E802BC81B0930A031092E90210920B0366
:1016D000D401ED91FC910190F081E02D6F81C40166
:1016E000099581E00E941F070E941B052B013C0108
:1016F0008091E20281116DC01E87113210F0B0E2BC
:10170000BE870093E2020093E1022FEF2093E002F4
:101710001092DF028E8581508093DE020093BD021D
:101720008091BD023E81832B8093BD028091BC02DB
:10173000813009F098C01092BC020E941B052B0159
:101740003C018091BD028093BB008091E4029091A6
:10175000E502A091E602B091E702892B8A2B8B2B40
:10176000A1F00E941B052091E4023091E502409116
:10177000E6025091E7026419750986099709261750
:1017800037074807590708F445C08091BC0083FD1E
:10179000D8CF45EC4093BC000E941B052B013C01B7
:1017A0008091E202813009F462C08091DF029E855F
:1017B000891718F4A091DF02AE87AEEBB2E0E7E73D
:1017C000F2E080E02E85821751F19D9191938F5F19
:1017D000F9CF8091E4029091E502A091E602B091E8
:1017E000E702892B8A2B8B2B09F482CF0E941B05E1
:1017F0002091E4023091E5024091E6025091E70227
:101800006419750986099709261737074807590784
:1018100008F06ECF8091E3020E94FE061E861092B1
:101820009C023E8530939B02D401ED91FC91008493
:10183000F185E02DC4010995892B09F44AC0A11452
:10184000B104B9F5D401ED91FC910284F385E02D4A
:10185000C4010995E885F985BF85EB0FF11D8083EB
:10186000BF5FBF87E1CF55EE5093BC0095CF80910D
:10187000E4029091E502A091E602B091E702892B83
:101880008A2B8B2B09F48CCF0E941B052091E4023C
:101890003091E5024091E6025091E7026419750922
:1018A00086099709261737074807590708F078CFA0
:1018B000B1CF0E9473056C197D098E099F092A8595
:1018C0003B854C855D85621773078407950708F48F
:1018D000B9CF4A815B81240E351E5D81150FE9CE9B
:1018E000A114B104B1F00E947305AB01BC014C1905
:1018F0005D096E097F09C501B0E0A0E048175907EE
:101900006A077B0730F08F859981891710F4AFEF54
:10191000AF878F852F960FB6F894DEBF0FBECDBF71
:10192000DF91CF911F910F91FF90EF90DF90CF90BB
:10193000BF90AF909F908F907F906F905F904F90EF
:101940003F902F9008952F923F924F925F926F9207
:101950007F928F929F92AF92BF92CF92DF92EF923F
:10196000FF920F931F93CF93DF934C015B016A01AA
:10197000390128011701C1E4D4E0E980FA8008EEBA
:1019800013E024E434E04EE06BE388810E94160B00
:101990008B819C81982789279827F40191838083E4
:1019A0008D819E81982789279827F50191838083CF
:1019B0008F819885982789279827F60191838083BE
:1019C0008B859C85982789279827F30191838083AD
:1019D0008D859E85982789279827F201918380839A
:1019E0008F859889982789279827F101918380838B
:1019F000DF91CF911F910F91FF90EF90DF90CF90EB
:101A0000BF90AF909F908F907F906F905F904F901E
:101A10003F902F9008957F928F929F92AF92BF92A6
:101A2000CF92DF92EF92FF920F931F93CF93DF93AA
:101A300000D0CDB7DEB7A82E962E742E822EB02EF3
:101A400008EE13E09E012E5F3F4F41E00E94160B0F
:101A50008823C1F1872D8819990BAC014F5F5F4F27
:101A600081E090E002C0880F991F8A94E2F7019705
:101A7000042E01C0880F0A94EAF72B2D01C0220F13
:101A80004A95EAF7B82EB0949A81B92282238B291D
:101A90008A8389839701AE014F5F5F4F692D8A2D3D
:101AA0000E940F080F900F90DF91CF911F910F911F
:101AB000FF90EF90DF90CF90BF90AF909F908F906E
:101AC0007F90089580E0EECFFB0101900020E9F7C0
:101AD0003197AF01461B570BDC01ED91FC91028061
:101AE000F381E02D09948F929F92AF92BF92EF9273
:101AF000FF920F931F93CF93DF93CDB7DEB7A197DC
:101B00000FB6F894DEBF0FBECDBF7C01FA01CB014A
:101B100019A2223008F42AE08E010F5D1F4F822E99
:101B2000912CB12CA12CBF01A50194010E94D339A5
:101B3000F901CA016A300CF5605DD8016E938D0120
:101B4000232B242B252B79F790E080E0109721F0B0
:101B5000BD01C7010E94640DA1960FB6F894DEBFC7
:101B60000FBECDBFDF91CF911F910F91FF90EF90EE
:101B7000BF90AF909F908F900895695CDECFCF9219
:101B8000DF92EF92FF920F931F93CF93DF9377FF34
:101B90001DC06A017B01EC016DE20E9481058C0190
:101BA00044275527BA014C195D096E097F092AE0BF
:101BB000CE010E94730D800F911FDF91CF911F9175
:101BC0000F91FF90EF90DF90CF9008952AE0DF9182
:101BD000CF911F910F91FF90EF90DF90CF900C94D9
:101BE000730D2F923F924F925F926F927F928F92DE
:101BF0009F92AF92BF92CF92DF92EF92FF920F939C
:101C00001F93CF93DF9300D000D0CDB7DEB71C0178
:101C10002A013B0109831A832B833C8363E374E02D
:101C20000E948805B301A201C1010E94BF0D61E3BA
:101C300074E0C1010E94880549815A816B817C81D1
:101C4000C1010E94BF0D6FE274E0C1010E948805CE
:101C5000B701A601C1010E94BF0D6DE274E0C10190
:101C60000E948805B501A401C1010E94BF0D6BED62
:101C700071E0C1010F900F900F900F90DF91CF9105
:101C80001F910F91FF90EF90DF90CF90BF90AF909A
:101C90009F908F907F906F905F904F903F902F908C
:101CA0000C94640D2F923F924F925F926F927F92AD
:101CB0008F929F92AF92BF92CF92DF92EF92FF925C
:101CC0001F93CF93DF93EC016A017B01722EAB016E
:101CD0009601CB01B6010E94F13B6EED71E08111DE
:101CE00026C046015701E894B7F82FEF3FEF4FE7C2
:101CF0005FE7C501B4010E94F13B81110CC02FEFD9
:101D00003FEF4FE75FE7C501B4010E94353862EE4F
:101D100071E0181664F02FEF3FEF4FE75FE4C70163
:101D2000B6010E94E03B1816B4F466EE71E0CE01F5
:101D3000DF91CF911F91FF90EF90DF90CF90BF90F8
:101D4000AF909F908F907F906F905F904F903F905B
:101D50002F900C94640D2FEF3FEF4FE75FECC7011E
:101D6000B6010E94353887FDE0CF20E030E0A901C0
:101D7000C701B6010E943538312C212C87FF09C0DC
:101D80006DE2CE010E9481051C01F7FAF094F7F88C
:101D9000F09410E060E070E080E09FE3711641F0A5
:101DA00020E030E040E251E40E94113B1F5FF6CF9B
:101DB000A70196010E94333A2B013C010E948A3B05
:101DC0004B015C012AE0BC01A401CE010E94730D0D
:101DD0007C01E20CF31C1123C1F1C501B4010E9486
:101DE0003A389B01AC01C301B2010E94323A4B0167
:101DF0005C016EE2CE010E948105E80EF91E1150D1
:101E000020F120E030E040E251E4C501B4010E943D
:101E10009B382B013C010E948A3B4B01B12CA12C29
:101E20002AE0B501A401CE010E94730DE80EF91E4F
:101E3000C501B4010E943A389B01AC01C301B20153
:101E40000E94323A4B015C01DACFC701DF91CF919A
:101E50001F91FF90EF90DF90CF90BF90AF909F9039
:101E60008F907F906F905F904F903F902F9008954C
:101E70000C94520ECF92DF92EF92FF920F931F932A
:101E8000CF93DF93EC016A017B016EE574E00E9461
:101E9000880501E411E0F80140815181628173817C
:101EA00024E030E0CE010E94380F6CE574E0CE01F2
:101EB0000E948805F801448155816681778124E07C
:101EC00030E0CE010E94380F6AE574E0CE010E9436
:101ED0008805F801408551856285738524E030E0EE
:101EE000CE010E94380F68E574E0CE010E9488059B
:101EF000F801448555856685778524E030E0CE017C
:101F00000E94380F66E574E0CE010E948805F80152
:101F1000408951896289738924E030E0CE010E94B2
:101F2000380F64E574E0CE010E948805F801448909
:101F300055896689778924E030E0CE010E94380F08
:101F400062E574E0CE010E948805F801408D518D54
:101F5000628D738D24E030E0CE010E94380F60E581
:101F600074E0CE010E948805F801448D558D668D80
:101F7000778D26E030E0CE010E94380F6EE474E0E9
:101F8000CE010E948805F80140A151A162A173A170
:101F900026E030E0CE010E94380F6CE474E0CE0100
:101FA0000E948805F80144A155A166A177A126E009
:101FB00030E0CE010E94380F6AE474E0CE010E9446
:101FC0008805F80140A551A562A573A524E030E07D
:101FD000CE010E94380F68E474E0CE010E948805AB
:101FE000F80144A550E070E060E02AE0CE010E94D4
:101FF000730D66E474E0CE010E94880524E0B70109
:10200000A601CE010E94520E6BED71E0CE01DF9170
:10201000CF911F910F91FF90EF90DF90CF900C9494
:10202000640DCF92DF92EF92FF92CF93DF93C09037
:102030007303D0907403E0907503F0907603CDE3C2
:10204000D4E0B701A601888199810E943A0FB701B7
:10205000A6018A819B81DF91CF91FF90EF90DF9065
:10206000CF900C943A0F2F923F924F925F926F92C3
:102070007F928F929F92AF92BF92CF92DF92EF9218
:10208000FF920F931F93CF93DF93CDB7DEB7609787
:102090000FB6F894DEBF0FBECDBF3C011A012B0175
:1020A00009831A832B833C838DA19EA1AFA1B8A580
:1020B0008D839E83AF83B88789A59AA5ABA5BCA560
:1020C00089879A87AB87BC878DA59EA5AFA5B8A940
:1020D0008D879E87AF87B88B09A91AA96EEE73E02A
:1020E000C3010E94880523E030E0B201A101C301D1
:1020F0000E94380F6CEE73E0C3010E94880523E054
:1021000030E049815A816B817C81C3010E94380F84
:102110006AEE73E0C3010E94880523E030E0B70156
:10212000A601C3010E94380F68EE73E0C3010E944C
:10213000880540917B0350917C0360917D037091F1
:102140007E0323E030E0C3010E94380F66EE73E0A7
:10215000C3010E94880540917F03509180036091E4
:1021600081037091820323E030E0C3010E94380FA5
:1021700064EE73E0C3010E9488054091830350918F
:102180008403609185037091860322E030E0C301EF
:102190000E94380F62EE73E0C3010E9488054091EF
:1021A0008703509188036091890370918A0322E02C
:1021B00030E0C3010E94380F60EE73E0C3010E945B
:1021C00088054091770350917803052E000C660B2B
:1021D000770BC3010E94BF0D6EED73E0C3010E9437
:1021E00088054091790350917A03052E000C660B07
:1021F000770BC3010E94BF0D6CED73E0C3010E9419
:1022000088052AE0B501A401C3010E94730D6AED9F
:1022100073E0C3010E9488052AE04D815E816F81D1
:102220007885C3010E94730D68ED73E0C3010E94BD
:1022300088052AE049855A856B857C85C3010E9403
:10224000730D66ED73E0C3010E9488052AE04D8599
:102250005E856F857889C3010E94730D64ED73E01C
:10226000C3010E948805A80170E060E02AE0C30174
:102270000E94730D6BED71E0C30160960FB6F89488
:10228000DEBF0FBECDBFDF91CF911F910F91FF90A9
:10229000EF90DF90CF90BF90AF909F908F907F9006
:1022A0006F905F904F903F902F900C94640D0F9320
:1022B0001F93CF93DF93EC01FB0144815581608133
:1022C0007181E881F9810280F381E02D09958C010B
:1022D0006BED71E0CE010E94640D800F911FDF91C4
:1022E000CF911F910F910895EF92FF920F931F933B
:1022F000CF93DF938C01C62FD42F79016DE674E064
:102300000E94880563E674E0C93040F4EC2FF0E0E9
:10231000EE0FFF1FED56FE4F60817181C8010E94D4
:1023200088056BE674E0C8010E9488054D2F50E0D7
:1023300070E060E0C8010E94BF0D61E674E0C80172
:102340000E948805B701C801DF91CF911F910F91BD
:10235000FF90EF900C945711EF92FF920F931F9301
:10236000CF93DF937C018B01CDE3D4E06DE374E088
:10237000888199810E948805B701888199810E948E
:1023800088056BE374E0888199810E948805B80113
:10239000888199810E94571168E374E08A819B814A
:1023A0000E948805B7018A819B810E94880566E3A7
:1023B00074E08A819B810E948805B8018A819B8193
:1023C000DF91CF911F910F91FF90EF900C945711D7
:1023D0000F931F93CF93DF93EC010E9488058C012C
:1023E0006BED71E0CE010E94640D800F911FDF91B3
:1023F000CF911F910F910895CF92DF92EF92FF92AC
:102400000F931F93CF93DF93EB017B0129E3E20E40
:10241000F11C8B016C01C61AD70AC601800F911FEF
:102420000E945C39F80181938F01EE15FF05A9F731
:10243000CE01DF91CF911F910F91FF90EF90DF9030
:10244000CF900895AF92BF92CF92DF92EF92FF921A
:102450000F931F93CF93DF93DC01CD90DC90119706
:10246000C114D10439F01496CD91DC918C01760120
:10247000209761F4DF91CF911F910F91FF90EF9022
:10248000DF90CF90BF90AF90089575015701BFEFD7
:10249000AB1ABB0AF7018081082E000C990B0E9431
:1024A0000438892B91F72197CC0DDD1D8881082EEA
:1024B000000C990B0E940438892B29F0CE15DF05FA
:1024C00010F02197F3CFAE014F5F5F4F4E195F09B8
:1024D000D80115965C934E931497CE14DF0420F424
:1024E000B701C6010E94E03DD801ED91FC91119722
:1024F00014968D919C91E80FF91F1082BBCFCF935A
:10250000DF93FC01C081D181209761F089918823FC
:1025100049F0082E000C990B0E94D83DFE0131971E
:102520008083F4CFDF91CF910895FC012481358120
:10253000FB014481558124173507E1F4FC018081BA
:102540009181FB01608171810097D1F06115710566
:10255000A1F4232BC1F0FC01808190E008C0232B63
:1025600091F0FB01808190E091958195910921E0A6
:10257000892B09F020E0822F08950E94F43DF7CFC7
:102580006115710561F721E0F6CF0F931F93CF938B
:10259000DF938C01EB01FC01808191810097E1F0D8
:1025A0006881798161157105A9F0428153812C817F
:1025B0003D814217530770F00E94FD3D8C819D8143
:1025C000F801958384831D821C82DF91CF911F9136
:1025D0000F9108950E94923C88819981F80191831E
:1025E00080838A819B81938382838C819D81958363
:1025F0008483198218821B821A82E5CFCF93DF93DE
:10260000EC0188819981009711F00E94923C198217
:1026100018821D821C821B821A82DF91CF9108953D
:10262000FC0180819181009711F00C94923C0895F7
:102630000F931F93CF93DF93EC01888199810097CB
:1026400059F02A813B812617370730F081E0DF916E
:10265000CF911F910F9108958B016F5F7F4F0E9463
:102660001B3D009759F0998388831B830A832C8133
:102670003D81232B59F7FC011082E8CF80E0E7CFA2
:10268000EF92FF920F931F93CF93DF936115710524
:1026900041F480E0DF91CF911F910F91FF90EF9077
:1026A000089541155105B1F07B01EC010C811D81AC
:1026B000040F151FB8010E941813882351F32881B5
:1026C00039818C819D81B701820F931F0E94FD3D4E
:1026D0001D830C8381E0DECFCF93DF93EC0141E0DB
:1026E00050E06AEE71E00E944013811103C0CE01F8
:1026F0000E94FE12CE01DF91CF910895EF92FF92DA
:102700000F931F93CF93DF93EC017B018A01BA01F2
:102710000E94181381110BC0CE010E94FE12CE013F
:10272000DF91CF911F910F91FF90EF9008951D833E
:102730000C83B701888199810E94FD3DF0CFFB0198
:1027400001900020E9F73197AF01461B570B0C941D
:102750007E13AF92BF92CF92DF92EF92FF920F93D0
:102760001F93CF93DF93EC015B016A01790124177A
:10277000350720F48D2D6901E42EF82E1982188278
:102780001B821A821D821C8250E040E06DED71E0D8
:10279000CE010E947E13D50114960D911C91C01696
:1027A000D106E8F4E016F10608F48701D501ED91B1
:1027B000FC911197E00FF11FF08010826D917C91D8
:1027C0006C0D7D1DCE0161157105A9F00E949F134E
:1027D000F50180819181080F191FD801FC92CE016B
:1027E000DF91CF911F910F91FF90EF90DF90CF90ED
:1027F000BF90AF9008950E94FE12EACFCF93DF936F
:10280000EC01FB018617970749F060817181611522
:10281000710541F0448155810E947E13CE01DF9104
:10282000CF9108950E94FE12F9CFFC01118210820F
:102830001382128215821482FB0101900020E9F7B5
:102840003197AF01461B570B0C947E13EF92FF920A
:102850000F931F93CF93DF93EC01198218821B8291
:102860001A821D821C826115710509F18B01CB0151
:102870000E943A347C01BC01CE010E9418138111E0
:1028800009C0CE01DF91CF911F910F91FF90EF9082
:102890000C94FE12FD82EC82B80188819981DF914F
:1028A000CF911F910F91FF90EF900C943334DF91F3
:1028B000CF911F910F91FF90EF900895CF93DF93E9
:1028C00000D000D000D0CDB7DEB7109240011092FA
:1028D0003401109235011092360110923701109296
:1028E00038011092390110923A0110923B01109276
:1028F00093031092900310928F0310929203109200
:1029000091030E949A0480911803883019F082E0A4
:10291000809318036BE472E0CE0101960E942614A6
:10292000BE016F5F7F4F87E492E00E94AC11CE0141
:1029300001960E94101326960FB6F894DEBF0FBEC4
:10294000CDBFDF91CF910895CF92DF92EF92FF92AA
:102950000F931F93CF93DF9300D000D000D0CDB75B
:10296000DEB7F894EDE9F2E06081718182819381B4
:1029700004811581268137817894600F711F821F31
:10298000931F22E030E040E050E00E94723969017C
:102990007A0100E011E081E080934001F80114AA7F
:1029A00015AA16AA17AA10AE11AE12AE13AECA011E
:1029B000B9010E943C38F80164AF75AF86AF97AF9C
:1029C000C0926F03D0927003E0927103F092720391
:1029D00083E08093180365E472E0CE0101960E94C3
:1029E0002614BE016F5F7F4F81E492E00E94AC111C
:1029F000CE0101960E94101326960FB6F894DEBF02
:102A00000FBECDBFDF91CF911F910F91FF90EF903F
:102A1000DF90CF9008950F931F93CF93DF9300D053
:102A200000D000D0CDB7DEB7E091190369E372E0C2
:102A3000E63038F4F0E0EE0FFF1FE957FE4F6081FB
:102A40007181CE0101960E942614009140011091DF
:102A500018039E012F5F3F4F402F612F80913D044F
:102A600090913E040E9474119E012F5F3F4F402FB2
:102A7000612F80913F04909140040E947411CE0117
:102A800001960E94101326960FB6F894DEBF0FBE73
:102A9000CDBFDF91CF911F910F910895EF92FF92DB
:102AA0000F931F93CF93DF93CDB7DEB72C970FB65D
:102AB000F894DEBF0FBECDBF182F7B0180931903A2
:102AC00088E0809318031092400110923401109214
:102AD0003501109236011092370110923801109290
:102AE000390110923A0110923B010E949A04E12FA1
:102AF000F0E0EE0FFF1FE957FE4F60817181CE01BC
:102B000001960E94261418861F821A8619861C8632
:102B10001B86BE016F5F7F4FCE0107960E94FE139A
:102B2000CE0107960E946C138C01F70144815581F8
:102B3000608171810E944013811103C0C8010E940D
:102B4000FE12B80183E392E00E94AC11CE01079619
:102B50000E941013CE0101960E9410132C960FB6FE
:102B6000F894DEBF0FBECDBFDF91CF911F910F91C3
:102B7000FF90EF90089585ED8093BC008091E40272
:102B80009091E502A091E602B091E7020796A11D9F
:102B9000B11D23E0B695A795979587952A95D1F70E
:102BA0002091BC0024FD03C01092E20208954091E0
:102BB000E4025091E5026091E6027091E702452B34
:102BC000462B472B69F30097A105B10541F02AE296
:102BD0002A95F1F700C00197A109B109E1CF8091D1
:102BE000E3020C94FE06CF92DF92EF92FF920F93D6
:102BF0001F93CF93DF9300D000D000D0CDB7DEB7C6
:102C00006C017B01FB0184819581892B81F100811D
:102C100011816CE270E0C8010E94E93D009739F132
:102C20009C01201B310B89016DED71E0C6010E94F2
:102C3000151417FF1FC0B701C6010E94FE136DEDEA
:102C400071E0C7010E949F13C6010E942212C601B3
:102C500026960FB6F894DEBF0FBECDBFDF91CF91A1
:102C60001F910F91FF90EF90DF90CF9008950FEF9D
:102C70001FEFDACF980150E040E0B701CE01019696
:102C80000E94A913BE016F5F7F4FC6010E94C5124B
:102C9000CE0101960E941013F70124813581A8010D
:102CA0004F5F5F4FB701CE0101960E94A913BE018D
:102CB0006F5F7F4FC7010E94C512CE0101960E942F
:102CC0001013C2CF0F931F93CF93DF9300D000D088
:102CD00000D0CDB7DEB78B01BC01CE0101960E94BA
:102CE000F3158D819E81892B01F189819A8100974D
:102CF000C1F00E940C34F801608371838283938356
:102D000011E0CE0101960E941013812F26960FB676
:102D1000F894DEBF0FBECDBFDF91CF911F910F9111
:102D2000089560E070E0CB01E6CF10E0EACFCF92EB
:102D3000DF92EF92FF920F931F93CF93DF93CDB764
:102D4000DEB7C857D1090FB6F894DEBF0FBECDBFAE
:102D50007C016CEE71E0CE0101960E9415144D814C
:102D60005E81F701848195818417950770F08081D9
:102D70009181009751F069817A816115710529F07F
:102D80000E94043E11E0892B09F010E0CE0101966B
:102D90000E941013112311F40C949920F70124813F
:102DA000358142E050E0B701CE0183599F4F0E9428
:102DB000A913CE0183599F4F0E942212BE0163596D
:102DC0007F4FCE018D589F4F0E94F315CE018D5835
:102DD0009F4F0E947F1268E273E0CE0101960E942D
:102DE0002614BE016F5F7F4FCE018D589F4F0E940A
:102DF0009512182FCE0101960E9410131123B9F1DC
:102E000019821A821B821C82BE016F5F7F4FCE0126
:102E100083599F4F0E946216182F882351F0898191
:102E20009A81AB81BC81892B8A2B8B2BE9F00E9484
:102E3000A414CE018D589F4F0E941013CE018359C8
:102E40009F4F0E941013812FC858DF4F0FB6F89480
:102E5000DEBF0FBECDBFDF91CF911F910F91FF90CD
:102E6000EF90DF90CF9008950E945E14E2CF63E26E
:102E700073E0CE0101960E942614BE016F5F7F4F62
:102E8000CE018D589F4F0E949512182FCE010196AA
:102E90000E941013112309F4A3C0BE0163597F4F90
:102EA000CE01C1960E94F315CE01C1960E947F12F9
:102EB00064E872E0CE0101960E942614BE016F5FA5
:102EC0007F4FCE01C1960E949512182FCE01019618
:102ED0000E941013112331F00E945E1482E080934F
:102EE000180316C06CE772E0CE0101960E9426140A
:102EF000BE016F5F7F4FCE01C1960E949512182FC1
:102F0000CE0101960E941013112341F00E94A414D7
:102F100011E0CE01C1960E9410138BCF63E772E0DF
:102F2000CE0101960E942614BE016F5F7F4FCE0135
:102F3000C1960E949512182FCE0101960E9410137F
:102F4000112321F00E945E1484E0C9CF67E672E08D
:102F5000CE0101960E942614BE016F5F7F4FCE0105
:102F6000C1960E949512182FCE0101960E9410134F
:102F7000112321F00E945E1485E0B1CF69E572E073
:102F8000CE0101960E942614BE016F5F7F4FCE01D5
:102F9000C1960E949512182FCE0101960E9410131F
:102FA000112321F00E945E1486E099CF6DE472E057
:102FB000CE0101960E942614BE016F5F7F4FCE01A5
:102FC000C1960E949512182FCE0101960E941013EF
:102FD000112321F00E945E1487E081CF10E099CF89
:102FE0006CE173E0CE0101960E942614BE016F5F72
:102FF0007F4FCE018D589F4F0E949512182FCE0102
:1030000001960E941013112331F00E940B150E94AB
:10301000111011E00ECF67E173E0CE0101960E941E
:103020002614BE016F5F7F4FCE018D589F4F0E94C7
:103030009512182FCE0101960E941013112371F0E2
:1030400081E080931A030E94730560931C037093C0
:103050001D0380931E0390931F03DBCF61E173E098
:10306000CE0101960E942614BE016F5F7F4FCE01F4
:103070008D589F4F0E949512182FCE0101960E94E5
:103080001013112389F0109234011092350110921F
:1030900036011092370110923801109239011092C6
:1030A0003A0110923B01B5CF69E073E0CE01019681
:1030B0000E942614BE016F5F7F4FCE018D589F4F37
:1030C0000E949512182FCE0101960E941013112311
:1030D00009F475C010929604109297041092980407
:1030E0001092990410929A0410929B0410929C04DE
:1030F00010929D0410927604109277041092780436
:103100001092790410927A0410927B0410927C043D
:1031100010927D0410927E0410927F04109280041D
:1031200010928104109282041092830410928404FD
:10313000109285041092AA041092AB041092AC0471
:103140001092AD041092A6041092A7041092A80445
:103150001092A9041092A2041092A3041092A40445
:103160001092A50410929E0410929F041092A00445
:103170001092A10480E090E0A0E8BFE38093AE0449
:103180009093AF04A093B004B093B1041092B20432
:103190001092B3041092B4041092B5041092B604C5
:1031A0001092B7041092B8041092B9048093BA0434
:1031B0009093BB04A093BC04B093BD042ACF6EEFE0
:1031C00072E0CE0101960E942614BE016F5F7F4F10
:1031D000CE018D589F4F0E949512182FCE01019657
:1031E0000E941013112351F0109219038091400195
:1031F00081110FCF82E0809318030BCF69EF72E04B
:10320000CE0101960E942614BE016F5F7F4FCE0152
:103210008D589F4F0E949512182FCE0101960E9443
:1032200010131123A9F0109293031092900310929F
:103230008F0310929203109291030E949A0480913E
:1032400040018111E6CE80911803883099F6E1CED5
:1032500060EF72E0CE0101960E942614BE016F5FFE
:103260007F4FCE018D589F4F0E949512182FCE018F
:1032700001960E9410131123D9F1F89410929D0227
:1032800010929E0210929F021092A0021092A10230
:103290001092A2021092A3021092A40278941092AB
:1032A0005F03109260031092610310926203109208
:1032B00063031092640310926503109266031092E8
:1032C0006703109268031092690310926A031092C8
:1032D0006B0310926C0310926D0310926E031092A8
:1032E0006F0310927003109271031092720391CECB
:1032F00069EE72E0CE0101960E942614BE016F5F56
:103300007F4FCE018D589F4F0E949512182FCE01EE
:1033100001960E941013112309F4B0C027961CAE29
:103320001DAE1EAE1FAE279721961CAE1DAE1EAE63
:103330001FAE2197BE016D5B7F4FCE0183599F4F1A
:103340000E946216811102C010E073CDBE01635C61
:103350007F4FCE0183599F4F0E946216182F8823FA
:1033600099F3809140018111EFCF8091180388304B
:1033700059F327968CAD9DADAEADBFAD27972FEF1E
:1033800030E08F3F9105A105B10509F044F49C019F
:1033900081309F4FAF4FBF4F14F421E03FEF309388
:1033A000900320938F0321968CAD9DADAEADBFAD44
:1033B00021978F3F9105A105B10511F00CF056C082
:1033C00081304FEF9407A407B4070CF452C09093D8
:1033D000920380939103232B09F04EC021E0892BA7
:1033E00009F420E02093930385E0809318030E9462
:1033F0009A0A6091910370919203CE01C7960E9440
:103400006A2360918F0370919003CE0101960E9410
:103410006A231AAA19AA1CAA1BAA1EAA1DAABE01BF
:103420006F5F7F4FCE01C1960E94FE13CE01C19601
:103430000E946C137C014BAD5CAD6FA978AD0E940E
:103440004013811103C0C7010E94FE12B70182EE32
:1034500092E00E94AC11CE01C1960E941013CE01E1
:1034600001960E941013CE01C79655CD8FEF90E0C4
:10347000AECF81E09FEFABCF212FB4CF6DED72E0E7
:10348000CE0101960E942614BE016F5F7F4FCE01D0
:103490008D589F4F0E949512182FCE0101960E94C1
:1034A0001013112309F443C019821A821B821C8253
:1034B000BE016F5F7F4FCE0183599F4F0E949623BD
:1034C000182F882309F4B5CCC980DA80EB80FC8002
:1034D00020E030E040E451ECC701B6010E943538ED
:1034E00087FD17C020E030E040E451E4C701B60199
:1034F0000E94E03B1816A4F0C0924101D092420114
:10350000E0924301F09244010E94B80A0E945723BE
:1035100090CCC12CD12C40E4E42E41ECF42EECCF25
:10352000C12CD12C30E4E32E31E4F32EE5CF6AED4B
:1035300072E0CE0189599F4F0E942614BE0169593D
:103540007F4FCE018D589F4F0E949512F12C00E0C5
:103550008111F3C567ED72E0CE018F599F4F0E9434
:103560002614BE016F597F4FCE018D589F4F0E9488
:103570009512F12C8111E0C564ED72E0CE01855AFF
:103580009F4F0E942614BE01655A7F4FCE018D5871
:103590009F4F0E949512FF24F3948111CDC560EDD9
:1035A00072E0CE018B5A9F4F0E942614BE016B5AC7
:1035B0007F4FCE018D589F4F0E949512FF24F394A8
:1035C00001E0EE24E3948111B9C56CEC72E0CE0108
:1035D000815B9F4F0E942614BE01615B7F4FCE012D
:1035E0008D589F4F0E9495128111B0C568EC72E012
:1035F000CE01875B9F4F0E942614BE01675B7F4F01
:10360000CE018D589F4F0E9495128111A7C565EC80
:1036100072E0CE018D5B9F4F0E942614BE016D5B50
:103620007F4FCE018D589F4F0E9495128111A0C5EA
:1036300062EC72E0CE01CD960E942614BE01635C5E
:103640007F4FCE018D589F4F0E94951211E081113E
:1036500040C06FEB72E0CE01C7960E942614BE01F7
:10366000695C7F4FCE018D589F4F0E94951211E0EB
:1036700081112BC06CEB72E0CE01C1960E94261422
:10368000BE016F5C7F4FCE018D589F4F0E949512F7
:1036900011E0811116C065EB72E0CE0101960E9427
:1036A0002614BE016F5F7F4FCE018D589F4F0E9441
:1036B000951211E0811101C010E0CE0101960E9427
:1036C0001013CE01C1960E941013CE01C7960E941E
:1036D0001013CE01CD960E941013CC24C394DD2488
:1036E000D394EE24E39401E0FF24F394CE018D5BA8
:1036F0009F4F0E941013CC2029F0CE01875B9F4F73
:103700000E941013DD2029F0CE01815B9F4F0E94A3
:103710001013EE2029F0CE018B5A9F4F0E941013F8
:10372000FF2029F0CE01855A9F4F0E9410130023DD
:1037300029F0CE018F599F4F0E941013CE01895955
:103740009F4F0E941013112309F4CFC219AA1AAA7D
:103750001BAA1CAABE016F5C7F4FCE0183599F4FED
:103760000E949623182F882309F463CB62EB72E042
:10377000CE0101960E942614BE016F5F7F4FCE01DD
:103780008D589F4F0E949512082FCE0101960E94DE
:103790001013002359F1C9A8DAA8EBA8FCA820E06F
:1037A00030E0A901C701B6010E94353887FD13C07A
:1037B00020E030E048E453E4C701B6010E94E03B5A
:1037C00018166CF0C0924501D0924601E092470174
:1037D000F092480199CEC12CD12C7601F3CFC12CA7
:1037E000D12C28E4E22E23E4F22EECCF6FEA72E033
:1037F000CE0101960E942614BE016F5F7F4FCE015D
:103800008D589F4F0E949512082FCE0101960E945D
:103810001013002359F1C9A8DAA8EBA8FCA820E0EE
:1038200030E0A901C701B6010E94353887FD13C0F9
:1038300020E030E048E452E4C701B6010E94E03BDA
:1038400018166CF0C0924901D0924A01E0924B01E7
:10385000F0924C0159CEC12CD12C7601F3CFC12C62
:10386000D12C98E4E92E92E4F92EECCF6CEA72E0C8
:10387000CE0101960E942614BE016F5F7F4FCE01DC
:103880008D589F4F0E949512082FCE0101960E94DD
:103890001013002359F1C9A8DAA8EBA8FCA820E06E
:1038A00030E0A901C701B6010E94353887FD13C079
:1038B00020E030E040EA51E4C701B6010E94E03B5D
:1038C00018166CF0C0924D01D0924E01E0924F015B
:1038D000F092500119CEC12CD12C7601F3CFC12C1E
:1038E000D12C80EAE82E81E4F82EECCF68EA72E071
:1038F000CE0101960E942614BE016F5F7F4FCE015C
:103900008D589F4F0E949512082FCE0101960E945C
:103910001013002379F1C9A8DAA8EBA8FCA820E0CD
:1039200030E040E85FEBC701B6010E94353887FD03
:1039300013C020E030E040E85FE3C701B6010E9419
:10394000E03B181684F0C0925101D0925201E092EF
:103950005301F0925401D8CDC12CD12C00E8E02EB7
:103960000FEBF02EF0CFC12CD12CB0E8EB2EBFE343
:10397000FB2EE9CF64EA72E0CE0101960E94261484
:10398000BE016F5F7F4FCE018D589F4F0E949512F1
:10399000082FCE0101960E941013002369F1C9A8D7
:1039A000DAA8EBA8FCA820E030E040E05FEBC7011C
:1039B000B6010E94353887FD13C020E030E040E0BA
:1039C0005FE3C701B6010E94E03B18167CF0C0928D
:1039D0005501D0925601E0925701F092580194CDD2
:1039E000C12CD12CE12CAFEBFA2EF1CFC12CD12C74
:1039F000E12CFFE3FF2EEBCF60EA72E0CE010196EF
:103A00000E942614BE016F5F7F4FCE018D589F4FDD
:103A10000E949512082FCE0101960E9410130023D8
:103A200079F1C9A8DAA8EBA8FCA820E030E040E8CA
:103A30005FEBC701B6010E94353887FD13C020E057
:103A400030E040E85FE3C701B6010E94E03B181692
:103A500084F0C0925901D0925A01E0925B01F09239
:103A60005C0152CDC12CD12CE0E8EE2EEFEBFE2E06
:103A7000F0CFC12CD12C70E8E72E7FE3F72EE9CFF1
:103A80006DE972E0CE0101960E942614BE016F5FBF
:103A90007F4FCE018D589F4F0E949512082FCE0167
:103AA00001960E941013002359F1C9A8DAA8EBA8C7
:103AB000FCA820E030E0A901C701B6010E9435381A
:103AC00087FD13C020E030E040E85FE3C701B601A6
:103AD0000E94E03B18166CF0C0925D01D0925E012E
:103AE000E0925F01F09260010FCDC12CD12C7601E4
:103AF000F3CFC12CD12C60E8E62E6FE3F62EECCF8D
:103B00006AE972E0CE0101960E942614BE016F5F41
:103B10007F4FCE018D589F4F0E949512082FCE01E6
:103B200001960E941013002359F1C9A8DAA8EBA846
:103B3000FCA820E030E0A901C701B6010E94353899
:103B400087FD13C020E030E040E85FE3C701B60125
:103B50000E94E03B18166CF0C0926101D0926201A5
:103B6000E0926301F0926401CFCCC12CD12C76019C
:103B7000F3CFC12CD12C50E8E52E5FE3F52EECCF2E
:103B800067E972E0CE0101960E942614BE016F5FC4
:103B90007F4FCE018D589F4F0E949512082FCE0166
:103BA00001960E941013002359F1C9A8DAA8EBA8C6
:103BB000FCA820E030E0A901C701B6010E94353819
:103BC00087FD13C020E030E040E251E4C701B601B8
:103BD0000E94E03B18166CF0C0926501D09266011D
:103BE000E0926701F09268018FCCC12CD12C760154
:103BF000F3CFC12CD12C40E2E42E41E4F42EECCFE3
:103C000064E972E0CE0101960E942614BE016F5F46
:103C10007F4FCE018D589F4F0E949512082FCE01E5
:103C200001960E941013002359F1C9A8DAA8EBA845
:103C3000FCA820E030E0A901C701B6010E94353898
:103C400087FD13C020E030E040E85FE3C701B60124
:103C50000E94E03B18166CF0C0926901D0926A0194
:103C6000E0926B01F0926C014FCCC12CD12C76010B
:103C7000F3CFC12CD12C30E8E32E3FE3F32EECCF71
:103C80006DE872E0CE0101960E942614BE016F5FBE
:103C90007F4FCE018D589F4F0E949512082FCE0165
:103CA00001960E941013002309F42ECCC9A8DAA8AB
:103CB000EBA8FCA820E030E0A901C701B6010E94F2
:103CC000353887FD2BC220E030E04FE753E4C701D1
:103CD000B6010E94E03B18160CF424C2C701B601DD
:103CE0000E948A3B60936D010FCC69E872E0CE01BF
:103CF00001960E942614BE016F5F7F4FCE018D5842
:103D00009F4F0E949512082FCE0101960E9410131A
:103D1000002309F48EC8CE0101967C016E0191E367
:103D2000C90ED11CB701CE0183599F4F0E94962323
:103D3000182F882309F47DC8E4E0EE0EF11CEC1482
:103D4000FD0481F7C980DA80EB80FC8020E030E060
:103D500040E451ECC701B6010E94353887FD5BC1D4
:103D600020E030E040E451E4C701B6010E94E03BAE
:103D700018160CF457C1C0924101D0924201E09252
:103D80004301F0924401CD80DE80EF80F88420E092
:103D900030E0A901C701B6010E94353887FD49C14D
:103DA00020E030E048E453E4C701B6010E94E03B64
:103DB00018160CF442C1C0924501D0924601E0921F
:103DC0004701F0924801C984DA84EB84FC8420E046
:103DD00030E0A901C701B6010E94353887FD34C122
:103DE00020E030E048E452E4C701B6010E94E03B25
:103DF00018160CF42DC1C0924901D0924A01E092EC
:103E00004B01F0924C01CD84DE84EF84F88820E0F1
:103E100030E0A901C701B6010E94353887FD1FC1F6
:103E200020E030E040EA51E4C701B6010E94E03BE7
:103E300018160CF418C1C0924D01D0924E01E092B8
:103E40004F01F0925001C988DA88EB88FC8820E0A5
:103E500030E040E85FEBC701B6010E94353887FDCE
:103E600009C120E030E040E85FE3C701B6010E94ED
:103E7000E03B18160CF405C1C0925101D0925201DA
:103E8000E0925301F0925401CD88DE88EF88F88CDF
:103E900020E030E040E05FEBC701B6010E9435381A
:103EA00087FDF6C020E030E040E05FE3C701B601E7
:103EB0000E94E03B18160CF4F1C0C0925501D0925C
:103EC0005601E0925701F0925801C98CDA8CEB8CC4
:103ED000FC8C20E030E040E85FEBC701B6010E94B7
:103EE000353887FDE1C020E030E040E85FE3C701FE
:103EF000B6010E94E03B18160CF4DDC0C0925901D7
:103F0000D0925A01E0925B01F0925C01CD8CDE8C84
:103F1000EF8CF8A020E030E0A901C701B6010E94B3
:103F2000353887FDCFC020E030E040E85FE3C701CF
:103F3000B6010E94E03B18160CF4C8C0C0925D01A7
:103F4000D0925E01E0925F01F0926001C9A0DAA018
:103F5000EBA0FCA020E030E0A901C701B6010E945F
:103F6000353887FDBAC020E030E040E85FE3C701A4
:103F7000B6010E94E03B18160CF4B3C0C092610178
:103F8000D0926201E0926301F0926401CDA0DEA0C4
:103F9000EFA0F8A420E030E0A901C701B6010E941B
:103FA000353887FDA5C020E030E040E251E4C7018C
:103FB000B6010E94E03B18160CF49EC0C092650149
:103FC000D0926601E0926701F0926801C9A4DAA478
:103FD000EBA4FCA420E030E0A901C701B6010E94D7
:103FE000353887FD90C020E030E040E85FE3C7014E
:103FF000B6010E94E03B18160CF489C0C09269011A
:10400000D0926A01E0926B01F0926C01CDA4DEA423
:10401000EFA4F8A84FCEC12CD12C20E4E22E21EC45
:10402000F22EA9CEC12CD12C90E4E92E91E4F92EE8
:10403000A2CEC12CD12C7601BECEC12CD12C88E4CD
:10404000E82E83E4F82EB7CEC12CD12C7601D3CE46
:10405000C12CD12C08E4E02E02E4F02ECCCEC12CF1
:10406000D12C7601E8CEC12CD12CB0EAEB2EB1E4F4
:10407000FB2EE1CEC12CD12CA0E8EA2EAFEBFA2E1C
:10408000FBCEC12CD12CF0E8EF2EFFE3FF2EF4CEB7
:10409000C12CD12CE12CEFEBFE2E0FCFC12CD12C5B
:1040A000E12C7FE3F72E09CFC12CD12C60E8E62E5E
:1040B0006FEBF62E23CFC12CD12C50E8E52E5FE319
:1040C000F52E1CCFC12CD12C760138CFC12CD12C90
:1040D00040E8E42E4FE3F42E31CFC12CD12C7601F1
:1040E0004DCFC12CD12C30E8E32E3FE3F32E46CF49
:1040F000C12CD12C760162CFC12CD12C20E2E22E32
:1041000021E4F22E5BCFC12CD12C760177CFC12CCC
:10411000D12C90E8E92E9FE3F92E70CFC12CD12C41
:104120007601DCCDC12CD12C8FE7E82E83E4F82E6C
:10413000D5CD10E00C94231701E0E12CD12CC12C3B
:1041400080E011E0882309F4D6CAD0CAFF24F39492
:1041500001E0EE24E394DD24D394F1CFFF24F39423
:1041600001E0EE24E394DD24D394CC24C394E8CF7F
:10417000FF24F39401E0EE24E394DD24D394CC24D3
:10418000C39481E0DECFAF92BF92CF92DF92EF92E5
:10419000FF920F931F93CF93DF9300D0CDB7DEB77D
:1041A0007C018B015A0184E0C82ED701ED91FC916E
:1041B0000084F185E02DC7010995892BD9F1D7013C
:1041C000ED91FC910284F385E02DC7010995F8017A
:1041D000248135818D3011F08A30F1F4232BB1F038
:1041E000C8010E949716D82E62E373E0811102C0C5
:1041F0006CE273E0C5010E94E811D11007C0C092C3
:104200001903B80187E393E00E94AC116DED71E0F2
:10421000C8010E949F13C9CF203A3105B8F789839E
:104220001A8241E050E0BE016F5F7F4FC8010E94DB
:104230004013BBCF0F900F90DF91CF911F910F9143
:10424000FF90EF90DF90CF90BF90AF9008951F92B6
:104250000F920FB60F9211242F933F938F939F933A
:10426000AF93BF938091A7029091A802A091A90259
:10427000B091AA023091A60223E0230F2D3758F502
:104280000196A11DB11D2093A6028093A7029093D1
:10429000A802A093A902B093AA028091AB029091C8
:1042A000AC02A091AD02B091AE020196A11DB11D6C
:1042B0008093AB029093AC02A093AD02B093AE0298
:1042C000BF91AF919F918F913F912F910F900FBE12
:1042D0000F901F90189526E8230F0296A11DB11D7F
:1042E000D2CF1F920F920FB60F9211242F933F93AC
:1042F0004F935F936F937F938F939F93AF93BF93EE
:10430000EF93FF9380EA93E00E942A06FF91EF91DA
:10431000BF91AF919F918F917F916F915F914F91DD
:104320003F912F910F900FBE0F901F9018951F92E5
:104330000F920FB60F9211242F938F939F93EF93A9
:10434000FF93E091B003F091B1038081E091B60357
:10435000F091B70382FD1BC090818091B9038F5FFC
:104360008F732091BA03821741F0E091B903F0E016
:10437000E056FC4F958F8093B903FF91EF919F9189
:104380008F912F910F900FBE0F901F9018958081E5
:10439000F4CF1F920F920FB60F9211242F933F93D9
:1043A0004F935F936F937F938F939F93AF93BF933D
:1043B000EF93FF938091B900887F803609F44AC05B
:1043C000F0F5883209F4A7C018F5803109F49BC0D4
:1043D000B8F4882309F4F9C0883009F494C0FF9137
:1043E000EF91BF91AF919F918F917F916F915F916D
:1043F0004F913F912F910F900FBE0F901F901895E6
:10440000883109F488C0803251F78093E00214C0EB
:10441000803409F49DC040F48033B9F38833F9F651
:104420008093E00285ECB0C0803509F485C0883502
:1044300009F496C0883499F60E94BB15D0CF88390C
:1044400009F48CC038F5883729F050F4883611F01B
:10445000803729F683E08093E2021092760257C0FB
:10446000883809F47BC0803919F0803809F0B7CF5B
:1044700080917602803208F071C0E091760281E08E
:104480008E0F809376028091BB00F0E0EA5AFD4FD8
:1044900080833DC0803B39F0E0F4803A09F479C074
:1044A000883A09F09CCF84E08093E2021092550292
:1044B00010925402E0919902F0919A02099580912C
:1044C000540281110FC081E0809354021092340293
:1044D00009C0803C09F4A6CF883C09F4A3CF883BEF
:1044E00009F07DCFE091550281E08E0F8093550257
:1044F000F0E0EC5CFD4F80818093BB009091550211
:104500008091540229C08091BD028093BB0085EC4C
:104510008093BC0064CF9091DF028091DE029817F7
:1045200058F5E091DF0281E08E0F8093DF02F0E02A
:10453000E254FD4F8081E9CFE091DF0281E08E0FF0
:104540008093DF028091BB00F0E0E254FD4F808356
:104550009091DF028091DE029817C8F285E8D8CFEB
:10456000E091DF0281E08E0F8093DF028091BB003B
:10457000F0E0E254FD4F80838091E10281115CCF35
:1045800081E08093BC0284EA8093BC001092E20236
:1045900026CF85EC8093BC001092E20280917602D7
:1045A000803230F4E0917602F0E0EA5AFD4F10825A
:1045B0006091760270E0E0919702F091980286E5B2
:1045C00092E00995109276020ACF1092E00234CF61
:1045D0001F920F920FB60F9211242F933F934F9378
:1045E0005F936F937F938F939F93AF93BF93EF935B
:1045F000FF9389B10E942009FF91EF91BF91AF9184
:104600009F918F917F916F915F914F913F912F91EA
:104610000F900FBE0F901F9018951F920F920FB61C
:104620000F9211242F933F934F935F936F937F9338
:104630008F939F93AF93BF93EF93FF9386B10E94A5
:104640002009FF91EF91BF91AF919F918F917F9141
:104650006F915F914F913F912F910F900FBE0F90EF
:104660001F9018951F920F920FB60F9211242F933F
:104670003F934F935F936F937F938F939F93AF93EA
:10468000BF93EF93FF9383B10E942009FF91EF91B5
:10469000BF91AF919F918F917F916F915F914F915A
:1046A0003F912F910F900FBE0F901F901895CF93B1
:1046B000DF93C8E1D3E081E08A830E9473056851EB
:1046C0007C4F8F4F9F4F6C837D838E839F83DF91C1
:1046D000CF9108950F931F93CF93DF93CDB7DEB79C
:1046E00062970FB6F894DEBF0FBECDBF8C01CB0131
:1046F000F8011182108213821282158214824AE01C
:10470000BE016F5F7F4F0E944334BE016F5F7F4FDA
:10471000C8010E949F1362960FB6F894DEBF0FBEC9
:10472000CDBFDF91CF911F910F9108950F931F93EC
:10473000CF93DF9300D000D000D0CDB7DEB78B0190
:10474000BC01CE0101960E94F3158D819E81892BBB
:1047500001F189819A810097C1F00E940834F80123
:10476000608371838283938311E0CE0101960E945E
:104770001013812F26960FB6F894DEBF0FBECDBF63
:10478000DF91CF911F910F91089560E070E0CB0110
:10479000E6CF10E0EACFCF93DF93C0EAD3E01B82ED
:1047A0001A8248EE53E060E070E04C835D836E83D4
:1047B0007F8389EA91E09983888385EC90E09D87E7
:1047C0008C8784EC90E09F878E8780EC90E0998BBB
:1047D000888B81EC90E09B8B8A8B82EC90E09D8BA8
:1047E0008C8B86EC90E09F8B8E8B198E1A8E1B8E95
:1047F0001C8EECE0F3E013821282448355836683BF
:1048000077838BEB91E0918380838EEB94E0DC01E6
:1048100013961C921E921297FC0144835583668363
:1048200077832DEC31E03183208321E1248720E15F
:104830002587138A128AE1E4F4E038E63083128295
:10484000118248EF5AE260E070E0418B528B638B3B
:10485000748B12A611A614A613A616A615A610AA46
:1048600017A612AA11AA14AA13AA15AA16AA17AA59
:1048700010AE11AE12AE13AE14AE10927E041092B2
:104880007F0410928004109281041092820410928E
:10489000830410928404109285044FE652E163E889
:1048A0007AE340938604509387046093880470935E
:1048B000890446EA5BE964E47BE340938A0450930D
:1048C0008B0460938C0470938D0440E050E060E0B2
:1048D0007FE340938E0450938F0460939004709311
:1048E00091044DEC5CEC6CE47DE3409392045093B6
:1048F000930460939404709395041092960410921C
:104900009704109298041092990410929A041092AD
:104910009B0410929C0410929D04EEE9F4E0DF01E8
:104920001D922A95E9F720E1E7E7F1E0AEEAB4E06D
:1049300001900D922A95E1F7EDE3F4E0D183C08375
:1049400093838283E8E1F3E0108211821282138262
:10495000148215821682178210861186128613869B
:104960008FEF8487158616861786108A118A128A19
:10497000138A148A8FEF9FEFDC01858B968BA78BB0
:10498000B08F118E128E138E148E158E168E178E7A
:1049900010A212A211A213A214A215A216A217A26B
:1049A00010A611A612A613A614A615A616A617A63B
:1049B00010AA11AA12AA13AA14AA15AA16AA17AA0B
:1049C00010AE11AE12AE13AE14AE15AE16AE1092FE
:1049D0005703109258031092590310925A031092E1
:1049E0005B0310925C0310925D0310925E031092C1
:1049F0005F031092600310926103109262031092A1
:104A00006303109264031092650310926603109280
:104A10006703109268031092690310926A03109260
:104A20006B0310926C0310926D0310926E03109240
:104A30006F03109270031092710310927203109220
:104A40007303109274031092750310927603109200
:104A500078031092770310927A03109279031092E0
:104A60007B0310927C0310927D0310927E031092C0
:104A70007F031092800310928103109282031092A0
:104A80008303109284031092850310928603109280
:104A90008703109288031092890310928A03109260
:104AA0008B0310928C0310928D0310928E03109240
:104AB000900310928F031092920310929103109220
:104AC00093036DED71E084E993E00E9415146DEDA0
:104AD00071E08AE993E0DF91CF910C941514CF93A4
:104AE000DF93CDB7DEB7C35AD1090FB6F894DEBF56
:104AF0000FBECDBF789484B5826084BD84B58160DB
:104B000084BD85B5826085BD85B5816085BD809198
:104B10006E00816080936E00109281008091810010
:104B20008260809381008091810081608093810008
:104B3000809180008160809380008091B1008460CA
:104B40008093B1008091B00081608093B00080912B
:104B50007A00846080937A0080917A0082608093EA
:104B60007A0080917A00816080937A0080917A0047
:104B7000806880937A001092C10062E08DE00E940C
:104B8000D40261E08BE00E94D40260E08BE00E94DE
:104B9000A602E091B003F091B10382E08083E0913E
:104BA000AC03F091AD031082E091AE03F091AF033E
:104BB00080E180831092B803E091B403F091B503D3
:104BC00086E08083E091B203F091B303808180613D
:104BD0008083E091B203F091B30380818860808389
:104BE000E091B203F091B303808180688083E0910B
:104BF000B203F091B30380818F7D80838091CE04D6
:104C00009091CF048038954279F080E895E29093B6
:104C1000CF048093CE048091B9029091BA028E5B4A
:104C2000944011F40E9410030E94100363E473E0A7
:104C300080913D0490913E040E94880569E673E0EE
:104C400080913D0490913E040E94E8116BE373E073
:104C500080913F04909140040E94880569E673E0CA
:104C600080913F04909140040E94E81161E088E047
:104C70000E94D40261E08CE00E94D40261E08AE0EC
:104C80000E94D40261E087E00E94D40261E086E0E5
:104C90000E94D40261E089E00E94D4020E949A043A
:104CA00062E085E00E94D40262E084E00E94D402C7
:104CB00089B18093A5028AE390E08C0F9D1F07962F
:104CC0000E942B0ACE0108960E942B0ABE01665C48
:104CD0007F4F90E080E00E94FC11BE016F5F7F4F2C
:104CE00089E390E00E94FC11CE01CA960E94810ADD
:104CF000182FCE0101960E94810A11110C944330A5
:104D000081110C9454308FEF809324031092200370
:104D100010922103109222031092230362E573E0A4
:104D2000CE0101960E942614BE016F5F7F4F8BE477
:104D300093E00E94AC11CE0101960E94101381E015
:104D40008093180310929C0210929B021092E90229
:104D500010920B030E94E0068FE795E090939A0271
:104D60008093990280E895E090939802809397024F
:104D7000E0904204F090430401E023E042E06BE65F
:104D8000809141040E940B0D80E090E0AAEFBBE30C
:104D900080935A0490935B04A0935C04B0935D04E9
:104DA000E0904204F090430400E022E044E06BE134
:104DB000809141040E940B0D80E090E0A0E8B8E3F0
:104DC0008093560490935704A0935804B0935904C9
:104DD000E0904204F090430422E044E06CE18091D2
:104DE00041040E940B0DA0904204B0904304D09067
:104DF0004104750108EE13E09E012F5F3F4F41E033
:104E00006BE68D2D0E94160B89818F7B8983E4963A
:104E10008FAFE4979501AE014D585F4F6BE68D2D36
:104E20000E940F0862E070E080E090E00E94400580
:104E3000109296041092970410929804109299047C
:104E400010929A0410929B0410929C0410929D045C
:104E500010927604109277041092780410927904DC
:104E600010927A0410927B0410927C0410927D04BC
:104E700010927E0410927F0410928004109281049C
:104E8000109282041092830410928404109285047C
:104E90001092AA041092AB041092AC041092AD04CC
:104EA0001092A6041092A7041092A8041092A904CC
:104EB0001092A2041092A3041092A4041092A504CC
:104EC00010929E0410929F041092A0041092A104CC
:104ED00080E090E0A0E8BFE38093AE049093AF043D
:104EE000A093B004B093B1041092B2041092B30432
:104EF0001092B4041092B5041092B6041092B70444
:104F00001092B8041092B9048093BA049093BB0431
:104F1000A093BC04B093BD040E94B80AA0E9CA2EB5
:104F2000DD24D394812C912C5401F4E7EF2EF4E08E
:104F3000FF2E02E714E020E734E04EE654E06CE692
:104F400074E08AE694E00E94A30C60916E04709174
:104F50006F04072E000C880B990B0E943C382B0124
:104F60003C0160916C0470916D04072E000C880B5D
:104F7000990B0E943C38A30192010E94B23A9058CA
:104F800020EE3EE245E652E40E949B389B01AC01D4
:104F9000C501B4010E94333A4B015C0165E070E049
:104FA00080E090E00E944005F1E0CF1AD10809F0BE
:104FB000BCCF20E030E048EC53E4C501B4010E94CE
:104FC000113B609373037093740380937503909304
:104FD0007603609330017093310180933201909396
:104FE000330182E0809318030E941B056093250320
:104FF0007093260380932703909328030E947305E0
:1050000060933B0370933C0380933D0390933E0376
:105010000E94730560933F037093400380934103A4
:10502000909342030E94730560934303709344037B
:1050300080934503909346030E9473056093470352
:10504000709348038093490390934A030E94730529
:1050500060934B0370934C0380934D0390934E03E6
:105060000E94730560934F03709350038093510324
:10507000909352030E940B150E941110EAE32E2E0A
:10508000312C2C0E3D1E27E0220E311C89B190914F
:10509000A50298278093A50295FF16C085FF14C02E
:1050A0004091A1025091A2026091A3027091A402CA
:1050B0004F5F5F4F6F4F7F4F4093A1025093A2020B
:1050C0006093A3027093A40294FF15C084FF13C0E1
:1050D00080919D0290919E02A0919F02B091A002AA
:1050E0000196A11DB11D80939D0290939E02A093F5
:1050F0009F02B093A0020E947305EC966CAF7DAF47
:105100008EAF9FAFEC970E941B054B015C01EDEC4D
:10511000F3E08491E6E2F4E01491E2E1F4E004913A
:105120000111EEC780911B0381110BC081E08093B8
:105130001B0380914001882311F40C9494300E9449
:105140005E144EEB54E064E973E0CA010E94C32090
:1051500040EA53E06AE973E0CA010E94C3208091EB
:10516000250390912603A0912703B0912803750190
:105170006401C81AD90AEA0AFB0AF8E8CF16F3E173
:10518000DF06E104F10408F4FCC380922503909249
:105190002603A0922703B0922803C0922903D0923D
:1051A0002A03E0922B03F0922C0380912D0390911F
:1051B0002E03A0912F03B0913003C816D906EA063A
:1051C000FB0640F4C0922D03D0922E03E0922F03F1
:1051D000F09230038091310390913203A091330318
:1051E000B09134038C159D05AE05BF0540F4C09207
:1051F0003103D0923203E0923303F0923403809172
:10520000350390913603A0913703B09138038C0D8C
:105210009D1DAE1DBF1D8093350390933603A09353
:105220003703B09338038091390390913A038F3F4D
:10523000980729F0019690933A0380933903C701A8
:10524000B6010E943A382DEB37E346E855E30E9459
:105250009B38E8966CAF7DAF8EAF9FAFE8972FE697
:1052600032E143E85AE30E94353887FF02C00C94CC
:10527000C2332AE037ED43EA5CE3E8966CAD7DADDE
:105280008EAD9FADE8970E94E03B181614F40C9485
:10529000D73331E2C3163EE4D306E104F10470F1E2
:1052A0000E94730500915B0310915C0320915D03E4
:1052B00030915E03601B710B820B930B683E734051
:1052C00081059105D8F00E94730560935B0370938C
:1052D0005C0380935D0390935E0365E973E0CE0108
:1052E00001960E942614BE016F5F7F4F80E993E014
:1052F0000E94AC11CE0101960E94101320E030E014
:10530000A901E8966CAD7DAD8EAD9FADE8970E948A
:10531000353818160CF013C764E7E62E64E0F62E55
:1053200002E714E020E734E04EE654E06CE674E077
:105330008AE694E00E94A30C60916E0470916F0461
:10534000072E000C880B990B0E943C38CC57DF4F7E
:10535000688379838A839B83C458D04060916C04AE
:1053600070916D04072E000C880B990B0E943C383D
:10537000CC57DF4F288139814A815B81C458D040A6
:105380000E94B23A6B017C016091700470917104CB
:10539000072E000C880B990B0E943C38905820E097
:1053A00030E043E053E40E94113BC856DF4F68836E
:1053B00079838A839B83C859D0406091720470912D
:1053C0007304072E000C880B990B0E943C389058F0
:1053D00020E030E043E053E40E94113BC056DF4F31
:1053E000688379838A839B83C05AD0406091740418
:1053F00070917504072E000C880B990B0E943C38A5
:10540000905820E030E043E053E40E94113B609369
:105410007E0470937F048093800490938104809134
:10542000960490919704A0919804B0919904C45760
:10543000DF4F88839983AA83BB83CC58D0409C01DB
:10544000AD01C856DF4F688179818A819B81C85937
:10545000D0400E94323AE8962CAD3DAD4EAD5FADE6
:10546000E8970E949B382091760430917704409110
:105470007804509179040E94333AC456DF4F688310
:1054800079838A839B83CC59D040C701B601905859
:1054900020EE3EE245E652E40E949B38C456DF4FC0
:1054A000288139814A815B81CC59D0400E94323AAF
:1054B000C058DF4F688379838A839B83C058D0406C
:1054C00060939A0470939B0480939C0490939D0432
:1054D0004090B2045090B3046090B4047090B5044E
:1054E0002091B6043091B7044091B8045091B904AA
:1054F000C857DF4F288339834A835B83C858D0401D
:10550000A3019201609186047091870480918804C0
:10551000909189040E94323AC857DF4F288139811F
:105520004A815B81C858D0400E94323A9B01AC014D
:1055300020939E0430939F044093A0045093A104B1
:105540008091BA049091BB04A091BC04B091BD04B9
:10555000C057DF4F88839983AA83BB83C059D0404B
:105560004C015D01B7FAB094B7F8B0948092A204F0
:105570009092A304A092A404B092A5048092A604E1
:105580009092A704A092A804B092A90480918A04E2
:1055900090918B04A0918C04B0918D04CC56DF4F78
:1055A00088839983AA83BB83C459D0408093AA047B
:1055B0009093AB04A093AC04B093AD04E8966CADAB
:1055C0007DAD8EAD9FADE8970E949B382091AE04D3
:1055D0003091AF044091B0045091B1040E94333A2D
:1055E0006B017C01A5019401E8966CAD7DAD8EAD9B
:1055F0009FADE8970E949B384B015C01AC019B0179
:10560000C301B2010E94333AC458DF4F68837983E3
:105610008A839B83CC57D040A5019401C857DF4FA4
:10562000688179818A819B81C858D0400E94333A31
:10563000C857DF4F688379838A839B83C858D040DB
:1056400020918E0430918F044091900450919104E8
:10565000C701B6010E94333A2B013C01AC019B010A
:10566000C701B6010E94113B4B015C01A3019201ED
:10567000C857DF4F688179818A819B81C858D040A3
:105680000E94113B2B013C01A5019401C701B60109
:105690000E949B389B01AC01C701B6010E94323ABF
:1056A0006093AE047093AF048093B0049093B10400
:1056B000A5019401C458DF4F688179818A819B815B
:1056C000CC57D0400E949B389B01AC01C458DF4F9F
:1056D000688179818A819B81CC57D0400E94323A7F
:1056E0006093B2047093B3048093B4049093B504B0
:1056F000A3019201C701B6010E949B389B01AC0136
:10570000C857DF4F688179818A819B81C858D04012
:105710000E94323A6093B6047093B7048093B80441
:105720009093B904CC56DF4F288139814A815B813F
:10573000C459D040E8966CAD7DAD8EAD9FADE89775
:105740000E949B38C057DF4F288139814A815B8195
:10575000C059D0400E94333A6B017C01A3019201F1
:10576000C458DF4F688179818A819B81CC57D040B2
:105770000E949B389B01AC01C701B6010E94323ADE
:105780006093BA047093BB048093BC049093BD04EF
:10579000A3019201C058DF4F688179818A819B8182
:1057A000C058D0400E949B38C457DF4F28813981B0
:1057B0004A815B81CC58D0400E94333A9B01AC01B6
:1057C000209396043093970440939804509399043F
:1057D000C856DF4F688179818A819B81C859D04042
:1057E0000E94323A60937A0470937B0480937C0425
:1057F00090937D04A5019401C058DF4F68817981A1
:105800008A819B81C058D0400E949B38C456DF4F8C
:10581000288139814A815B81CC59D0400E94333A3A
:10582000609376047093770480937804909379045E
:1058300060916A0470916B04072E000C880B990B21
:105840000E943C38CC57DF4F288139814A815B81E7
:10585000C458D0400E94B23A6B017C0180909204FF
:1058600090909304A0909404B0909504C056DF4F9C
:10587000288139814A815B81C05AD040E8966CAD5D
:105880007DAD8EAD9FADE8970E949B38209182043C
:105890003091830440918404509185040E94333AEE
:1058A0002B013C01A501940160E070E080E89FE3DA
:1058B0000E94323A9B01AC01C301B2010E949B38A5
:1058C0002B013C01C701B601905820EE3EE245E6AF
:1058D00052E40E949B38A50194010E949B389B01D1
:1058E000AC01C301B2010E94333A60938204709309
:1058F00083048093840490938504809118038830F6
:1059000009F44AC0F89460919D0270919E028091C2
:105910009F029091A0020091A1021091A2022091F9
:10592000A3023091A4027894600F711F821F931F0D
:1059300022E030E040E050E00E94723969017A01D3
:1059400080906F0390907003A0907103B0907203E9
:10595000C0926F03D0927003E0927103F0927203D1
:1059600080911803833021F4809140018111F8C3A4
:10597000E7E7F3E088E1DF011D928A95E9F70E94ED
:105980009A0480911803853039F480919303882319
:1059900009F4B3C60E949A0A80911A03882309F475
:1059A000ACC080911C0390911D03A0911E03B09187
:1059B0001F03EC962CAD3DAD4EAD5FADEC97281BB3
:1059C000390B4A0B5B0BDA01C901B7FD96C0C10167
:1059D0000E942B0A82E492E49BAF8AAF81E08CAFF5
:1059E0008091200390912103A0912203B091230381
:1059F0000196A11DB11D21968CAF9DAFAEAFBFAF7B
:105A0000219780E3E1E4F1E0DE01AF5BBF4F01905D
:105A10000D928A95E1F7CE01CA960E946402E39640
:105A20009FAF8EAFE397809124039924939409E369
:105A300010E0882319F0912C10E000E0AE01465CE4
:105A40005F4F6A01F12CE12CD6018D906D01580158
:105A5000AE0CBF1CC5010E945C39881621F0682D70
:105A6000C5010E946439BFEFEB1AFB0AE9E3EE16A9
:105A7000F10451F7CE0108960E942B0A90E080E0D5
:105A8000992011F089E390E0BE016F5F7F4F0E9483
:105A9000FC11CE0101960E94810A882309F45BC69D
:105AA0008C819D81AE81BF8121964CAD5DAD6EAD87
:105AB0007FAD219784179507A607B70709F04BC656
:105AC0008093200390932103A0932203B093230398
:105AD0009092240310921A0363EB73E0CE010196B7
