:100000000C94EE010C9416020C9416020C944F1DE5
:100010000C942A1D0C94051D0C9416020C941602C7
:100020000C9416020C9416020C9416020C941602F0
:100030000C9416020C9416020C9416020C941602E0
:100040000C94441B0C9416020C94B41B0C948E1B41
:100050000C9416020C9416020C9416020C941602C0
:100060000C94E61B0C941602084AD73B3BCE016E5B
:1000700084BCBFFDC12F3D6C74319ABD56833DDAFF
:100080003D00C77F11BED9E4BB4C3E916BAAAABE0E
:10009000000000803F004E414E494E495459494EA0
:1000A00046CDCCCC3D0AD7233C17B7D13877CC2BE3
:1000B000329595E6241FB14F0A000020410000C888
:1000C0004200401C4620BCBE4CCA1B0E5AAEC59D09
:1000D0007400407A10F35A00A0724E18090010A55F
:1000E000D4E80000E87648170000E40B5402000052
:1000F000CA9A3B000000E1F50500008096980000D8
:100100000040420F000000A0860100000010270000
:10011000000000E803000000006400000000000A86
:1001200000000000000100000000002C76D888DCF0
:10013000674F0823DFC1DFAE59E1B1B796E5E3E4CD
:1001400053C63AE651997696E8E6C28426EB898C46
:100150009B62ED407C6FFCEFBC9C9F40F2BAA56FA8
:10016000A5F490055A2AF75C936B6CF9676DC11B77
:10017000FCE0E40D47FEF520E6B500D0ED902E033F
:1001800000943577050080841E080000204E0A0088
:100190000000C80C333333330F986E12831141EFD4
:1001A0008D2114893BE65516CFFEE6DB18D1844B32
:1001B000381BF77C1D901DA4BBE424203284725EA2
:1001C000228100C9F124ECA1E53D27454550524F5D
:1001D0004D00434D44004F56455252554E00494D37
:1001E000550054494C54004E4F4E45004641554C25
:1001F0005400544553545F53455249414C005445B3
:1002000053545F454E434F44455253005445535455
:100210005F4D4F544F525300544553545F494D5511
:100220000042414C0049444C450043414C00424F80
:100230004F54002C00463A4641554C542C002C009B
:100240005B4556454E545D204641554C5420003187
:100250000041524D00300041524D0052415750571D
:100260004D00413A45525200413A4F4B00434D44F4
:1002700000563A424F4F542C005B424F4F545D2082
:100280000064656661756C747300454550524F4D4E
:10029000006C6F6164656400454550524F4D0042EB
:1002A000616C616E6365426F74556C74726120732A
:1002B00074617274696E67002C00463A4641554C71
:1002C000542C002C005B4556454E545D204641554C
:1002D0004C542000554E4B4E4F574E007570646184
:1002E00074655F6661696C6564006C6F6F705F6AEE
:1002F0006974746572005741524E00777269746573
:100300005F6661696C6564004F4B00534156450060
:100310002C002C002C00453A00000000002400278F
:10032000002A00000000080002010000030407008A
:10033000000000000000002C002C002C002C002CE1
:10034000002C002C002C002C002C002C002C002C4D
:1003500000543A0000000000250028002B00000097
:1003600000002300260029000404040404040404FB
:100370000202020202020303030303030102040850
:1003800010204080010204081020010204081020FF
:100390002C00463A0020005B4556454E545D200037
:1003A0002C00463A0020005B4556454E545D200027
:1003B0002C002C002C002C002C002C002C002C00DD
:1003C0002C002C002C002C00533A002C00554E4BD6
:1003D0004E4F574E002C00563A00CA1D11241FBE26
:1003E000CFEFD8E0DEBFCDBF14E0A0E0B1E0E8EC95
:1003F000FBE602C005900D92A434B107D9F726E0C0
:10040000A4E4B4E001C01D92A03AB207E1F711E004
:10041000CEEED1E004C02197FE010E94EA33CD3E2A
:10042000D107C9F70E94A41E0C94E2350C94000079
:10043000FC01AC01495C5F4F90E080E02191922784
:1004400028E0BC01880F991F77FF04C031E28327A1
:1004500030E193272150A9F7E417F50779F70895BC
:100460000895833081F028F4813099F08230A9F02A
:1004700008958730A9F08830C9F08430B1F48091B4
:1004800080008F7D03C0809180008F7780938000F3
:10049000089584B58F7784BD089584B58F7DFBCF93
:1004A0008091B0008F778093B00008958091B00064
:1004B0008F7DF9CF1F93CF93DF93282F30E0F90181
:1004C000ED5DFC4F8491F901E458FC4FD491F901A2
:1004D000E859FC4FC491CC23A9F0162F81110E943A
:1004E0003102EC2FF0E0EE0FFF1FEC5AFC4FA5910C
:1004F000B4918FB7F894EC91111108C0D095DE2318
:10050000DC938FBFDF91CF911F910895DE2BF8CF41
:10051000CF93DF9390E0FC01E458FC4F249188597D
:100520009C4FFC0184918823C9F090E0880F991FAB
:10053000FC01E75EFC4FA591B491FC01EC5AFC4F25
:10054000C591D49161110DC09FB7F8948C912095FD
:1005500082238C938881282328839FBFDF91CF91AA
:100560000895623051F49FB7F8943C91822F8095A2
:1005700083238C93E8812E2BEFCF8FB7F894EC91E7
:100580002E2B2C938FBFEACFCF93DF93A0910D0535
:10059000B0910E05109709F443C01C968C911C97DE
:1005A000EDE6F0E0883050F0EBE6F0E08E3030F031
:1005B000ECE6F0E0863110F0F0E0E0E05FB7F894B0
:1005C00010920E0510920D05309749F11C968C91F2
:1005D0001C97C8E6D0E0863110F0D0E0C0E028815A
:1005E000883008F46AC031E08E3008F430E081E0F1
:1005F00090E001C0880F3A95EAF7809582238883BE
:1006000060811C964C91483008F059C081E090E020
:1006100001C0880F4A95EAF78095862380835FBFE3
:1006200060E0809196060E9488028091960690E094
:10063000FC01E458FC4FE491E0930C05FC01E859FF
:10064000FC4FE491F0E0EE0FFF1FE25AFC4F859162
:10065000949190939906809398068091970690E0E4
:10066000FC01E458FC4F249120930B05FC01E85950
:10067000FC4FE491F0E0EE0FFF1FEC5AFC4FA59108
:10068000B491B0930A05A0930905109719F0EC9165
:10069000E22BEC9361E0809197060E9488028091A2
:1006A00096068830E0F08E3008F45EC0ECE6F0E0AC
:1006B0008631B8F0DF91CF9108958BEF9FCF242F33
:1006C00030E04E3048F42850310981E090E001C01C
:1006D000880F2A95EAF7A0CF2E503109F6CFEDE624
:1006E000F0E08FEF80930805109207051092060541
:1006F00080919A0690919B0681152BE4920709F44C
:1007000057C0A8F58038954209F440C05FB7F89407
:10071000408190919606983008F052C081E001C067
:10072000880F9A95EAF7842B808380919606E8E6F5
:10073000F0E0863110F0F0E0E0E09081883008F4DD
:100740004EC021E08E3008F420E081E001C0880F27
:100750002A95EAF7892B80838AE896E090930E0524
:1007600080930D055FBFA6CFEBE6F0E0BACF8231F4
:100770002AE79207A9F08115964941F686E0809311
:1007800005058DE98093040584E007C08AE1809324
:10079000050587E2809304058AE080930305B6CFC0
:1007A00088E08093050580E88093040585E0F5CF17
:1007B0008DE0809305058EE48093040586E0EDCFFF
:1007C000292F30E09E3040F42850310981E001C0EB
:1007D000880F2A95EAF7A7CF2E503109F7CF84E08A
:1007E000B9CF1F93CF93DF93182FEB0161E00E94E5
:1007F0008802209739F460E0812FDF91CF911F911B
:100800000C945A02CF3FD10511F461E0F5CFE12FEE
:10081000F0E0ED5DFC4FE491E33031F140F4E13084
:10082000B1F0E230E1F0C038D1057CF7E4CFE73039
:1008300029F1E83059F1E430B1F78091800080620D
:1008400080938000D0938B00C0938A0004C084B54D
:10085000806884BDC7BDDF91CF911F91089584B595
:10086000806284BDC8BDF7CF80918000806880938E
:100870008000D0938900C0938800EDCF8091B000B4
:1008800080688093B000C093B300E5CF8091B00042
:1008900080628093B000C093B400DDCF70E060E070
:1008A00089E00E94F10370E060E08AE00E94F103B9
:1008B00060E087E00E945A0260E086E00E945A02EF
:1008C00060E088E00E945A0260E08CE00C945A02DA
:1008D000EF92FF920F931F93CF93DF93E62EF42EA8
:1008E000E9012F3F310509F0F4F421303F4F54F175
:1008F0001C161D06DCF400910F0510E00C171D07F7
:100900000CF48E0160E00E945A0261E08E2D0E947C
:100910005A02B8018F2DDF91CF911F910F91FF9057
:10092000EF900C94F103CFEFD0E0E5CF209761F486
:1009300060E00E945A0260E08E2D0E945A0270E030
:1009400060E0E8CFC1E0DFEF20910F0530E0442701
:1009500055274C1B5D0B4217530724F4CC27DD278A
:10096000C21BD30B61E00E945A0260E08E2D0E94F0
:100970005A02662777276C1B7D0BCCCFCF93DF9372
:10098000EB019C0149E066E087E00E9468049E015B
:100990004AE06CE088E0DF91CF910C9468043FB7A7
:1009A000F8948091FF0490910005A0910105B09109
:1009B000020526B5A89B05C02F3F19F00196A11D81
:1009C000B11D3FBFBA2FA92F982F8827BC01CD0199
:1009D000620F711D811D911D42E0660F771F881FF8
:1009E000991F4A95D1F708958F929F92AF92BF9227
:1009F000CF92DF92EF92FF926B017C010E94CF04B5
:100A00004B015C01C114D104E104F104B9F00E946E
:100A1000CF04681979098A099B09683E73408105EA
:100A2000910580F321E0C21AD108E108F10888EEAF
:100A3000880E83E0981EA11CB11CE4CFFF90EF90BC
:100A4000DF90CF90BF90AF909F908F9008952FB779
:100A5000F8946091FB047091FC048091FD049091E6
:100A6000FE042FBF089508950895DC01ED91FC91D7
:100A70000190F081E02D0994EF92FF920F931F9364
:100A8000CF93DF938C017B01D0E0C0E0F701EC0F46
:100A9000FD1F6491662361F0D801ED91FC910190F6
:100AA000F081E02DC8010995892B11F02196EECF38
:100AB000CE01DF91CF911F910F91FF90EF9008959C
:100AC000AF92BF92CF92DF92EF92FF920F931F935C
:100AD000CF93DF936C017B018B01040F151FEB019A
:100AE0005E01AE18BF08C017D10759F06991D60151
:100AF000ED91FC910190F081E02DC6010995892BC3
:100B000079F7C501DF91CF911F910F91FF90EF9081
:100B1000DF90CF90BF90AF900895FC01538D448D2E
:100B2000252F30E0842F90E0821B930B541710F098
:100B3000CF96089501970895FC01918D828D9817A5
:100B400061F0A28DAE0FBF2FB11D5D968C91928D7D
:100B50009F5F9F73928F90E008958FEF9FEF0895AE
:100B6000FC01918D828D981731F0828DE80FF11D77
:100B7000858D90E008958FEF9FEF0895FC01918D92
:100B8000228D892F90E0805C9F4F821B91098F738B
:100B9000992708958CE695E00E94BE0521E0892BF7
:100BA00009F420E0822F089580E090E0892B29F05D
:100BB0000E94CA0581110C9400000895FC01A48DC7
:100BC000A80FB92FB11DA35ABF4F2C91848D90E06F
:100BD00001968F739927848FA689B7892C93A08952
:100BE000B1898C91837080648C93938D848D9813DC
:100BF00006C00288F389E02D80818F7D808308956F
:100C0000EF92FF920F931F93CF93DF93EC0181E05C
:100C1000888F9B8D8C8D98131AC0E889F989808103
:100C200085FF15C09FB7F894EE89FF896083E88936
:100C3000F98980818370806480839FBF81E090E028
:100C4000DF91CF911F910F91FF90EF900895F62EB5
:100C50000B8D10E00F5F1F4F0F731127E02E8C8D4F
:100C60008E110CC00FB607FCFACFE889F989808194
:100C700085FFF5CFCE010E94DE05F1CFEB8DEC0FA5
:100C8000FD2FF11DE35AFF4FF0829FB7F8940B8FB1
:100C9000EA89FB8980818062CFCFCF93DF93EC011B
:100CA000888D8823B9F0AA89BB89E889F9898C9154
:100CB00085FD03C0808186FD0DC00FB607FCF7CF10
:100CC0008C9185FFF2CF808185FFEDCFCE010E9410
:100CD000DE05E9CFDF91CF9108952091A804260F7A
:100CE0003327331F21323105ECF420913605FC0106
:100CF00090E080E0243069F082E00895A091A8049B
:100D00002191AC0148575B4FA40FB52FB11D2C9317
:100D10000196861798F38091A804680F6093A80441
:100D200080E0089581E008951092360581E0809377
:100D300035051092100561E082E10E945A0261E0DF
:100D400083E10E945A02E9EBF0E080818E7F80838C
:100D500080818D7F808388E48093B80085E48093D0
:100D6000BC000895CF93DF9391E09093870488238C
:100D7000B9F0C091B800D091BA008091BC008A7BD4
:100D80008093BC0060E082E10E945A0260E083E14F
:100D90000E945A020E949406D093BA00C093B800F1
:100DA000DF91CF9108958F929F92AF92BF92CF9291
:100DB000DF92EF92FF920F931F93CF93DF93D09127
:100DC0005F05D13208F0D7C0182FC0915E050E9490
:100DD000CF046B017C018091360581116BC082E0EC
:100DE00080933605109335058FEF8093340510926C
:100DF0003305D0933205AEE3B5E0E2E1F5E080E003
:100E0000D81391C01092110580911105CC0FC82BF9
:100E1000C093110580911005813009F088C01092AF
:100E200010050E94CF046B017C0180911105809315
:100E3000BB008091380590913905A0913A05B09199
:100E40003B05892B8A2B8B2BA1F00E94CF040091AC
:100E500038051091390520913A0530913B056C1900
:100E60007D098E099F09061717072807390708F417
:100E700042C08091BC0083FDD8CF85EC8093BC003C
:100E80000E94CF046B017C0180913605823009F409
:100E900050C0809134058F3F09F46FC080913405B4
:100EA000803209F46CC080913405803309F469C044
:100EB00084E026C08091380590913905A0913A05CB
:100EC000B0913B05892B8A2B8B2B09F484CF0E9490
:100ED000CF048090380590903905A0903A05B090E5
:100EE0003B056C197D098E099F0986169706A80691
:100EF000B90608F070CF809137050E94B20685E0F0
:100F000010923D0510925F0510923C05DF91CF9144
:100F10001F910F91FF90EF90DF90CF90BF90AF9017
:100F20009F908F9008959D9191938F5F69CF85EEEB
:100F3000A5CF8091380590913905A0913A05B091DF
:100F40003B05892B8A2B8B2B09F49ECF0E94CF0463
:100F5000009138051091390520913A0530913B05F3
:100F60006C197D098E099F0906171707280739078D
:100F700008F08ACFC0CF81E0C3CF80E0C1CF82E04C
:100F8000BFCF83E0BDCF0F931F93CF93DF938A0131
:100F9000E901209711F4C0E6D5E091E090933C057B
:100FA00080935E0510923D0510925F05E881F981FE
:100FB0000190F081E02DCE010995E881F981019041
:100FC000F081E02DD8016C91CE01099581E00E945D
:100FD000D30691E0811190E0892FDF91CF911F918D
:100FE0000F9108950895E091F0048091EF04E817BF
:100FF00030F4F0E0E553FB4F808190E008958FEFEF
:101000009FEF08959091F0048091EF042FEF3FEF50
:10101000981748F4E92FF0E0E553FB4F208130E0CA
:101020009F5F9093F004C90108958091EF0490911F
:10103000F004891B990B0895CF92DF92EF92FF92F3
:101040000F931F93CF93DF937C01CB018A012091F3
:101050003C05222389F0EB016B01C40ED51ECC1593
:10106000DD0569F06991D701ED91FC910190F08166
:10107000E02DC7010995F3CF642F0E946D06C801CA
:10108000DF91CF911F910F91FF90EF90DF90CF9064
:101090000895CF93DF931F92CDB7DEB76983209178
:1010A0003C052223F9F020915F05203258F021E021
:1010B00030E0FC013383228390E080E00F90DF91E9
:1010C000CF91089580913D05E82FF0E0E25CFA4F62
:1010D000998190838F5F80933D0580935F0581E0C8
:1010E00090E0ECCF61E0CE0101960E946D06F7CF53
:1010F000E0910D05F0910E053097C1F00288F3895B
:10110000E02D309709F009942091060530E0A901FF
:101110004F5F5F4F4F73552790910705941731F03C
:10112000295B3B4FF9018083409306050895CF93D7
:10113000DF93EC01309108053F3F91F1AE85BF850B
:101140008C9190910C05892359F126B599E0931B58
:1011500080910305280F80914604281B8091040587
:10116000289F90011124232F332726952695921727
:101170001306B0F48091450420914404915018F076
:10118000822B220FFBCF809345042093440490933D
:1011900008050E94780881E02A893B89232B09F001
:1011A00080E0DF91CF910895EF92FF920F931F930C
:1011B000CF93DF93E6B4F0900C05F82290910805E8
:1011C0009F3F91F4F11009C01092080581E08093CF
:1011D000440410924504E0924604DF91CF911F91A0
:1011E0000F91FF90EF900895C0910305CE0D80916F
:1011F0004604C81B80910405C89FE0011124CD2F2F
:10120000DD27C695C69529E0291B022F10E00C1793
:101210001D0708F02C2F920F90930805409144046D
:1012200080914504F11011C02150342F330F2F3F0E
:1012300019F0842B432FF8CF809345043093440456
:10124000983048F20E94780813C02150330B01C037
:10125000440F2A95EAF740934404842B8093450475
:10126000983008F4B8CF0E94780881E0F81621F091
:101270000C171D0708F4A8CF8FEF80930805ABCF9C
:10128000CF92DF92EF92FF920F931F93CF93DF9352
:101290008C01D62E8091090590910A05892B09F4BD
:1012A00054C0D8011C969C91D4E0983048F081E05D
:1012B0009E3008F480E0D1E001C0DD0F8A95EAF7A6
:1012C000CFB6F894F6B490E0E12CE394E0910905F0
:1012D000F0910A0580910B05BAE0EB1651F19923C4
:1012E000D9F09081892B8083C0910505C63011F417
:1012F000E0FCC7E086B58F198C17B0F48BB38D2353
:1013000079F08BB38D2B8BBBD8011E96ED91FC91A0
:1013100080810E94D408EECF908180958923E3CF0D
:10132000C8010E949708E6CFFC0E9D2D9170D694BF
:10133000CCCF9081892B8083CFBE86B58F198C1737
:1013400078F4C8010E949708F8CF90E080E0DF9120
:10135000CF911F910F91FF90EF90DF90CF90089564
:1013600081E090E0F4CF2091070580910605821777
:1013700069F030E0F901E95BFB4F80812F5F3F4F5F
:101380002F7333272093070590E008958FEF9FEF89
:1013900008959C018091060590910705891B990B82
:1013A000805C9F4F60E470E00E94C233811105C0F1
:1013B000C901F8940E949708789490E00895FC0180
:1013C000108211821282138280E090E0A8E0B2E4E1
:1013D00084839583A683B7838AE097EDA3EABCE371
:1013E00080879187A287B38786E696E6A6E6BFE365
:1013F00084879587A687B787108A118A128A138AED
:10140000148A158A168A178A108E118E128E138EE0
:101410008FE692E1A3E8BAE3848F958FA68FB78F0A
:1014200086EA9BE9A4E4BBE380A391A3A2A3B3A3B0
:1014300080E090E0A0E0BFE384A395A3A6A3B7A3B8
:101440008DEC9CECACE4BDE380A791A7A2A7B3A769
:1014500014A615A616A617A60895CF93DF93EC0140
:10146000288139812234324461F42A81213049F4BF
:10147000CE010E94180221E04FA958AD4817590724
:1014800009F020E0822FDF91CF9108956091BA0199
:101490007091BB018091B8019091B9010C94BE0488
:1014A000E1E4F1E08FEF9FEFDC01858B968BA78B5A
:1014B000B08F118E128E138E148E158E168E178E7F
:1014C00010A212A211A20895CF92DF92EF92FF9282
:1014D0000F931F9380E3E1E0F3E0A0E0B1E001901F
:1014E0000D928A95E1F780919C0190919D01A091C8
:1014F0009E01B0919F018093300190933101A093A0
:101500003201B0933301E1E0F3E084A580930F054D
:1015100080A591A5A2A5B3A544A155A166A177A1D7
:1015200000A111A122A133A1C48CD58CE68CF78C2B
:10153000C0925206D0925306E0925406F09255069D
:101540000093560610935706209358063093590679
:1015500040935A0650935B0660935C0670935D0659
:1015600080935E0690935F06A0936006B093610639
:101570001F910F91FF90EF90DF90CF90089590E032
:1015800080E008952F923F924F925F926F927F92E8
:101590008F929F92AF92BF92CF92DF92EF92FF9283
:1015A0000F931F93CF93DF93CDB7DEB72F970FB66F
:1015B000F894DEBF0FBECDBF8C836F83498339871C
:1015C0002887580147010E9427056B017C0181147F
:1015D000910421F480E6882E85E0982E2C81220F3C
:1015E0002E833981832F90E0432F41954D83132F14
:1015F000312C212C1F869B838A8301E0C501B0E03A
:10160000A0E08A879B87AC87BD87AA81BB812A1609
:101610003B060CF011C100933C05BC81B0935E0504
:1016200010923D0510925F05D401ED91FC9101905F
:10163000F081E02D6F81C401099581E00E94D306FD
:101640000E94CF042B013C018091360581116DC0B1
:101650001E87113210F0B0E2BE870093360500936A
:1016600035052FEF20933405109233058E85815078
:101670008093320500931105809111053E81832BE3
:101680008093110580911005813009F098C0109267
:1016900010050E94CF042B013C018091110580931D
:1016A000BB008091380590913905A0913A05B09121
:1016B0003B05892B8A2B8B2BA1F00E94CF04209114
:1016C00038053091390540913A0550913B05641930
:1016D000750986099709261737074807590708F437
:1016E00045C08091BC0083FDD8CF45EC4093BC0041
:1016F0000E94CF042B013C0180913605813009F412
:1017000062C0809133059E85891718F4A091330536
:10171000AE87A2E1B5E0EBECF4E080E02E85821725
:1017200051F19D9191938F5FF9CF80913805909100
:101730003905A0913A05B0913B05892B8A2B8B2B5B
:1017400009F482CF0E94CF042091380530913905E9
:1017500040913A0550913B0564197509860997092E
:10176000261737074807590708F06ECF80913705CD
:101770000E94B2061E861092F0043E853093EF045C
:10178000D401ED91FC910084F185E02DC40109950F
:10179000892B09F44AC0A114B104B9F5D401ED9123
:1017A000FC910284F385E02DC4010995E885F98553
:1017B000BF85EB0FF11D8083BF5FBF87E1CF55EE83
:1017C0005093BC0095CF8091380590913905A09138
:1017D0003A05B0913B05892B8A2B8B2B09F48CCFD2
:1017E0000E94CF04209138053091390540913A0587
:1017F00050913B0564197509860997092617370723
:101800004807590708F078CFB1CF0E9427056C1917
:101810007D098E099F092A853B854C855D85621768
:1018200073078407950708F4B9CF4A815B81240EBA
:10183000351E5D81150FE9CEA114B104B1F00E94EF
:101840002705AB01BC014C195D096E097F09C50173
:10185000B0E0A0E0481759076A077B0730F08F8592
:101860009981891710F4AFEFAF878F852F960FB648
:10187000F894DEBF0FBECDBFDF91CF911F910F91C6
:10188000FF90EF90DF90CF90BF90AF909F908F90A0
:101890007F906F905F904F903F902F9008952F9280
:1018A0003F924F925F926F927F928F929F92AF92F0
:1018B000BF92CF92DF92EF92FF920F931F93CF933D
:1018C000DF934C015B016A01390128011701CDE06A
:1018D000D6E0E980FA8008EE13E020E136E04EE041
:1018E0006BE388810E94C20A8B819C81982789279B
:1018F0009827F401918380838D819E819827892781
:101900009827F501918380838F819885982789276F
:101910009827F601918380838B859C85982789275A
:101920009827F301918380838D859E859827892749
:101930009827F201918380838F859889982789273A
:101940009827F10191838083DF91CF911F910F91AF
:10195000FF90EF90DF90CF90BF90AF909F908F90CF
:101960007F906F905F904F903F902F9008957F925F
:101970008F929F92AF92BF92CF92DF92EF92FF929F
:101980000F931F93CF93DF9300D0CDB7DEB7A82E70
:10199000962E742E822EB02E08EE13E09E012E5F3E
:1019A0003F4F41E00E94C20A8823C1F1872D881968
:1019B000990BAC014F5F5F4F81E090E002C0880F50
:1019C000991F8A94E2F70197042E01C0880F0A94A8
:1019D000EAF72B2D01C0220F4A95EAF7B82EB094F2
:1019E0009A81B92282238B298A8389839701AE0148
:1019F0004F5F5F4F692D8A2D0E94C3070F900F9094
:101A0000DF91CF911F910F91FF90EF90DF90CF90DA
:101A1000BF90AF909F908F907F90089580E0EECF21
:101A2000CF92DF92EF92FF920F931F93CF93DF93AA
:101A3000EB017B0129E3E20EF11C8B016C01C61A5C
:101A4000D70AC601800F911F0E940A33F8018193C3
:101A50008F01EE15FF05A9F7CE01DF91CF911F9100
:101A60000F91FF90EF90DF90CF900895FB010190D0
:101A70000020E9F73197AF01461B570BDC01ED91D0
:101A8000FC910280F381E02D09948F929F92AF9296
:101A9000BF92EF92FF920F931F93CF93DF93CDB737
:101AA000DEB7A1970FB6F894DEBF0FBECDBF7C01A5
:101AB000FA01CB0119A2223008F42AE08E010F5D51
:101AC0001F4F822E912CB12CA12CBF01A501940196
:101AD0000E943033F901CA016A300CF5605DD8010B
:101AE0006E938D01232B242B252B79F790E080E03A
:101AF000109721F0BD01C7010E94360DA1960FB6C7
:101B0000F894DEBF0FBECDBFDF91CF911F910F9133
:101B1000FF90EF90BF90AF909F908F900895695C79
:101B2000DECFCF92DF92EF92FF920F931F93CF936E
:101B3000DF9377FF1DC06A017B01EC016DE20E941B
:101B400035058C0144275527BA014C195D096E09EA
:101B50007F092AE0CE010E94450D800F911FDF9181
:101B6000CF911F910F91FF90EF90DF90CF9008954C
:101B70002AE0DF91CF911F910F91FF90EF90DF90BE
:101B8000CF900C94450D2F923F924F925F926F929F
:101B90007F928F929F92AF92BF92CF92DF92EF92FD
:101BA000FF921F93CF93DF93EC016A017B01722EAA
:101BB000AB019601CB01B6010E94AF3565E973E038
:101BC000811126C046015701E894B7F82FEF3FEF87
:101BD0004FE75FE7C501B4010E94AF3581110CC02A
:101BE0002FEF3FEF4FE75FE7C501B4010E949C2F45
:101BF00069E973E0181664F02FEF3FEF4FE75FE4F9
:101C0000C701B6010E949E351816B4F46DE973E061
:101C1000CE01DF91CF911F91FF90EF90DF90CF9099
:101C2000BF90AF909F908F907F906F905F904F90FC
:101C30003F902F900C94360D2FEF3FEF4FE75FEC66
:101C4000C701B6010E949C2F87FDE0CF20E030E065
:101C5000A901C701B6010E949C2F312C212C87FFBE
:101C600009C06DE2CE010E9435051C01F7FAF0941F
:101C7000F7F8F09410E060E070E080E09FE3711608
:101C800041F020E030E040E251E40E94CF341F5F99
:101C9000F6CFA70196010E94F1332B013C010E946F
:101CA00048354B015C012AE0BC01A401CE010E9431
:101CB000450D7C01E20CF31C1123C1F1C501B401F7
:101CC0000E94A12F9B01AC01C301B2010E94F0331D
:101CD0004B015C016EE2CE010E943505E80EF91E53
:101CE000115020F120E030E040E251E4C501B401A0
:101CF0000E9402302B013C010E9448354B01B12C5F
:101D0000A12C2AE0B501A401CE010E94450DE80EE8
:101D1000F91EC501B4010E94A12F9B01AC01C301B2
:101D2000B2010E94F0334B015C01DACFC701DF91B1
:101D3000CF911F91FF90EF90DF90CF90BF90AF9029
:101D40009F908F907F906F905F904F903F902F90DB
:101D500008950C94C30DCF92DF92EF92FF920F93F0
:101D60001F93CF93DF93EC016A017B0168EC73E072
:101D70000E943C0501E013E0F8014081518162813D
:101D8000738124E030E0CE010E94A90E66EC73E07E
:101D9000CE010E943C05F80144815581668177811E
:101DA00024E030E0CE010E94A90E64EC73E0CE0185
:101DB0000E943C05F801408551856285738524E0C9
:101DC00030E0CE010E94A90E62EC73E0CE010E94C9
:101DD0003C05F801448555856685778524E030E02B
:101DE000CE010E94A90E60EC73E0CE010E943C057A
:101DF000F801408951896289738924E030E0CE017D
:101E00000E94A90E6EEB73E0CE010E943C05F80122
:101E1000448955896689778924E030E0CE010E94A3
:101E2000A90E6CEB73E0CE010E943C05F801408DD9
:101E3000518D628D738D24E030E0CE010E94A90E99
:101E40006AEB73E0CE010E943C05F801448D558D8C
:101E5000668D778D26E030E0CE010E94A90E68EBFA
:101E600073E0CE010E943C05F80140A151A162A19E
:101E700073A126E030E0CE010E94A90E66EB73E06C
:101E8000CE010E943C05F80144A155A166A177A1AD
:101E900026E030E0CE010E94A90E64EB73E0CE0193
:101EA0000E943C05F80140A551A562A573A524E058
:101EB00030E0CE010E94A90E62EB73E0CE010E94D9
:101EC0003C05F80144A550E070E060E02AE0CE0156
:101ED0000E94450D60EB73E0CE010E943C0524E0BA
:101EE000B701A601CE010E94C30D61EA73E0CE01E5
:101EF000DF91CF911F910F91FF90EF90DF90CF90E6
:101F00000C94360DCF92DF92EF92FF92CF93DF9336
:101F1000C0909C01D0909D01E0909E01F0909F01A7
:101F2000C9E0D6E0B701A601888199810E94AB0E75
:101F3000B701A6018A819B81DF91CF91FF90EF903D
:101F4000DF90CF900C94AB0E2F923F924F925F9206
:101F50006F927F928F929F92AF92BF92CF92DF92B9
:101F6000EF92FF920F931F93CF93DF93CDB7DEB71E
:101F700060970FB6F894DEBF0FBECDBF3C011A01CB
:101F80002B0109831A832B833C838DA19EA1AFA1D2
:101F9000B8A58D839E83AF83B88789A59AA5ABA585
:101FA000BCA589879A87AB87BC878DA59EA5AFA561
:101FB000B8A98D879E87AF87B88B09A91AA961E553
:101FC00073E0C3010E943C0523E030E0B201A101AF
:101FD000C3010E94A90E6FE473E0C3010E943C0597
:101FE00023E030E049815A816B817C81C3010E94EA
:101FF000A90E6DE473E0C3010E943C0523E030E0CC
:10200000B701A601C3010E94A90E6BE473E0C301EE
:102010000E943C054091A4015091A5016091A60148
:102020007091A70123E030E0C3010E94A90E69E48A
:1020300073E0C3010E943C054091A8015091A901A1
:102040006091AA017091AB0123E030E0C3010E94CE
:10205000A90E67E473E0C3010E943C054091AC0106
:102060005091AD016091AE017091AF0122E030E07E
:10207000C3010E94A90E65E473E0C3010E943C0500
:102080004091B0015091B1016091B2017091B301E2
:1020900022E030E0C3010E94A90E63E473E0C301B3
:1020A0000E943C054091A0015091A101052E000C19
:1020B000660B770BC3010E94910D61E473E0C301CD
:1020C0000E943C054091A2015091A301052E000CF5
:1020D000660B770BC3010E94910D6FE373E0C301A0
:1020E0000E943C052AE0B501A401C3010E94450DF0
:1020F0006DE373E0C3010E943C052AE04D815E81DF
:102100006F817885C3010E94450D6BE373E0C301C5
:102110000E943C052AE049855A856B857C85C30170
:102120000E94450D69E373E0C3010E943C052AE06B
:102130004D855E856F857889C3010E94450D67E3F3
:1021400073E0C3010E943C05A80170E060E02AE052
:10215000C3010E94450D61EA73E0C30160960FB6AA
:10216000F894DEBF0FBECDBFDF91CF911F910F91CD
:10217000FF90EF90DF90CF90BF90AF909F908F90A7
:102180007F906F905F904F903F902F900C94360D02
:102190000F931F93CF93DF93EC010E94360D8C01B8
:1021A00061EA73E0CE010E94360D800F911FDF912E
:1021B000CF911F910F910895EF92FF920F931F936C
:1021C000CF93DF937C018B01C9E0D6E067E973E030
:1021D000888199810E943C05B701888199810E947C
:1021E0003C0565E973E0888199810E943C05B8014E
:1021F000888199810E94C81062E973E08A819B817D
:102200000E943C05B7018A819B810E943C0560E9E0
:1022100073E08A819B810E943C05B8018A819B8181
:10222000DF91CF911F910F91FF90EF900C94C81008
:102230000F931F93CF93DF93EC010E943C058C0119
:1022400061EA73E0CE010E94360D800F911FDF918D
:10225000CF911F910F910895EF92FF920F931F93CB
:10226000CF93DF938C01C62FD42F790167ED73E0F4
:102270000E943C056DEC73E0C93040F4EC2FF0E0B7
:10228000EE0FFF1FE35BFC4F60817181C8010E946C
:102290003C0565ED73E0C8010E943C054D2F50E000
:1022A00070E060E0C8010E94910D6BEC73E0C80122
:1022B0000E943C05B701C801DF91CF911F910F919A
:1022C000FF90EF900C9418110F931F93CF93DF930F
:1022D000E0914201C4EDD2E0E63038F4F0E0EE0FD8
:1022E000FF1FEF5BFC4FC081D18100914001109135
:1022F00041019E01402F612F8091090690910A06AD
:102300000E942C119E01402F612F80910B0690910D
:102310000C06DF91CF911F910F910C942C11EF922D
:10232000FF920F931F93CF93DF937C018B01C9E042
:10233000D6E067EA73E0888199810E943C05B70185
:10234000888199810E943C0565EA73E088819981C2
:102350000E943C05B801888199810E94181162EAA7
:1023600073E08A819B810E943C05B7018A819B8131
:102370000E943C0560EA73E08A819B810E943C05D3
:10238000B8018A819B81DF91CF911F910F91FF90BE
:10239000EF900C9418111092400110923401109299
:1023A00035011092360110923701109238011092C7
:1023B000390110923A0110923B011092BC01109227
:1023C000B9011092B8011092BB011092BA010E949B
:1023D0004E0480914101883019F082E080934101E0
:1023E00065E572E087E592E00C948F11CF92DF9261
:1023F000EF92FF92CF93DF93F894E1EFF4E06081E6
:10240000718182819381C480D580E680F780789441
:102410006C0D7D1D8E1D9F1D22E030E040E050E0E0
:102420000E94523369017A01C0E0D1E081E08093DB
:1024300040011CAA1DAA1EAA1FAA18AE19AE1AAEE8
:102440001BAECA01B9010E94A32F6CAF7DAF8EAF46
:102450009FAFC0929801D0929901E0929A01F092B8
:102460009B0183E0809341016FE472E081E592E09B
:10247000DF91CF91FF90EF90DF90CF900C948F1170
:10248000EF92FF920F931F93CF93DF93C82F8B018F
:10249000E1E4F1E0818388E08083E0E0F1E0109204
:1024A000400114AA15AA16AA17AA10AE11AE12AEB0
:1024B00013AE0E944E04EC2FF0E0EE0FFF1FEF5B17
:1024C000FC4FE080F180C9E0D6E060E472E08881F2
:1024D00099810E943C05B701888199810E943C0541
:1024E0006EE372E0888199810E943C05B801888181
:1024F00099810E94181165E372E08A819B810E9494
:102500003C05B7018A819B810E943C0563E372E030
:102510008A819B810E943C05B8018A819B81DF9161
:10252000CF911F910F91FF90EF900C94181185EDB2
:102530008093BC008091380590913905A0913A05AF
:10254000B0913B050796A11DB11D23E0B695A79557
:10255000979587952A95D1F72091BC0024FD03C05B
:1025600010923605089540913805509139056091D3
:102570003A0570913B05452B462B472B69F3009795
:10258000A105B10541F02AE22A95F1F700C00197B3
:10259000A109B109E1CF809137050C94B206CF9221
:1025A000DF92EF92FF921F93CF93DF937C01EB01B9
:1025B000F70181917F011991882379F0112359F056
:1025C00090E00E94B4356C01812F90E00E94B435F8
:1025D000C816D90669F380E003C081E01111FBCF72
:1025E000DF91CF911F91FF90EF90DF90CF900895F2
:1025F000EF92FF920F931F93CF93DF938C017C0197
:10260000E701F70181917F01882329F090E00E9482
:102610004A2F892BA9F7C017D10759F0FE01019065
:102620000020E9F7AF014C1B5D0BBE01C8010E9401
:10263000BC35E80109900020E9F72197C017D107C0
:1026400041F08A9190E00E944A2F892B11F0188264
:10265000F5CFDF91CF911F910F91FF90EF900895EB
:102660000F931F93CF93DF93DC01CD91DC912881F1
:102670002223A1F08C016CE270E0CE010E94CE35E5
:10268000009791F4FE0101900020E9F7CF01019736
:10269000D8018D939C93CE010E94F812CE01DF9158
:1026A000CF911F910F910895FC011192D801ED93E4
:1026B000FC93F1CFEF92FF920F931F93CF93DF9391
:1026C00000D0CDB7DEB78B010E9430137C01FC0136
:1026D000808181110AC080E00F900F90DF91CF912F
:1026E0001F910F91FF90EF9008951A8219824AE08E
:1026F00050E0BE016F5F7F4FC7010E94332EF8018B
:10270000608371838283938309811A810115110586
:1027100071F0F8018081882371F090E00E944A2FC7
:10272000892BC9F20F5F1F4F1A830983EDCFEF2862
:1027300091F281E0D1CF0E151F05D9F7CCCF2F92A2
:102740003F924F925F926F927F928F929F92AF9241
:10275000BF92CF92DF92EF92FF920F931F93CF938E
:10276000DF93CDB7DEB7C054D1090FB6F894DEBF02
:102770000FBECDBF4C016B015CAF4BAF21963FAF9D
:102780002EAF219704E0CB0102969EAF8DAFDE0104
:1027900011965D011E01B1E32B0E311CD401ED91A8
:1027A000FC910084F185E02DC4010995892B09F481
:1027B00051C7D401ED91FC910284F385E02DC40151
:1027C0000995ABADBCADEC918D3019F08A3009F0B4
:1027D00030C7EE2309F44EC0EC0DFD2DF11D108223
:1027E000C6010E94F812F6018081833421F010E0C6
:1027F00062E672E030C081818A33C9F7EDADFEAD8B
:10280000FAAFE9AFCF010E94F812CE01C9960E943B
:1028100030137C0164EA73E00E94CF12882381F1B7
:1028200019821A821B821C82B501CE01C9960E94B0
:102830005A13182F8823E1F289819A81AB81BC81D8
:10284000892B8A2B8B2B19F00E94F61102C00E9453
:10285000CB1168E672E021968EAD9FAD21970E9464
:102860001811111107C000934201B6018DE692E0E4
:102870000E94DC10ABADBCAD1C92F60110828ECF75
:1028800068EA73E0C7010E94CF12882309F44EC0A2
:10289000CE01C9960E9430137C016DEA73E00E945C
:1028A000CF12182F882331F00E94CB1182E0809341
:1028B0004101CFCF62EB73E0C7010E94CF12182F06
:1028C0008111C2CF6AEB73E0C7010E94CF12182FAB
:1028D000882329F00E94CB1100934101BACF63EC09
:1028E00073E0C7010E94CF12182F882331F00E9495
:1028F000CB11F5E0F0934101ACCF6FEC73E0C70171
:102900000E94CF12182F882321F00E94CB1186E05D
:10291000CECF6DED73E0C7010E94CF12182F882330
:1029200009F465CF0E94CB1187E0C1CF69EE73E057
:10293000C7010E94CF12182F882329F00E9464112A
:102940000E94820F86CF60EF73E0C7010E94CF1212
:10295000182F882371F021E0209343010E9427055E
:10296000609345017093460180934701909348011D
:1029700070CF60E174E0C7010E94CF12182F882346
:1029800089F01092340110923501109236011092A4
:102990003701109238011092390110923A011092C9
:1029A0003B0157CF65EF73E0C7010E94CF12182F8C
:1029B000882309F475C01092620610926306109283
:1029C00064061092650610926606109267061092D1
:1029D0006806109269061092420610924306109201
:1029E0004406109245061092460610924706109231
:1029F00048061092490610924A0610924B06109211
:102A00004C0610924D0610924E0610924F061092F0
:102A10005006109251061092760610927706109288
:102A20007806109279061092720610927306109230
:102A300074061092750610926E0610926F06109230
:102A400070061092710610926A0610926B06109230
:102A50006C0610926D0680E090E0A0E8BFE38093E2
:102A60007A0690937B06A0937C06B0937D06109225
:102A70007E0610927F0610928006109281061092B8
:102A80008206109283061092840610928506809327
:102A9000860690938706A0938806B0938906D9CEC0
:102AA0006DEF73E0C7010E94CF12882341F01092AE
:102AB0004201809140018823E9F011E0CACE68E02C
:102AC00074E0C7010E94CF128823C1F01092BC01AC
:102AD0001092B9011092B8011092BB011092BA0184
:102AE0000E944E04809140018111E7CF8091410105
:102AF000883019F382E080934101DFCF6DE074E00C
:102B0000C7010E94CF12182F8823D9F1F894109290
:102B1000F1041092F2041092F3041092F404109253
:102B2000F5041092F6041092F7041092F8047894C9
:102B3000109288011092890110928A0110928B01E3
:102B400010928C0110928D0110928E0110928F01C3
:102B500010929001109291011092920110929301A3
:102B60001092940110929501109296011092970183
:102B7000109298011092990110929A0110929B0163
:102B800068CE66E174E0C7010E94CF12882309F481
:102B90009BC01DAA1EAA1FAA18AE19AA1AAA1BAA70
:102BA0001CAABE016B5C7F4FCE01C9960E945A13CE
:102BB000882309F41DCEB101CE01C9960E945A1393
:102BC000F82E882309F414CE80914001811110CE93
:102BD00080914101883009F40BCE8DA99EA9AFA93F
:102BE000B8AD2FEF30E08F3F9105A105B10509F099
:102BF00044F49C0181309F4FAF4FBF4F14F421E04C
:102C00003FEF3093B9012093B80189A99AA9ABA9E4
:102C1000BCA98F3F9105A105B10511F00CF040C092
:102C20008130EFEF9E07AE07BE07ECF19093BB013A
:102C30008093BA01232BD1F521E0892B09F420E000
:102C40002093BC01F5E0F09341010E94460A4090B8
:102C5000BA015090BB01052C000C66087708609102
:102C6000B8017091B901072E000C880B990B2AE06E
:102C7000A5010E946B2FF50101900020E9F7319723
:102C8000EA19FB09AF014F5F5F4F4031510580F0FA
:102C9000188AB5018BE592E00E94DC101F2DD9CD7A
:102CA0008FEF90E0C3CF81E09FEFC0CF2F2DC8CF33
:102CB000EA0DFB1D2CE220834A0D5B1D2AE0C301B7
:102CC000B2010E946B2FE5CF6DE174E0C7010E9455
:102CD000CF12882309F43FC019821A821B821C82FA
:102CE000B501CE01C9960E94871D182F882309F4CB
:102CF0007FCD49805A806B807C8020E030E040E4CA
:102D000051ECC301B2010E949C2F87FD1DC020E041
:102D100030E040E451E4C301B2010E949E35181630
:102D200034F4412C512C60E4662E61E4762E4092FE
:102D300001035092020360920303709204030E9405
:102D4000640A0E94741D85CD412C512C50E4652EDF
:102D500051EC752EECCF66E274E0C7010E94CF12F1
:102D60008111FFC16AE274E0C7010E94CF12811194
:102D7000F8C162E274E0C7010E94CF128111F1C173
:102D800065E274E0C7010E94CF128111EAC169E2D5
:102D900074E0C7010E94CF128111E3C16DE274E0BB
:102DA000C7010E94CF128111DCC161E374E0C70149
:102DB0000E94CF128111D5C164E374E0C7010E9463
:102DC000CF128111CEC167E374E0C7010E94CF1218
:102DD0008111C7C16AE374E0C7010E94CF1281115B
:102DE000C0C16DE374E0C7010E94CF128111B9C167
:102DF00062E174E0C7010E94CF12882309F4F7CC86
:102E0000CE0101967C01B701CE01C9960E94871DB3
:102E1000182F882309F4ECCC94E0E90EF11C2E1451
:102E20003F0489F749805A806B807C8020E030E045
:102E300040E451ECC301B2010E949C2F87FDBEC348
:102E400020E030E040E451E4C301B2010E949E352D
:102E5000181634F4412C512C30E4632E31E4732ED7
:102E600040920103509202036092030370920403A4
:102E70004D805E806F80788420E030E0A901C3013E
:102E8000B2010E949C2F87FDA0C320E030E048E4FF
:102E900053E4C301B2010E949E35181634F4412C4C
:102EA000512C98E4692E93E4792E409205035092B8
:102EB0000603609207037092080349845A846B8466
:102EC0007C8420E030E0A901C301B2010E949C2F64
:102ED00087FD7FC320E030E048E452E4C301B20143
:102EE0000E949E35181634F4412C512C88E4682E2B
:102EF00082E4782E4092090350920A0360920B03F9
:102F000070920C034D845E846F84788820E030E0FA
:102F1000A901C301B2010E949C2F87FD5EC320E07E
:102F200030E040EA51E4C301B2010E949E35181618
:102F300034F4412C512CB0EA6B2EB1E47B2E40923C
:102F40000D0350920E0360920F0370921003498894
:102F50005A886B887C8820E030E040E85FEBC30152
:102F6000B2010E949C2F87FD3CC320E030E040E886
:102F70005FE3C301B2010E949E35181634F4412C60
:102F8000512CA0E86A2EAFE37A2E409211035092A2
:102F9000120360921303709214034D885E886F8849
:102FA000788C20E030E040E05FEBC301B2010E948A
:102FB0009C2F87FD1DC320E030E040E05FE3C301AC
:102FC000B2010E949E3518162CF4412C512C612C14
:102FD000EFE37E2E40921503509216036092170382
:102FE00070921803498C5A8C6B8C7C8C20E030E0FA
:102FF00040E85FEBC301B2010E949C2F87FDFEC237
:1030000020E030E040E85FE3C301B2010E949E355A
:10301000181634F4412C512C60E8662E6FE3762E9E
:103020004092190350921A0360921B0370921C0382
:103030004D8C5E8C6F8C78A020E030E0A901C3013C
:10304000B2010E949C2F87FDE0C220E030E040E802
:103050005FE3C301B2010E949E35181634F4412C7F
:10306000512C40E8642E4FE3742E40921D03509281
:103070001E0360921F037092200349A05AA06BA008
:103080007CA020E030E0A901C301B2010E949C2F86
:1030900087FDBFC220E030E040E85FE3C301B2013A
:1030A0000E949E35181634F4412C512C30E8632EC2
:1030B0003FE3732E40922103509222036092230338
:1030C000709224034DA05EA06FA078A420E030E0B1
:1030D000A901C301B2010E949C2F87FD9EC220E07E
:1030E00030E040E251E4C301B2010E949E3518165F
:1030F00034F4412C512C20E2622E21E4722E4092B5
:10310000250350922603609227037092280349A456
:103110005AA46BA47CA420E030E0A901C301B20151
:103120000E949C2F87FD7DC220E030E040E85FE3F5
:10313000C301B2010E949E35181634F4412C512C63
:1031400090E8692E9FE3792E4092290350922A033A
:1031500060922B0370922C034DA45EA46FA478A8F8
:103160000DC219821A821B821C82B501CE01C9963A
:103170000E94871D182F882309F43ACB66E274E079
:10318000C7010E94CF12882351F149805A806B8079
:103190007C8020E030E0A901C301B2010E949C2F95
:1031A00087FD19C020E030E048E453E4C301B201D8
:1031B0000E949E35181634F4412C512C48E4642E9C
:1031C00043E4742E40920503509206036092070375
:1031D00070920803B4CD412C512C3201F3CF6AE236
:1031E00074E0C7010E94CF12882351F149805A80B0
:1031F0006B807C8020E030E0A901C301B2010E9415
:103200009C2F87FD19C020E030E048E452E4C30160
:10321000B2010E949E35181634F4412C512C38E42A
:10322000632E32E4732E4092090350920A03609297
:103230000B0370920C0383CD412C512C3201F3CF40
:1032400062E274E0C7010E94CF12882351F14980E5
:103250005A806B807C8020E030E0A901C301B2017C
:103260000E949C2F87FD19C020E030E040EA51E425
:10327000C301B2010E949E35181634F4412C512C22
:1032800020EA622E21E4722E40920D0350920E032A
:1032900060920F037092100352CD412C512C3201D9
:1032A000F3CF65E274E0C7010E94CF12882371F169
:1032B00049805A806B807C8020E030E040E85FEB02
:1032C000C301B2010E949C2F87FD19C020E030E0AD
:1032D00040E85FE3C301B2010E949E35181634F442
:1032E000412C512C90E8692E9FE3792E40921103D6
:1032F00050921203609213037092140320CD412C5C
:10330000512C80E8682E8FEB782EF0CF69E274E0C4
:10331000C7010E94CF12882361F149805A806B80D7
:103320007C8020E030E040E05FEBC301B2010E940E
:103330009C2F87FD18C020E030E040E05FE3C30130
:10334000B2010E949E3518162CF4412C512C612C90
:10335000BFE37B2E40921503509216036092170331
:1033600070921803ECCC412C512C612CAFEB7A2ECF
:10337000F1CF6DE274E0C7010E94CF12882371F192
:1033800049805A806B807C8020E030E040E85FEB31
:10339000C301B2010E949C2F87FD19C020E030E0DC
:1033A00040E85FE3C301B2010E949E35181634F471
:1033B000412C512CF0E86F2EFFE37F2E4092190331
:1033C00050921A0360921B0370921C03B8CC412CDC
:1033D000512CE0E86E2EEFEB7E2EF0CF61E374E02F
:1033E000C7010E94CF12882351F149805A806B8017
:1033F0007C8020E030E0A901C301B2010E949C2F33
:1034000087FD19C020E030E040E85FE3C301B2016E
:103410000E949E35181634F4412C512C70E8672E0A
:103420007FE3772E40921D0350921E0360921F038C
:103430007092200384CC412C512C3201F3CF64E3F1
:1034400074E0C7010E94CF12882351F149805A804D
:103450006B807C8020E030E0A901C301B2010E94B2
:103460009C2F87FD19C020E030E040E85FE3C301F6
:10347000B2010E949E35181634F4412C512C60E89C
:10348000662E6FE3762E40922103509222036092C3
:1034900023037092240353CC412C512C3201F3CFDF
:1034A00067E374E0C7010E94CF12882351F149807D
:1034B0005A806B807C8020E030E0A901C301B2011A
:1034C0000E949C2F87FD19C020E030E040E251E4CB
:1034D000C301B2010E949E35181634F4412C512CC0
:1034E00050E2652E51E4752E40922503509226033A
:1034F000609227037092280322CC412C512C320178
:10350000F3CF6AE374E0C7010E94CF12882351F120
:1035100049805A806B807C8020E030E0A901C301A3
:10352000B2010E949C2F87FD19C020E030E040E8E6
:103530005FE3C301B2010E949E35181634F4412C9A
:10354000512C40E8642E4FE3742E40922903509290
:103550002A0360922B0370922C03F1CB412C512C47
:103560003201F3CF6DE374E0C7010E94CF128823CC
:1035700009F4E5CB49805A806B807C8020E030E004
:10358000A901C301B2010E949C2F87FD4EC020E01B
:1035900030E04FE753E4C301B2010E949E35181694
:1035A00034F4412C512C8FE7682E83E4782EC3012C
:1035B000B2010E94483560932D03C1CB412C512CA0
:1035C00020E4622E21EC722E4BCC412C512C320186
:1035D0006CCC412C512C32018DCC412C512C320120
:1035E000AECC412C512CF0E86F2EFFEB7F2ECDCCD2
:1035F000412C512C612C7FEB772EECCC412C512CA3
:1036000050E8652E5FEB752E0BCD412C512C32010D
:103610002CCD412C512C32014DCD412C512C32015D
:103620006ECD412C512C32018FCD412C512C3201C9
:10363000BECFE03A08F01EC991E09E0FABADBCAD25
:103640009C93EC0DFD2DF11D8083EC91EC0DFD2D77
:10365000F11D14C9C05CDF4F0FB6F894DEBF0FBE7A
:10366000CDBFDF91CF911F910F91FF90EF90DF9031
:10367000CF90BF90AF909F908F907F906F905F9012
:103680004F903F902F9008951F920F920FB60F9278
:1036900011242F933F938F939F93AF93BF93809168
:1036A000FB049091FC04A091FD04B091FE043091C4
:1036B000FA0423E0230F2D3758F50196A11DB11D03
:1036C0002093FA048093FB049093FC04A093FD04E0
:1036D000B093FE048091FF0490910005A091010534
:1036E000B09102050196A11DB11D8093FF04909336
:1036F0000005A0930105B0930205BF91AF919F9182
:103700008F913F912F910F900FBE0F901F901895A2
:1037100026E8230F0296A11DB11DD2CF1F920F9252
:103720000FB60F9211242F933F934F935F936F9394
:103730007F938F939F93AF93BF93EF93FF938CE609
:1037400095E00E94DE05FF91EF91BF91AF919F91AF
:103750008F917F916F915F914F913F912F910F903A
:103760000FBE0F901F9018951F920F920FB60F92D9
:1037700011242F938F939F93EF93FF93E0917C05F8
:10378000F0917D058081E0918205F091830582FDB5
:103790001BC09081809185058F5F8F732091860576
:1037A000821741F0E0918505F0E0E459FA4F958FDA
:1037B00080938505FF91EF919F918F912F910F90AD
:1037C0000FBE0F901F9018958081F4CF1F920F921B
:1037D0000FB60F9211242F933F934F935F936F93E4
:1037E0007F938F939F93AF93BF93EF93FF938091BA
:1037F000B900887F803609F44AC0F0F5883209F4B0
:10380000A7C018F5803109F49BC0B8F4882309F4E7
:10381000F9C0883009F494C0FF91EF91BF91AF9146
:103820009F918F917F916F915F914F913F912F91D8
:103830000F900FBE0F901F901895883109F488C023
:10384000803251F78093340514C0803409F49DC050
:1038500040F48033B9F38833F9F68093340585EC6E
:10386000B0C0803509F485C0883509F496C0883425
:1038700099F60E949712D0CF883909F48CC038F598
:10388000883729F050F4883611F0803729F683E024
:10389000809336051092CA0457C0883809F47BC05B
:1038A000803919F0803809F0B7CF8091CA0480328E
:1038B00008F071C0E091CA0481E08E0F8093CA04C1
:1038C0008091BB00F0E0E655FB4F80833DC0803B1C
:1038D00039F0E0F4803A09F479C0883A09F09CCFD5
:1038E00084E0809336051092A9041092A804E09118
:1038F000ED04F091EE0409958091A80481110FC0A8
:1039000081E08093A8041092880409C0803C09F4E7
:10391000A6CF883C09F4A3CF883B09F07DCFE09186
:10392000A90481E08E0F8093A904F0E0E857FB4FD3
:1039300080818093BB009091A9048091A80429C044
:10394000809111058093BB0085EC8093BC0064CF0F
:103950009091330580913205981758F5E091330521
:1039600081E08E0F80933305F0E0EE5EFA4F8081A8
:10397000E9CFE091330581E08E0F8093330580918C
:10398000BB00F0E0EE5EFA4F8083909133058091AA
:1039900032059817C8F285E8D8CFE091330581E069
:1039A0008E0F809333058091BB00F0E0EE5EFA4FFE
:1039B00080838091350581115CCF81E08093100573
:1039C00084EA8093BC001092360526CF85EC809364
:1039D000BC00109236058091CA04803230F4E09128
:1039E000CA04F0E0E655FB4F10826091CA0470E013
:1039F000E091EB04F091EC048AEA94E009951092CE
:103A0000CA040ACF1092340534CF1F920F920FB61A
:103A10000F9211242F933F934F935F936F937F9354
:103A20008F939F93AF93BF93EF93FF9389B10E94BE
:103A3000D408FF91EF91BF91AF919F918F917F91AA
:103A40006F915F914F913F912F910F900FBE0F900B
:103A50001F9018951F920F920FB60F9211242F935B
:103A60003F934F935F936F937F938F939F93AF9306
:103A7000BF93EF93FF9386B10E94D408FF91EF911B
:103A8000BF91AF919F918F917F916F915F914F9176
:103A90003F912F910F900FBE0F901F9018951F927E
:103AA0000F920FB60F9211242F933F934F935F9372
:103AB0006F937F938F939F93AF93BF93EF93FF93F6
:103AC00083B10E94D408FF91EF91BF91AF919F9174
:103AD0008F917F916F915F914F913F912F910F90B7
:103AE0000FBE0F901F901895CF93DF93C1E4D1E0E4
:103AF00081E08A830E94270568517C4F8F4F9F4F3A
:103B00006C837D838E839F83DF91CF910895EF92A5
:103B1000FF920F931F93CF93DF9300D0CDB7DEB703
:103B20008B010E9430137C01FC01808181110AC04D
:103B300080E00F900F90DF91CF911F910F91FF9038
:103B4000EF9008951A821982BE016F5F7F4FC701FF
:103B50000E94E32CF801608371838283938309813F
:103B60001A810115110571F0F8018081882371F027
:103B700090E00E944A2F892BD9F20F5F1F4F1A83C2
:103B80000983EDCFEF28A1F281E0D3CF0E151F05F9
:103B9000D9F7CECFCF93DF93CCE6D5E01B821A8244
:103BA00048EE53E060E070E04C835D836E837F837A
:103BB00083E693E09983888385EC90E09D878C87EA
:103BC00084EC90E09F878E8780EC90E0998B888BC7
:103BD00081EC90E09B8B8A8B82EC90E09D8B8C8BB0
:103BE00086EC90E09F8B8E8B198E1A8E1B8E1C8E0E
:103BF000E0E6F5E01382128244835583668377837F
:103C000085E793E0918380838AE896E0DC01139650
:103C10001C921E921297FC0144835583668377831E
:103C200027E833E03183208321E1248720E12587C1
:103C3000138A128AEDE0F6E038E6308312821182B0
:103C400048EF5AE260E070E0418B528B638B748BDB
:103C500012A611A614A613A616A615A610AA17A694
:103C600012AA11AA14AA13AA15AA16AA17AA10AE64
:103C700011AE12AE13AE14AE10924A0610924B065D
:103C800010924C0610924D0610924E0610924F065E
:103C900010925006109251064FE652E163E87AE323
:103CA0004093520650935306609354067093550602
:103CB00046EA5BE964E47BE340935606509357067B
:103CC000609358067093590640E050E060E07FE34F
:103CD00040935A0650935B0660935C0670935D06B2
:103CE0004DEC5CEC6CE47DE340935E0650935F0624
:103CF00060936006709361061092620610926306EC
:103D0000109264061092650610926606109267067D
:103D10001092680610926906EAE6F6E0DF011D924D
:103D20002A95E9F720E1E1E3F3E0AAE7B6E00190A4
:103D30000D922A95E1F7E9E0F6E0D183C083938301
:103D40008283DF91CF910895CF93DF93CDB7DEB714
:103D5000C35AD1090FB6F894DEBF0FBECDBF789419
:103D600084B5826084BD84B5816084BD85B5826080
:103D700085BD85B5816085BD80916E008160809331
:103D80006E0010928100809181008260809381009A
:103D900080918100816080938100809180008160AA
:103DA000809380008091B10084608093B100809105
:103DB000B00081608093B00080917A00846080932D
:103DC0007A0080917A00826080937A0080917A00F4
:103DD000816080937A0080917A00806880937A0075
:103DE0001092C10062E08DE00E94880261E08BE0E9
:103DF0000E94880260E08BE00E945A02E0917C05FC
:103E0000F0917D0582E08083E0917805F09179055D
:103E10001082E0917A05F0917B0580E18083109219
:103E20008405E0918005F091810586E08083E09132
:103E30007E05F0917F05808180618083E0917E0521
:103E4000F0917F05808188608083E0917E05F0910C
:103E50007F05808180688083E0917E05F0917F05F9
:103E600080818F7D808380919A0690919B06803817
:103E7000954279F080E895E290939B0680939A06AC
:103E800080910D0590910E058A58964011F40E947C
:103E9000C4020E94C40269E772E080910906909111
:103EA0000A060E943C056FE972E080910906909134
:103EB0000A060E94181161E772E080910B0690914A
:103EC0000C060E943C056FE972E080910B06909110
:103ED0000C060E94181161E088E00E94880261E0EF
:103EE0008CE00E94880261E08AE00E94880261E022
:103EF00087E00E94880261E086E00E94880261E01B
:103F000089E00E9488020E944E0462E085E00E94DF
:103F1000880262E084E00E94880289B18093F904FB
:103F20008AE390E08C0F9D1F07960E94DF09CE0167
:103F300008960E94DF09BE01665C7F4F90E080E03A
:103F40000E94100DBE016F5F7F4F89E390E00E94D9
:103F5000100DCE01CA960E942D0A182FCE0101968F
:103F60000E942D0A111134C6811143C68FEF809330
:103F70004D011092490110924A0110924B0110928A
:103F80004C0161E872E08AE892E00E948F1181E0C2
:103F9000809341011092F0041092EF0410923D05BD
:103FA00010925F050E94940683E395E09093EE04DF
:103FB0008093ED0484E395E09093EC048093EB040C
:103FC000E0900E06F0900F0601E023E042E06BE681
:103FD00080910D060E94B70C80E090E0AAEFBBE351
:103FE0008093260690932706A0932806B09329066F
:103FF000E0900E06F0900F0600E022E044E06BE156
:1040000080910D060E94B70C80E090E0A0E8B8E334
:104010008093220690932306A0932406B09325064E
:10402000E0900E06F0900F0622E044E06CE18091F3
:104030000D060E94B70CA0900E06B0900F06D0900F
:104040000D06750108EE13E09E012F5F3F4F41E022
:104050006BE68D2D0E94C20A89818F7B8983E4964D
:104060008FAFE4979501AE014D585F4F6BE68D2DF4
:104070000E94C30762E070E080E090E00E94F404D8
:104080001092620610926306109264061092650602
:1040900010926606109267061092680610926906E2
:1040A0001092420610924306109244061092450662
:1040B0001092460610924706109248061092490642
:1040C00010924A0610924B0610924C0610924D0622
:1040D00010924E0610924F06109250061092510602
:1040E0001092760610927706109278061092790652
:1040F0001092720610927306109274061092750652
:1041000010926E0610926F06109270061092710651
:1041100010926A0610926B0610926C0610926D0651
:1041200080E090E0A0E8BFE380937A0690937B065E
:10413000A0937C06B0937D0610927E0610927F06B7
:1041400010928006109281061092820610928306C9
:1041500010928406109285068093860690938706B7
:10416000A0938806B09389060E94640AA0E9CA2E2B
:10417000DD24D394812C912C5401F0E4EF2EF6E051
:10418000FF2E0EE316E02CE336E04AE356E068E348
:1041900076E086E396E00E944F0C60913A067091BB
:1041A0003B06072E000C880B990B0E94A32F2B01B6
:1041B0003C016091380670913906072E000C880B7F
:1041C000990B0E94A32FA30192010E947034905872
:1041D00020EE3EE245E652E40E9402309B01AC0133
:1041E000C501B4010E94F1334B015C0165E070E050
:1041F00080E090E00E94F404F1E0CF1AD10809F0C9
:10420000BCCF20E030E048EC53E4C501B4010E948B
:10421000CF3460939C0170939D0180939E01909395
:104220009F0160933001709331018093320190932C
:10423000330182E0809341010E94CF0460934E01DC
:1042400070934F0180935001909351010E94270574
:104250006093640170936501809366019093670198
:104260000E942705609368017093690180936A0139
:1042700090936B010E94270560936C0170936D0110
:1042800080936E0190936F010E94270560937001E7
:104290007093710180937201909373010E942705BE
:1042A0006093740170937501809376019093770108
:1042B0000E942705609378017093790180937A01B9
:1042C00090937B010E9464110E94820F80914101B2
:1042D000823011F40E94F611EAE32E2E312C2C0EBE
:1042E0003D1E27E0220E311C89B19091F9049827D8
:1042F0008093F90495FF16C085FF14C04091F50422
:104300005091F6046091F7047091F8044F5F5F4F8D
:104310006F4F7F4F4093F5045093F6046093F7047A
:104320007093F80494FF15C084FF13C08091F104CA
:104330009091F204A091F304B091F4040196A11DB0
:10434000B11D8093F1049093F204A093F304B09311
:10435000F4040E942705EC966CAF7DAF8EAF9FAF43
:10436000EC970E94CF044B015C01E0E3F3E0849101
:10437000E9E8F3E01491E5E7F3E0049101115DC48D
:104380008091440181110AC081E0809344018091B1
:104390004001882309F463C40E94CB112AE836E067
:1043A0004FEF52E06DEB71E0C9010E949F132CE6C4
:1043B00035E040E053E06EE572E0C9010E949F13D2
:1043C00080914E0190914F01A0915001B091510107
:1043D00075016401C81AD90AEA0AFB0AF8E8CF167F
:1043E000F3E1DF06E104F10408F447C480924E01D2
:1043F00090924F01A0925001B0925101C09252018F
:10440000D0925301E0925401F092550180915601EF
:1044100090915701A0915801B0915901C816D90641
:10442000EA06FB0640F4C0925601D0925701E09292
:104430005801F092590180915A0190915B01A0912D
:104440005C01B0915D018C159D05AE05BF0540F482
:10445000C0925A01D0925B01E0925C01F0925D0142
:1044600080915E0190915F01A0916001B091610126
:104470008C0D9D1DAE1DBF1D80935E0190935F014D
:10448000A0936001B09361018091620190916301FA
:104490008F3F980729F00196909363018093620102
:1044A000C701B6010E94A12F2DEB37E346E855E383
:1044B0000E940230E8966CAF7DAF8EAF9FAFE89759
:1044C0002FE632E143E85AE30E949C2F87FF02C0A7
:1044D0000C94A52C2AE037ED43EA5CE3E8966CAD3A
:1044E0007DAD8EAD9FADE8970E949E35181614F4F1
:1044F0000C94BA2C31E2C3163EE4D306E104F10475
:1045000018F10E94270500918401109185012091E6
:10451000860130918701601B710B820B930B683E03
:1045200073408105910580F00E9427056093840106
:104530007093850180938601909387016AEE72E003
:1045400086EF92E00E948F1120E030E0A901E8960A
:104550006CAD7DAD8EAD9FADE8970E949C2F181677
:104560000CF086C360E4E62E66E0F62E0EE316E05D
:104570002CE336E04AE356E068E376E086E396E033
:104580000E944F0C60913A0670913B06072E000C7A
:10459000880B990B0E94A32FCC57DF4F6883798338
:1045A0008A839B83C458D040609138067091390645
:1045B000072E000C880B990B0E94A32FCC57DF4FBE
:1045C000288139814A815B81C458D0400E9470346F
:1045D0006B017C0160913C0670913D06072E000C3A
:1045E000880B990B0E94A32F905820E030E043E005
:1045F00053E40E94CF34C856DF4F688379838A839F
:104600009B83C859D04060913E0670913F06072EAB
:10461000000C880B990B0E94A32F905820E030E0EB
:1046200043E053E40E94CF34C056DF4F6883798360
:104630008A839B83C05AD0406091400670914106A6
:10464000072E000C880B990B0E94A32F905820E096
:1046500030E043E053E40E94CF3460934A06709305
:104660004B0680934C0690934D0680916206909184
:104670006306A0916406B0916506C457DF4F888336
:104680009983AA83BB83CC58D0409C01AD01C85606
:10469000DF4F688179818A819B81C859D0400E940F
:1046A000F033E8962CAD3DAD4EAD5FADE8970E947E
:1046B00002302091420630914306409144065091C9
:1046C00045060E94F133C456DF4F688379838A839D
:1046D0009B83CC59D040C701B601905820EE3EE2F2
:1046E00045E652E40E940230C456DF4F28813981EA
:1046F0004A815B81CC59D0400E94F033C058DF4FD3
:10470000688379838A839B83C058D0406093660610
:1047100070936706809368069093690640907E06C2
:1047200050907F06609080067090810620918206EE
:10473000309183064091840650918506C857DF4F1B
:10474000288339834A835B83C858D040A3019201F0
:1047500060915206709153068091540690915506CF
:104760000E94F033C857DF4F288139814A815B812D
:10477000C858D0400E94F0339B01AC0120936A06D8
:1047800030936B0640936C0650936D0680918606BD
:1047900090918706A0918806B0918906C057DF4F97
:1047A00088839983AA83BB83C059D0404C015D01A3
:1047B000B7FAB094B7F8B09480926E0690926F06F4
:1047C000A0927006B0927106809272069092730663
:1047D000A0927406B0927506809156069091570685
:1047E000A0915806B0915906CC56DF4F8883998323
:1047F000AA83BB83C459D0408093760690937706F2
:10480000A0937806B0937906E8966CAD7DAD8EAD39
:104810009FADE8970E94023020917A0630917B0686
:1048200040917C0650917D060E94F1336B017C0122
:10483000A5019401E8966CAD7DAD8EAD9FADE89776
:104840000E9402304B015C01AC019B01C301B2012B
:104850000E94F133C458DF4F688379838A839B8336
:10486000CC57D040A5019401C857DF4F68817981AA
:104870008A819B81C858D0400E94F133C857DF4FCE
:10488000688379838A839B83C858D04020915A06D5
:1048900030915B0640915C0650915D06C701B60100
:1048A0000E94F1332B013C01AC019B01C701B60111
:1048B0000E94CF344B015C01A3019201C857DF4F26
:1048C000688179818A819B81C858D0400E94CF3409
:1048D0002B013C01A5019401C701B6010E940230E1
:1048E0009B01AC01C701B6010E94F03360937A06C8
:1048F00070937B0680937C0690937D06A5019401BE
:10490000C458DF4F688179818A819B81CC57D04020
:104910000E9402309B01AC01C458DF4F688179814D
:104920008A819B81CC57D0400E94F03360937E06F1
:1049300070937F068093800690938106A301920175
:10494000C701B6010E9402309B01AC01C857DF4F7E
:10495000688179818A819B81C858D0400E94F03358
:1049600060938206709383068093840690938506F5
:10497000CC56DF4F288139814A815B81C459D040B0
:10498000E8966CAD7DAD8EAD9FADE8970E9402308C
:10499000C057DF4F288139814A815B81C059D0409F
:1049A0000E94F1336B017C01A3019201C458DF4FD7
:1049B000688179818A819B81CC57D0400E940230E6
:1049C0009B01AC01C701B6010E94F03360938606DB
:1049D000709387068093880690938906A3019201BD
:1049E000C058DF4F688179818A819B81C058D0404F
:1049F0000E940230C457DF4F288139814A815B8190
:104A0000CC58D0400E94F1339B01AC012093620648
:104A1000309363064093640650936506C856DF4F93
:104A2000688179818A819B81C859D0400E94F03386
:104A30006093460670934706809348069093490614
:104A4000A5019401C058DF4F688179818A819B81DB
:104A5000C058D0400E940230C456DF4F28813981AF
:104A60004A815B81CC59D0400E94F1336093420669
:104A700070934306809344069093450660913606F2
:104A800070913706072E000C880B990B0E94A32FFC
:104A9000CC57DF4F288139814A815B81C458D0408F
:104AA0000E9470346B017C0180905E0690905F06DE
:104AB000A0906006B0906106C056DF4F2881398112
:104AC0004A815B81C05AD040E8966CAD7DAD8EAD19
:104AD0009FADE8970E94023020914E0630914F061C
:104AE00040915006509151060E94F1332B013C0138
:104AF000A501940160E070E080E89FE30E94F0333C
:104B00009B01AC01C301B2010E9402302B013C01A8
:104B1000C701B601905820EE3EE245E652E40E94FD
:104B20000230A50194010E9402309B01AC01C30137
:104B3000B2010E94F13360934E0670934F0680934A
:104B400050069093510680914101883009F4A0C02D
:104B5000F8946091F1047091F2048091F3049091C3
:104B6000F4040091F5041091F6042091F7043091BB
:104B7000F8047894600F711F821F931F22E030E0C9
:104B800040E050E00E94523369017A018090980120
:104B900090909901A0909A01B0909B01C0929801C9
:104BA000D0929901E0929A01F0929B01809141018B
:104BB000833021F48091400181117CC3E0EAF1E06F
:104BC00088E1DF011D928A95E9F70E944E0455C0E5
:104BD00021964CAD5DAD6EAD7FAD2197882349F137
:104BE0008C819D81AE81BF8184179507A607B70789
:104BF00000F121E0CE01019630E3FC013796A1E0FF
:104C0000B3E001900D923A95E1F7FC018381948124
:104C1000A581B6818093490190934A01A0934B01ED
:104C2000B0934C0120934D0161E972E088E992E074
:104C3000ACC920E0CE01CA96DFCF81110E943102BB
:104C4000E02FF0E0EE0FFF1FE25AFC4FA591B49168
:104C50008C91182309F494CB109244019FCB80913E
:104C600041018250823008F099CB0E94F61196CB18
:104C70006CED72E082E00E9440128091410185302B
:104C800039F48091BC01882309F421C60E94460AA8
:104C900080914301882309F4A1C08091450190913E
:104CA0004601A0914701B0914801EC962CAD3DAD75
:104CB0004EAD5FADEC97281B390B4A0B5B0BDA014D
:104CC000C901B7FD8BC0C1010E94DF0982E492E4F3
:104CD0009BAF8AAF81E08CAF8091490190914A01EE
:104CE000A0914B01B0914C010196A11DB11D2196DF
:104CF0008CAF9DAFAEAFBFAF219780E3E1E0F3E0B3
:104D0000DE01AF5BBF4F01900D928A95E1F7CE01B6
:104D1000CA960E941802E3969FAF8EAFE3978091E8
:104D20004D019924939409E310E0882319F0912C04
:104D300010E000E0AE01465C5F4F6A01F12CE12C0F
:104D4000D6018D906D015801AE0CBF1CC5010E94AB
:104D50000A33881621F0682DC5010E941233BFEF77
:104D6000EB1AFB0AE9E3EE16F10451F7CE010896BF
:104D70000E94DF0990E080E0992011F089E390E043
:104D8000BE016F5F7F4F0E94100DCE0101960E9401
:104D90002D0A882309F4C9C58C819D81AE81BF810C
:104DA00021964CAD5DAD6EAD7FAD21978417950713
:104DB000A607B70709F0B9C58093490190934A0146
:104DC000A0934B01B0934C0190924D01109243017E
:104DD00068E073E08BE093E00E948F11809178018E
:104DE00090917901A0917A01B0917B01EC962CAD64
:104DF0003DAD4EAD5FADEC97281B390B4A0B5B0BFD
:104E0000DA01C901883E9340A105B10580F0EC9616
:104E10008CAD9DADAEADBFADEC9780937801909316
:104E20007901A0937A01B0937B010E946411809173
:104E3000740190917501A0917601B0917701EC9683
:104E40002CAD3DAD4EAD5FADEC97281B390B4A0B39
:104E50005B0BDA01C90188399A43A105B105C0F09D
:104E6000EC968CAD9DADAEADBFADEC97809374016B
:104E700090937501A0937601B093770180914101E1
:104E8000833021F480914001811102C00E94820F81
:104E90008091680190916901A0916A01B0916B01C4
:104EA000EC962CAD3DAD4EAD5FADEC97281B390BAC
:104EB0004A0B5B0BDA01C901883E9340A105B1059D
:104EC00008F487C0EC968CAD9DADAEADBFADEC9750
:104ED0008093680190936901A0936A01B0936B017C
:104EE000F894C090F104D090F204E090F304F090B4
:104EF000F4048090F5049090F604A090F704B0902C
:104F0000F804789480918C0190918D01A0918E018C
:104F1000B0918F01A5019401281B390B4A0B5B0B43
:104F2000E8962CAF3DAF4EAF5FAFE8978091880118
:104F300090918901A0918A01B0918B0126013701DE
:104F4000481A590A6A0A7B0A0091090610910A0652
:104F500066E173E0C8010E943C05B701A601C801E3
:104F60000E94910D64E173E0C8010E943C05B50107
:104F7000A401C8010E94910D62E173E0C8010E9482
:104F80003C05B301A201C8010E94910D60E173E0EC
:104F9000C8010E943C05E8964CAD5DAD6EAD7FAD9D
:104FA000E897C8010E94910D61EA73E0C8010E9470
:104FB000360DC0928801D0928901E0928A01F09268
:104FC0008B0180928C0190928D01A0928E01B09203
:104FD0008F018091640190916501A0916601B0916B
:104FE0006701EC962CAD3DAD4EAD5FADEC97281B47
:104FF000390B4A0B5B0BDA01C901883E9340A105CE
:10500000B10508F49AC0EC968CAD9DADAEADBFADC8
:10501000EC978093640190936501A0936601B0932F
:10502000670160906201709063016114710409F47A
:1050300082C4930150E040E060915E0170915F0195
:1050400080916001909161010E943033522E432E75
:10505000FA0190915A01E5969FAFE597A0915B0107
:10506000C058DF4FA883C058D040B0915C01ED9686
:10507000BFAFED9720915D01CC57DF4F2883C45817
:10508000D0408091560190915701A0915801B09164
:1050900059018F3F3FEF9307A307B30719F480E04F
:1050A00090E0DC018090520190905301A090540157
:1050B000B0905501C0904A06D0904B06E0904C0647
:1050C000F0904D0600914606109147062091480643
:1050D0003091490640914206509143066091440642
:1050E000709145067F926F92FF93EF934F925F927C
:1050F000CC57DF4FE881C458D040EF93ED96FFAD19
:10510000ED97FF93C058DF4FE881C058D040EF9330
:10511000E596FFADE597FF93BF93AF939F938F9372
:105120008091090690910A060E94A40F0E94500ADD
:105130000FB6F894DEBF0FBECDBF80916C01909189
:105140006D01A0916E01B0916F01EC962CAD3DAD5B
:105150004EAD5FADEC97281B390B4A0B5B0BDA01A8
:10516000C901883E9340A105B10508F496C0EC96AC
:105170008CAD9DADAEADBFADEC9780936C019093BF
:105180006D01A0936E01B0936F0160906201709009
:1051900063016114710409F4D3C3930150E040E04A
:1051A00060915E0170915F01809160019091610159
:1051B0000E943033522E432EFA0190915A01E59607
:1051C0009FAFE597A0915B01E996AFAFE997B091EA
:1051D0005C01C058DF4FB883C058D04020915D01BA
:1051E000ED962FAFED978091560190915701A091C8
:1051F0005801B09159018F3F3FEF9307A307B307C1
:1052000019F480E090E0DC0180905201909053010D
:10521000A0905401B0905501C0904A06D0904B0622
:10522000E0904C06F0904D0600914606109147061E
:10523000209148063091490640914206509143061C
:1052400060914406709145067F926F92FF93EF93B1
:105250004F925F92ED96EFADED97EF93C058DF4F11
:10526000F881C058D040FF93E996EFADE997EF93EE
:10527000E596FFADE597FF93BF93AF939F938F9311
:1052800080910B0690910C060E94A40F0E94500A78
:105290000FB6F894DEBF0FBECDBF80E090E0892B43
:1052A00009F422C80E94CA05882309F41DC80E9477
:1052B00000001AC8209142063091430640914406EE
:1052C00050914506CC57DF4F288339834A835B834F
:1052D000C458D04020E030E0A901E8966CAD7DAD27
:1052E0008EAD9FADE8970E949C2F18160CF0CAC295
:1052F0008091460690914706A0914806B0914906D4
:10530000C057DF4F88839983AA83BB83C059D0409D
:10531000C701B601681979098A099B090E94A32F60
:10532000E8962CAD3DAD4EAD5FADE8970E94CF3411
:10533000C058DF4F688379838A839B83C058D040ED
:1053400040903001509031016090320170903301F3
:10535000C701B6010E94A32F6B017C01A30192013A
:10536000CC57DF4F688179818A819B81C458D040B6
:105370000E94F0339F7720E030E040E250E40E944A
:105380009C2F87FF37C020E030E040E951E4C0584F
:10539000DF4F688179818A819B81C058D0409F7797
:1053A0000E949C2F87FF26C028E431EE4AE75FE386
:1053B00060913C0170913D0180913E0190913F01CF
:1053C0000E9402304B015C012AE037ED43EA5CE3C6
:1053D000C701B6010E9402309B01AC01C501B401B6
:1053E0000E94F13360933C0170933D0180933E0134
:1053F00090933F01A701960160913C0170913D019E
:1054000080913E0190913F010E94F033C458DF4FDC
:10541000688379838A839B83CC57D0409B01AC01FE
:10542000E8966CAD7DAD8EAD9FADE8970E940230E1
:10543000209138013091390140913A0150913B015E
:105440000E94F1336B017C0120E030E44CE955EC23
:105450000E949C2F87FDF8C120E030E44CE955E420
:10546000C701B6010E949E3518163CF4C12C50E4C9
:10547000D52E5CE9E52E55E4F52EC0923801D09288
:105480003901E0923A01F0923B01209110013091F4
:1054900011014091120150911301C458DF4F6881EE
:1054A00079818A819B81CC57D0400E9402304B0188
:1054B0005C01209114013091150140911601509129
:1054C0001701C701B6010E9402309B01AC01C50162
:1054D000B4010E94F1336B017C01209118013091DD
:1054E000190140911A0150911B01C058DF4F68818A
:1054F00079818A819B81C058D0400E9402309B01F3
:10550000AC01C701B6010E94F0334B015C0120E001
:1055100030E040EC50EC0E949C2F87FD9DC120E0C4
:1055200030E040EC50E4C501B4010E949E351816ED
:1055300034F4812C912C30ECA32E30E4B32E209146
:105540000001309101014091020150910301C3011A
:10555000B2010E94F133A50194010E94F133C457B6
:10556000DF4F688379838A839B83CC58D0409B012B
:10557000AC01CC57DF4F688179818A819B81C45807
:10558000D0400E94F0332B013C0120910801309162
:10559000090140910A0150910B01C857DF4F288340
:1055A00039834A835B83C858D04020E030E0A901AA
:1055B000C857DF4F688179818A819B81C858D04064
:1055C0000E949C2F882309F454C1A3019201E896FC
:1055D0006CAD7DAD8EAD9FADE8970E9402302091FD
:1055E00034013091350140913601509137010E94CC
:1055F000F1336B017C0120E030E046E953EC0E947E
:105600009C2F87FD2FC120E030E046E953E4C7011D
:10561000B6010E949E35181634F4C12CD12C96E99F
:10562000E92E93E4F92EC0923401D0923501E09234
:105630003601F0923701209104013091050140912B
:10564000060150910701C301B2010E9402306B01B3
:105650007C01209134013091350140913601509107
:105660003701C857DF4F688179818A819B81C8588B
:10567000D0400E9402309B01AC01C701B6010E94DC
:10568000F1336B017C0120910C0130910D014091AF
:105690000E0150910F01C057DF4F688179818A81D7
:1056A0009B81C059D0400E9402309B01AC01C701D0
:1056B000B6010E94F13390580E9441357B01F0926F
:1056C000A101E092A001F092A301E092A201C457CF
:1056D000DF4F88819981AA81BB81CC58D0408093CB
:1056E000A4019093A501A093A601B093A701809275
:1056F000A8019092A901A092AA01B092AB01C4584E
:10570000DF4F288139814A815B81CC57D04020937B
:10571000AC013093AD014093AE015093AF01C0583E
:10572000DF4F88819981AA81BB81C058D040809386
:10573000B0019093B101A093B201B093B301409234
:10574000B4015092B5016092B6017092B70120E0A9
:1057500030E044E352E4CC57DF4F688179818A819D
:105760009B81C458D0409F770E949E3518160CF03C
:10577000A9C08E010F5F1F4F22E040E0CC57DF4FE2
:10578000688179818A819B81C458D0400E94C52C50
:10579000C8010E94F81281E08093420188E0809362
:1057A0004101109240011092340110923501109283
:1057B000360110923701109238011092390110927F
:1057C0003A0110923B010E944E0465EC72E0809118
:1057D000090690910A060E943C0562EE71E08091F4
:1057E000090690910A060E943C0563EC72E08091E4
:1057F000090690910A060E943C05B80180910906AD
:1058000090910A060E94C8106AEB72E080910B0624
:1058100090910C060E943C0562EE71E080910B06AF
:1058200090910C060E943C0568EB72E080910B069B
:1058300090910C060E943C05B80180910B06909156
:105840000C060E94C81019CAC12C40E4D42E4CE9A1
:10585000E42E45ECF42E11CE812C912C20ECA22EBE
:10586000BA2C6DCEC12CD12C86E9E82E83ECF82E13
:10587000DACE109234011092350110923601109256
:105880003701D9CE412C512C3201C058DF4F48820C
:1058900059826A827B82C058D040C458DF4F488208
:1058A00059826A827B82CC57D04053014201C4574F
:1058B000DF4F488259826A827B82CC58D040F12CDB
:1058C000E12CFDCEB701C7010E94BE04D6C9EC96FB
:1058D0006CAD7DAD8EAD9FADEC9720ED37E040E037
:1058E00050E00E943033DA01C90183709927AA275A
:1058F000BB2781309105A105B10569F038F0029709
:10590000A105B10579F00E944E04C2C96AE570E0B4
:105910008AE590E004C066EA7FEF86EA9FEF0E9486
:10592000BE04B6C966EA7FEFF3CF6BEF72E085E0A5
:105930000E94401253CA512C412CE0E0F0E089CB88
:10594000512C412CE0E0F0E038CC8FE692E1A3E866
:10595000BAE3E8968CAF9DAFAEAFBFAFE89731E248
:10596000C3163EE4D306E104F10410F40C94B22211
:105970000C9481222AE037ED43EA5CE3E8962CAFF1
:105980003DAF4EAF5FAFE897EACFEF920F931F9313
:10599000CF93DF93E80134E047FD34E1042E000C9F
:1059A000550B57FF03C0519541955109E32E022F26
:1059B000242FAE010E946F30CE01DF91CF911F9155
:1059C0000F91EF900895B0E0A0E0E9EEFCE20C94B6
:1059D00082335C017B016115710519F0DB018D9348
:1059E0009C9385010F5F1F4FF501D0818D2F90E0B3
:1059F0000E944A2F6C01892BB9F5DD32B9F50F5F92
:105A00001F4FD5011196DC91C1E05801F1E0AF1AAA
:105A1000B10843E050E06EE970E0C5010E94532FE9
:105A2000892B69F5680182E0C80ED11C45E050E081
:105A300069E970E0C6010E94532F892B21F46801A7
:105A400097E0C90ED11CE114F10419F0D701CD92F1
:105A5000DC9260E070E080E89FEFC111FFC060E081
:105A600070E080E89FE7FAC05801BBCFDB3229F431
:105A700085010E5F1F4FF501D181C0E0C6CF43E025
:105A800050E066E970E0C5010E94532F892BE9F0D0
:105A9000F80110E000E020E030E0A9015F01B0ED86
:105AA0008B2E8D0E89E08815C8F19C2E689491F894
:105AB0008C2F8870C2FF16C0811102C00F5F1F4F6C
:105AC0003196D501DC91C92DE9CFE114F10429F01B
:105AD0000E5F1F4FF7011183008360E070E080ECE0
